{
  "contractName": "NFT",
  "abi": [
    {
      "inputs": [
        {
          "internalType": "address",
          "name": "marketplaceAddress",
          "type": "address"
        }
      ],
      "stateMutability": "nonpayable",
      "type": "constructor"
    },
    {
      "anonymous": false,
      "inputs": [
        {
          "indexed": true,
          "internalType": "address",
          "name": "owner",
          "type": "address"
        },
        {
          "indexed": true,
          "internalType": "address",
          "name": "approved",
          "type": "address"
        },
        {
          "indexed": true,
          "internalType": "uint256",
          "name": "tokenId",
          "type": "uint256"
        }
      ],
      "name": "Approval",
      "type": "event"
    },
    {
      "anonymous": false,
      "inputs": [
        {
          "indexed": true,
          "internalType": "address",
          "name": "owner",
          "type": "address"
        },
        {
          "indexed": true,
          "internalType": "address",
          "name": "operator",
          "type": "address"
        },
        {
          "indexed": false,
          "internalType": "bool",
          "name": "approved",
          "type": "bool"
        }
      ],
      "name": "ApprovalForAll",
      "type": "event"
    },
    {
      "anonymous": false,
      "inputs": [
        {
          "indexed": true,
          "internalType": "address",
          "name": "from",
          "type": "address"
        },
        {
          "indexed": true,
          "internalType": "address",
          "name": "to",
          "type": "address"
        },
        {
          "indexed": true,
          "internalType": "uint256",
          "name": "tokenId",
          "type": "uint256"
        }
      ],
      "name": "Transfer",
      "type": "event"
    },
    {
      "inputs": [
        {
          "internalType": "uint256",
          "name": "",
          "type": "uint256"
        }
      ],
      "name": "_burnToken",
      "outputs": [
        {
          "internalType": "bool",
          "name": "",
          "type": "bool"
        }
      ],
      "stateMutability": "view",
      "type": "function",
      "constant": true
    },
    {
      "inputs": [
        {
          "internalType": "address",
          "name": "to",
          "type": "address"
        },
        {
          "internalType": "uint256",
          "name": "tokenId",
          "type": "uint256"
        }
      ],
      "name": "approve",
      "outputs": [],
      "stateMutability": "nonpayable",
      "type": "function"
    },
    {
      "inputs": [
        {
          "internalType": "address",
          "name": "owner",
          "type": "address"
        }
      ],
      "name": "balanceOf",
      "outputs": [
        {
          "internalType": "uint256",
          "name": "",
          "type": "uint256"
        }
      ],
      "stateMutability": "view",
      "type": "function",
      "constant": true
    },
    {
      "inputs": [
        {
          "internalType": "uint256",
          "name": "tokenId",
          "type": "uint256"
        }
      ],
      "name": "getApproved",
      "outputs": [
        {
          "internalType": "address",
          "name": "",
          "type": "address"
        }
      ],
      "stateMutability": "view",
      "type": "function",
      "constant": true
    },
    {
      "inputs": [
        {
          "internalType": "address",
          "name": "owner",
          "type": "address"
        },
        {
          "internalType": "address",
          "name": "operator",
          "type": "address"
        }
      ],
      "name": "isApprovedForAll",
      "outputs": [
        {
          "internalType": "bool",
          "name": "",
          "type": "bool"
        }
      ],
      "stateMutability": "view",
      "type": "function",
      "constant": true
    },
    {
      "inputs": [],
      "name": "name",
      "outputs": [
        {
          "internalType": "string",
          "name": "",
          "type": "string"
        }
      ],
      "stateMutability": "view",
      "type": "function",
      "constant": true
    },
    {
      "inputs": [
        {
          "internalType": "uint256",
          "name": "tokenId",
          "type": "uint256"
        }
      ],
      "name": "ownerOf",
      "outputs": [
        {
          "internalType": "address",
          "name": "",
          "type": "address"
        }
      ],
      "stateMutability": "view",
      "type": "function",
      "constant": true
    },
    {
      "inputs": [
        {
          "internalType": "address",
          "name": "from",
          "type": "address"
        },
        {
          "internalType": "address",
          "name": "to",
          "type": "address"
        },
        {
          "internalType": "uint256",
          "name": "tokenId",
          "type": "uint256"
        }
      ],
      "name": "safeTransferFrom",
      "outputs": [],
      "stateMutability": "nonpayable",
      "type": "function"
    },
    {
      "inputs": [
        {
          "internalType": "address",
          "name": "from",
          "type": "address"
        },
        {
          "internalType": "address",
          "name": "to",
          "type": "address"
        },
        {
          "internalType": "uint256",
          "name": "tokenId",
          "type": "uint256"
        },
        {
          "internalType": "bytes",
          "name": "_data",
          "type": "bytes"
        }
      ],
      "name": "safeTransferFrom",
      "outputs": [],
      "stateMutability": "nonpayable",
      "type": "function"
    },
    {
      "inputs": [
        {
          "internalType": "address",
          "name": "operator",
          "type": "address"
        },
        {
          "internalType": "bool",
          "name": "approved",
          "type": "bool"
        }
      ],
      "name": "setApprovalForAll",
      "outputs": [],
      "stateMutability": "nonpayable",
      "type": "function"
    },
    {
      "inputs": [
        {
          "internalType": "bytes4",
          "name": "interfaceId",
          "type": "bytes4"
        }
      ],
      "name": "supportsInterface",
      "outputs": [
        {
          "internalType": "bool",
          "name": "",
          "type": "bool"
        }
      ],
      "stateMutability": "view",
      "type": "function",
      "constant": true
    },
    {
      "inputs": [],
      "name": "symbol",
      "outputs": [
        {
          "internalType": "string",
          "name": "",
          "type": "string"
        }
      ],
      "stateMutability": "view",
      "type": "function",
      "constant": true
    },
    {
      "inputs": [
        {
          "internalType": "uint256",
          "name": "tokenId",
          "type": "uint256"
        }
      ],
      "name": "tokenURI",
      "outputs": [
        {
          "internalType": "string",
          "name": "",
          "type": "string"
        }
      ],
      "stateMutability": "view",
      "type": "function",
      "constant": true
    },
    {
      "inputs": [
        {
          "internalType": "address",
          "name": "from",
          "type": "address"
        },
        {
          "internalType": "address",
          "name": "to",
          "type": "address"
        },
        {
          "internalType": "uint256",
          "name": "tokenId",
          "type": "uint256"
        }
      ],
      "name": "transferFrom",
      "outputs": [],
      "stateMutability": "nonpayable",
      "type": "function"
    },
    {
      "inputs": [
        {
          "internalType": "string",
          "name": "tokenURI",
          "type": "string"
        }
      ],
      "name": "createToken",
      "outputs": [
        {
          "internalType": "uint256",
          "name": "",
          "type": "uint256"
        }
      ],
      "stateMutability": "nonpayable",
      "type": "function"
    },
    {
      "inputs": [
        {
          "internalType": "uint256",
          "name": "tokenId",
          "type": "uint256"
        }
      ],
      "name": "burnToken",
      "outputs": [
        {
          "internalType": "uint256",
          "name": "",
          "type": "uint256"
        }
      ],
      "stateMutability": "nonpayable",
      "type": "function"
    },
    {
      "inputs": [],
      "name": "fetchMyNFTs",
      "outputs": [
        {
          "internalType": "uint256[]",
          "name": "",
          "type": "uint256[]"
        }
      ],
      "stateMutability": "view",
      "type": "function",
      "constant": true
    }
  ],
  "bytecode": "0x60806040523480156200001157600080fd5b506040516200365d3803806200365d83398181016040528101906200003791906200040e565b6040518060400160405280601081526020017f4d657461766572736520546f6b656e73000000000000000000000000000000008152506040518060400160405280600481526020017f4d455454000000000000000000000000000000000000000000000000000000008152508160009080519060200190620000bb929190620002f4565b508060019080519060200190620000d4929190620002f4565b50505080600860006101000a81548173ffffffffffffffffffffffffffffffffffffffff021916908373ffffffffffffffffffffffffffffffffffffffff1602179055506200014d600860009054906101000a900473ffffffffffffffffffffffffffffffffffffffff1660016200015460201b60201c565b5062000562565b62000176620001686200017a60201b60201c565b83836200018260201b60201c565b5050565b600033905090565b8173ffffffffffffffffffffffffffffffffffffffff168373ffffffffffffffffffffffffffffffffffffffff161415620001f4576040517f08c379a0000000000000000000000000000000000000000000000000000000008152600401620001eb90620004a1565b60405180910390fd5b80600560008573ffffffffffffffffffffffffffffffffffffffff1673ffffffffffffffffffffffffffffffffffffffff16815260200190815260200160002060008473ffffffffffffffffffffffffffffffffffffffff1673ffffffffffffffffffffffffffffffffffffffff16815260200190815260200160002060006101000a81548160ff0219169083151502179055508173ffffffffffffffffffffffffffffffffffffffff168373ffffffffffffffffffffffffffffffffffffffff167f17307eab39ab6107e8899845ad3d59bd9653f200f220920489ca2b5937696c3183604051620002e79190620004e0565b60405180910390a3505050565b82805462000302906200052c565b90600052602060002090601f01602090048101928262000326576000855562000372565b82601f106200034157805160ff191683800117855562000372565b8280016001018555821562000372579182015b828111156200037157825182559160200191906001019062000354565b5b50905062000381919062000385565b5090565b5b80821115620003a057600081600090555060010162000386565b5090565b600080fd5b600073ffffffffffffffffffffffffffffffffffffffff82169050919050565b6000620003d682620003a9565b9050919050565b620003e881620003c9565b8114620003f457600080fd5b50565b6000815190506200040881620003dd565b92915050565b600060208284031215620004275762000426620003a4565b5b60006200043784828501620003f7565b91505092915050565b600082825260208201905092915050565b7f4552433732313a20617070726f766520746f2063616c6c657200000000000000600082015250565b60006200048960198362000440565b9150620004968262000451565b602082019050919050565b60006020820190508181036000830152620004bc816200047a565b9050919050565b60008115159050919050565b620004da81620004c3565b82525050565b6000602082019050620004f76000830184620004cf565b92915050565b7f4e487b7100000000000000000000000000000000000000000000000000000000600052602260045260246000fd5b600060028204905060018216806200054557607f821691505b602082108114156200055c576200055b620004fd565b5b50919050565b6130eb80620005726000396000f3fe608060405234801561001057600080fd5b506004361061010b5760003560e01c80636352211e116100a257806397b4e10a1161007157806397b4e10a146102de578063a22cb4651461030e578063b88d4fde1461032a578063c87b56dd14610346578063e985e9c5146103765761010b565b80636352211e1461023057806370a08231146102605780637b47ec1a1461029057806395d89b41146102c05761010b565b8063202e3740116100de578063202e3740146101aa57806323b872dd146101c857806342842e0e146101e457806345576f94146102005761010b565b806301ffc9a71461011057806306fdde0314610140578063081812fc1461015e578063095ea7b31461018e575b600080fd5b61012a60048036038101906101259190611d80565b6103a6565b6040516101379190611dc8565b60405180910390f35b610148610488565b6040516101559190611e7c565b60405180910390f35b61017860048036038101906101739190611ed4565b61051a565b6040516101859190611f42565b60405180910390f35b6101a860048036038101906101a39190611f89565b61059f565b005b6101b26106b7565b6040516101bf9190612087565b60405180910390f35b6101e260048036038101906101dd91906120a9565b61089e565b005b6101fe60048036038101906101f991906120a9565b6108fe565b005b61021a60048036038101906102159190612231565b61091e565b6040516102279190612289565b60405180910390f35b61024a60048036038101906102459190611ed4565b610955565b6040516102579190611f42565b60405180910390f35b61027a600480360381019061027591906122a4565b610a07565b6040516102879190612289565b60405180910390f35b6102aa60048036038101906102a59190611ed4565b610abf565b6040516102b79190612289565b60405180910390f35b6102c8610afe565b6040516102d59190611e7c565b60405180910390f35b6102f860048036038101906102f39190611ed4565b610b90565b6040516103059190611dc8565b60405180910390f35b610328600480360381019061032391906122fd565b610bb0565b005b610344600480360381019061033f91906123de565b610bc6565b005b610360600480360381019061035b9190611ed4565b610c28565b60405161036d9190611e7c565b60405180910390f35b610390600480360381019061038b9190612461565b610d7a565b60405161039d9190611dc8565b60405180910390f35b60007f80ac58cd000000000000000000000000000000000000000000000000000000007bffffffffffffffffffffffffffffffffffffffffffffffffffffffff1916827bffffffffffffffffffffffffffffffffffffffffffffffffffffffff1916148061047157507f5b5e139f000000000000000000000000000000000000000000000000000000007bffffffffffffffffffffffffffffffffffffffffffffffffffffffff1916827bffffffffffffffffffffffffffffffffffffffffffffffffffffffff1916145b80610481575061048082610e0e565b5b9050919050565b606060008054610497906124d0565b80601f01602080910402602001604051908101604052809291908181526020018280546104c3906124d0565b80156105105780601f106104e557610100808354040283529160200191610510565b820191906000526020600020905b8154815290600101906020018083116104f357829003601f168201915b5050505050905090565b600061052582610e78565b610564576040517f08c379a000000000000000000000000000000000000000000000000000000000815260040161055b90612574565b60405180910390fd5b6004600083815260200190815260200160002060009054906101000a900473ffffffffffffffffffffffffffffffffffffffff169050919050565b60006105aa82610955565b90508073ffffffffffffffffffffffffffffffffffffffff168373ffffffffffffffffffffffffffffffffffffffff16141561061b576040517f08c379a000000000000000000000000000000000000000000000000000000000815260040161061290612606565b60405180910390fd5b8073ffffffffffffffffffffffffffffffffffffffff1661063a610ee4565b73ffffffffffffffffffffffffffffffffffffffff161480610669575061066881610663610ee4565b610d7a565b5b6106a8576040517f08c379a000000000000000000000000000000000000000000000000000000000815260040161069f90612698565b60405180910390fd5b6106b28383610eec565b505050565b60606000806106c66007610fa5565b90506000805b8281101561077157600960006001836106e591906126e7565b815260200190815260200160002060009054906101000a900460ff1661075e573373ffffffffffffffffffffffffffffffffffffffff1661073160018361072c91906126e7565b610955565b73ffffffffffffffffffffffffffffffffffffffff16141561075d5760018261075a91906126e7565b91505b5b80806107699061273d565b9150506106cc565b5060008167ffffffffffffffff81111561078e5761078d612106565b5b6040519080825280602002602001820160405280156107bc5781602001602082028036833780820191505090505b50905060005b8381101561089357600960006001836107db91906126e7565b815260200190815260200160002060009054906101000a900460ff16610880573373ffffffffffffffffffffffffffffffffffffffff1661082760018361082291906126e7565b610955565b73ffffffffffffffffffffffffffffffffffffffff16141561087f5760018161085091906126e7565b82868151811061086357610862612786565b5b60200260200101818152505060018561087c91906126e7565b94505b5b808061088b9061273d565b9150506107c2565b508094505050505090565b6108af6108a9610ee4565b82610fb3565b6108ee576040517f08c379a00000000000000000000000000000000000000000000000000000000081526004016108e590612827565b60405180910390fd5b6108f9838383611091565b505050565b61091983838360405180602001604052806000815250610bc6565b505050565b600061092a60076112ed565b60006109366007610fa5565b90506109423382611303565b61094c81846114d1565b80915050919050565b6000806002600084815260200190815260200160002060009054906101000a900473ffffffffffffffffffffffffffffffffffffffff169050600073ffffffffffffffffffffffffffffffffffffffff168173ffffffffffffffffffffffffffffffffffffffff1614156109fe576040517f08c379a00000000000000000000000000000000000000000000000000000000081526004016109f5906128b9565b60405180910390fd5b80915050919050565b60008073ffffffffffffffffffffffffffffffffffffffff168273ffffffffffffffffffffffffffffffffffffffff161415610a78576040517f08c379a0000000000000000000000000000000000000000000000000000000008152600401610a6f9061294b565b60405180910390fd5b600360008373ffffffffffffffffffffffffffffffffffffffff1673ffffffffffffffffffffffffffffffffffffffff168152602001908152602001600020549050919050565b6000610aca82611545565b60016009600084815260200190815260200160002060006101000a81548160ff021916908315150217905550819050919050565b606060018054610b0d906124d0565b80601f0160208091040260200160405190810160405280929190818152602001828054610b39906124d0565b8015610b865780601f10610b5b57610100808354040283529160200191610b86565b820191906000526020600020905b815481529060010190602001808311610b6957829003601f168201915b5050505050905090565b60096020528060005260406000206000915054906101000a900460ff1681565b610bc2610bbb610ee4565b8383611598565b5050565b610bd7610bd1610ee4565b83610fb3565b610c16576040517f08c379a0000000000000000000000000000000000000000000000000000000008152600401610c0d90612827565b60405180910390fd5b610c2284848484611705565b50505050565b6060610c3382610e78565b610c72576040517f08c379a0000000000000000000000000000000000000000000000000000000008152600401610c69906129dd565b60405180910390fd5b6000600660008481526020019081526020016000208054610c92906124d0565b80601f0160208091040260200160405190810160405280929190818152602001828054610cbe906124d0565b8015610d0b5780601f10610ce057610100808354040283529160200191610d0b565b820191906000526020600020905b815481529060010190602001808311610cee57829003601f168201915b505050505090506000610d1c611761565b9050600081511415610d32578192505050610d75565b600082511115610d67578082604051602001610d4f929190612a39565b60405160208183030381529060405292505050610d75565b610d7084611778565b925050505b919050565b6000600560008473ffffffffffffffffffffffffffffffffffffffff1673ffffffffffffffffffffffffffffffffffffffff16815260200190815260200160002060008373ffffffffffffffffffffffffffffffffffffffff1673ffffffffffffffffffffffffffffffffffffffff16815260200190815260200160002060009054906101000a900460ff16905092915050565b60007f01ffc9a7000000000000000000000000000000000000000000000000000000007bffffffffffffffffffffffffffffffffffffffffffffffffffffffff1916827bffffffffffffffffffffffffffffffffffffffffffffffffffffffff1916149050919050565b60008073ffffffffffffffffffffffffffffffffffffffff166002600084815260200190815260200160002060009054906101000a900473ffffffffffffffffffffffffffffffffffffffff1673ffffffffffffffffffffffffffffffffffffffff1614159050919050565b600033905090565b816004600083815260200190815260200160002060006101000a81548173ffffffffffffffffffffffffffffffffffffffff021916908373ffffffffffffffffffffffffffffffffffffffff160217905550808273ffffffffffffffffffffffffffffffffffffffff16610f5f83610955565b73ffffffffffffffffffffffffffffffffffffffff167f8c5be1e5ebec7d5bd14f71427d1e84f3dd0314c0f7b2291e5b200ac8c7c3b92560405160405180910390a45050565b600081600001549050919050565b6000610fbe82610e78565b610ffd576040517f08c379a0000000000000000000000000000000000000000000000000000000008152600401610ff490612acf565b60405180910390fd5b600061100883610955565b90508073ffffffffffffffffffffffffffffffffffffffff168473ffffffffffffffffffffffffffffffffffffffff16148061107757508373ffffffffffffffffffffffffffffffffffffffff1661105f8461051a565b73ffffffffffffffffffffffffffffffffffffffff16145b8061108857506110878185610d7a565b5b91505092915050565b8273ffffffffffffffffffffffffffffffffffffffff166110b182610955565b73ffffffffffffffffffffffffffffffffffffffff1614611107576040517f08c379a00000000000000000000000000000000000000000000000000000000081526004016110fe90612b61565b60405180910390fd5b600073ffffffffffffffffffffffffffffffffffffffff168273ffffffffffffffffffffffffffffffffffffffff161415611177576040517f08c379a000000000000000000000000000000000000000000000000000000000815260040161116e90612bf3565b60405180910390fd5b61118283838361181f565b61118d600082610eec565b6001600360008573ffffffffffffffffffffffffffffffffffffffff1673ffffffffffffffffffffffffffffffffffffffff16815260200190815260200160002060008282546111dd9190612c13565b925050819055506001600360008473ffffffffffffffffffffffffffffffffffffffff1673ffffffffffffffffffffffffffffffffffffffff168152602001908152602001600020600082825461123491906126e7565b92505081905550816002600083815260200190815260200160002060006101000a81548173ffffffffffffffffffffffffffffffffffffffff021916908373ffffffffffffffffffffffffffffffffffffffff160217905550808273ffffffffffffffffffffffffffffffffffffffff168473ffffffffffffffffffffffffffffffffffffffff167fddf252ad1be2c89b69c2b068fc378daa952ba7f163c4a11628f55a4df523b3ef60405160405180910390a4505050565b6001816000016000828254019250508190555050565b600073ffffffffffffffffffffffffffffffffffffffff168273ffffffffffffffffffffffffffffffffffffffff161415611373576040517f08c379a000000000000000000000000000000000000000000000000000000000815260040161136a90612c93565b60405180910390fd5b61137c81610e78565b156113bc576040517f08c379a00000000000000000000000000000000000000000000000000000000081526004016113b390612cff565b60405180910390fd5b6113c86000838361181f565b6001600360008473ffffffffffffffffffffffffffffffffffffffff1673ffffffffffffffffffffffffffffffffffffffff168152602001908152602001600020600082825461141891906126e7565b92505081905550816002600083815260200190815260200160002060006101000a81548173ffffffffffffffffffffffffffffffffffffffff021916908373ffffffffffffffffffffffffffffffffffffffff160217905550808273ffffffffffffffffffffffffffffffffffffffff16600073ffffffffffffffffffffffffffffffffffffffff167fddf252ad1be2c89b69c2b068fc378daa952ba7f163c4a11628f55a4df523b3ef60405160405180910390a45050565b6114da82610e78565b611519576040517f08c379a000000000000000000000000000000000000000000000000000000000815260040161151090612d91565b60405180910390fd5b80600660008481526020019081526020016000209080519060200190611540929190611c31565b505050565b61154e81611824565b600060066000838152602001908152602001600020805461156e906124d0565b905014611595576006600082815260200190815260200160002060006115949190611cb7565b5b50565b8173ffffffffffffffffffffffffffffffffffffffff168373ffffffffffffffffffffffffffffffffffffffff161415611607576040517f08c379a00000000000000000000000000000000000000000000000000000000081526004016115fe90612dfd565b60405180910390fd5b80600560008573ffffffffffffffffffffffffffffffffffffffff1673ffffffffffffffffffffffffffffffffffffffff16815260200190815260200160002060008473ffffffffffffffffffffffffffffffffffffffff1673ffffffffffffffffffffffffffffffffffffffff16815260200190815260200160002060006101000a81548160ff0219169083151502179055508173ffffffffffffffffffffffffffffffffffffffff168373ffffffffffffffffffffffffffffffffffffffff167f17307eab39ab6107e8899845ad3d59bd9653f200f220920489ca2b5937696c31836040516116f89190611dc8565b60405180910390a3505050565b611710848484611091565b61171c84848484611935565b61175b576040517f08c379a000000000000000000000000000000000000000000000000000000000815260040161175290612e8f565b60405180910390fd5b50505050565b606060405180602001604052806000815250905090565b606061178382610e78565b6117c2576040517f08c379a00000000000000000000000000000000000000000000000000000000081526004016117b990612f21565b60405180910390fd5b60006117cc611761565b905060008151116117ec5760405180602001604052806000815250611817565b806117f684611abd565b604051602001611807929190612a39565b6040516020818303038152906040525b915050919050565b505050565b600061182f82610955565b905061183d8160008461181f565b611848600083610eec565b6001600360008373ffffffffffffffffffffffffffffffffffffffff1673ffffffffffffffffffffffffffffffffffffffff16815260200190815260200160002060008282546118989190612c13565b925050819055506002600083815260200190815260200160002060006101000a81549073ffffffffffffffffffffffffffffffffffffffff021916905581600073ffffffffffffffffffffffffffffffffffffffff168273ffffffffffffffffffffffffffffffffffffffff167fddf252ad1be2c89b69c2b068fc378daa952ba7f163c4a11628f55a4df523b3ef60405160405180910390a45050565b60006119568473ffffffffffffffffffffffffffffffffffffffff16611c1e565b15611ab0578373ffffffffffffffffffffffffffffffffffffffff1663150b7a0261197f610ee4565b8786866040518563ffffffff1660e01b81526004016119a19493929190612f96565b6020604051808303816000875af19250505080156119dd57506040513d601f19601f820116820180604052508101906119da9190612ff7565b60015b611a60573d8060008114611a0d576040519150601f19603f3d011682016040523d82523d6000602084013e611a12565b606091505b50600081511415611a58576040517f08c379a0000000000000000000000000000000000000000000000000000000008152600401611a4f90612e8f565b60405180910390fd5b805181602001fd5b63150b7a0260e01b7bffffffffffffffffffffffffffffffffffffffffffffffffffffffff1916817bffffffffffffffffffffffffffffffffffffffffffffffffffffffff191614915050611ab5565b600190505b949350505050565b60606000821415611b05576040518060400160405280600181526020017f30000000000000000000000000000000000000000000000000000000000000008152509050611c19565b600082905060005b60008214611b37578080611b209061273d565b915050600a82611b309190613053565b9150611b0d565b60008167ffffffffffffffff811115611b5357611b52612106565b5b6040519080825280601f01601f191660200182016040528015611b855781602001600182028036833780820191505090505b5090505b60008514611c1257600182611b9e9190612c13565b9150600a85611bad9190613084565b6030611bb991906126e7565b60f81b818381518110611bcf57611bce612786565b5b60200101907effffffffffffffffffffffffffffffffffffffffffffffffffffffffffffff1916908160001a905350600a85611c0b9190613053565b9450611b89565b8093505050505b919050565b600080823b905060008111915050919050565b828054611c3d906124d0565b90600052602060002090601f016020900481019282611c5f5760008555611ca6565b82601f10611c7857805160ff1916838001178555611ca6565b82800160010185558215611ca6579182015b82811115611ca5578251825591602001919060010190611c8a565b5b509050611cb39190611cf7565b5090565b508054611cc3906124d0565b6000825580601f10611cd55750611cf4565b601f016020900490600052602060002090810190611cf39190611cf7565b5b50565b5b80821115611d10576000816000905550600101611cf8565b5090565b6000604051905090565b600080fd5b600080fd5b60007fffffffff0000000000000000000000000000000000000000000000000000000082169050919050565b611d5d81611d28565b8114611d6857600080fd5b50565b600081359050611d7a81611d54565b92915050565b600060208284031215611d9657611d95611d1e565b5b6000611da484828501611d6b565b91505092915050565b60008115159050919050565b611dc281611dad565b82525050565b6000602082019050611ddd6000830184611db9565b92915050565b600081519050919050565b600082825260208201905092915050565b60005b83811015611e1d578082015181840152602081019050611e02565b83811115611e2c576000848401525b50505050565b6000601f19601f8301169050919050565b6000611e4e82611de3565b611e588185611dee565b9350611e68818560208601611dff565b611e7181611e32565b840191505092915050565b60006020820190508181036000830152611e968184611e43565b905092915050565b6000819050919050565b611eb181611e9e565b8114611ebc57600080fd5b50565b600081359050611ece81611ea8565b92915050565b600060208284031215611eea57611ee9611d1e565b5b6000611ef884828501611ebf565b91505092915050565b600073ffffffffffffffffffffffffffffffffffffffff82169050919050565b6000611f2c82611f01565b9050919050565b611f3c81611f21565b82525050565b6000602082019050611f576000830184611f33565b92915050565b611f6681611f21565b8114611f7157600080fd5b50565b600081359050611f8381611f5d565b92915050565b60008060408385031215611fa057611f9f611d1e565b5b6000611fae85828601611f74565b9250506020611fbf85828601611ebf565b9150509250929050565b600081519050919050565b600082825260208201905092915050565b6000819050602082019050919050565b611ffe81611e9e565b82525050565b60006120108383611ff5565b60208301905092915050565b6000602082019050919050565b600061203482611fc9565b61203e8185611fd4565b935061204983611fe5565b8060005b8381101561207a5781516120618882612004565b975061206c8361201c565b92505060018101905061204d565b5085935050505092915050565b600060208201905081810360008301526120a18184612029565b905092915050565b6000806000606084860312156120c2576120c1611d1e565b5b60006120d086828701611f74565b93505060206120e186828701611f74565b92505060406120f286828701611ebf565b9150509250925092565b600080fd5b600080fd5b7f4e487b7100000000000000000000000000000000000000000000000000000000600052604160045260246000fd5b61213e82611e32565b810181811067ffffffffffffffff8211171561215d5761215c612106565b5b80604052505050565b6000612170611d14565b905061217c8282612135565b919050565b600067ffffffffffffffff82111561219c5761219b612106565b5b6121a582611e32565b9050602081019050919050565b82818337600083830152505050565b60006121d46121cf84612181565b612166565b9050828152602081018484840111156121f0576121ef612101565b5b6121fb8482856121b2565b509392505050565b600082601f830112612218576122176120fc565b5b81356122288482602086016121c1565b91505092915050565b60006020828403121561224757612246611d1e565b5b600082013567ffffffffffffffff81111561226557612264611d23565b5b61227184828501612203565b91505092915050565b61228381611e9e565b82525050565b600060208201905061229e600083018461227a565b92915050565b6000602082840312156122ba576122b9611d1e565b5b60006122c884828501611f74565b91505092915050565b6122da81611dad565b81146122e557600080fd5b50565b6000813590506122f7816122d1565b92915050565b6000806040838503121561231457612313611d1e565b5b600061232285828601611f74565b9250506020612333858286016122e8565b9150509250929050565b600067ffffffffffffffff82111561235857612357612106565b5b61236182611e32565b9050602081019050919050565b600061238161237c8461233d565b612166565b90508281526020810184848401111561239d5761239c612101565b5b6123a88482856121b2565b509392505050565b600082601f8301126123c5576123c46120fc565b5b81356123d584826020860161236e565b91505092915050565b600080600080608085870312156123f8576123f7611d1e565b5b600061240687828801611f74565b945050602061241787828801611f74565b935050604061242887828801611ebf565b925050606085013567ffffffffffffffff81111561244957612448611d23565b5b612455878288016123b0565b91505092959194509250565b6000806040838503121561247857612477611d1e565b5b600061248685828601611f74565b925050602061249785828601611f74565b9150509250929050565b7f4e487b7100000000000000000000000000000000000000000000000000000000600052602260045260246000fd5b600060028204905060018216806124e857607f821691505b602082108114156124fc576124fb6124a1565b5b50919050565b7f4552433732313a20617070726f76656420717565727920666f72206e6f6e657860008201527f697374656e7420746f6b656e0000000000000000000000000000000000000000602082015250565b600061255e602c83611dee565b915061256982612502565b604082019050919050565b6000602082019050818103600083015261258d81612551565b9050919050565b7f4552433732313a20617070726f76616c20746f2063757272656e74206f776e6560008201527f7200000000000000000000000000000000000000000000000000000000000000602082015250565b60006125f0602183611dee565b91506125fb82612594565b604082019050919050565b6000602082019050818103600083015261261f816125e3565b9050919050565b7f4552433732313a20617070726f76652063616c6c6572206973206e6f74206f7760008201527f6e6572206e6f7220617070726f76656420666f7220616c6c0000000000000000602082015250565b6000612682603883611dee565b915061268d82612626565b604082019050919050565b600060208201905081810360008301526126b181612675565b9050919050565b7f4e487b7100000000000000000000000000000000000000000000000000000000600052601160045260246000fd5b60006126f282611e9e565b91506126fd83611e9e565b9250827fffffffffffffffffffffffffffffffffffffffffffffffffffffffffffffffff03821115612732576127316126b8565b5b828201905092915050565b600061274882611e9e565b91507fffffffffffffffffffffffffffffffffffffffffffffffffffffffffffffffff82141561277b5761277a6126b8565b5b600182019050919050565b7f4e487b7100000000000000000000000000000000000000000000000000000000600052603260045260246000fd5b7f4552433732313a207472616e736665722063616c6c6572206973206e6f74206f60008201527f776e6572206e6f7220617070726f766564000000000000000000000000000000602082015250565b6000612811603183611dee565b915061281c826127b5565b604082019050919050565b6000602082019050818103600083015261284081612804565b9050919050565b7f4552433732313a206f776e657220717565727920666f72206e6f6e657869737460008201527f656e7420746f6b656e0000000000000000000000000000000000000000000000602082015250565b60006128a3602983611dee565b91506128ae82612847565b604082019050919050565b600060208201905081810360008301526128d281612896565b9050919050565b7f4552433732313a2062616c616e636520717565727920666f7220746865207a6560008201527f726f206164647265737300000000000000000000000000000000000000000000602082015250565b6000612935602a83611dee565b9150612940826128d9565b604082019050919050565b6000602082019050818103600083015261296481612928565b9050919050565b7f45524337323155524953746f726167653a2055524920717565727920666f722060008201527f6e6f6e6578697374656e7420746f6b656e000000000000000000000000000000602082015250565b60006129c7603183611dee565b91506129d28261296b565b604082019050919050565b600060208201905081810360008301526129f6816129ba565b9050919050565b600081905092915050565b6000612a1382611de3565b612a1d81856129fd565b9350612a2d818560208601611dff565b80840191505092915050565b6000612a458285612a08565b9150612a518284612a08565b91508190509392505050565b7f4552433732313a206f70657261746f7220717565727920666f72206e6f6e657860008201527f697374656e7420746f6b656e0000000000000000000000000000000000000000602082015250565b6000612ab9602c83611dee565b9150612ac482612a5d565b604082019050919050565b60006020820190508181036000830152612ae881612aac565b9050919050565b7f4552433732313a207472616e73666572206f6620746f6b656e2074686174206960008201527f73206e6f74206f776e0000000000000000000000000000000000000000000000602082015250565b6000612b4b602983611dee565b9150612b5682612aef565b604082019050919050565b60006020820190508181036000830152612b7a81612b3e565b9050919050565b7f4552433732313a207472616e7366657220746f20746865207a65726f2061646460008201527f7265737300000000000000000000000000000000000000000000000000000000602082015250565b6000612bdd602483611dee565b9150612be882612b81565b604082019050919050565b60006020820190508181036000830152612c0c81612bd0565b9050919050565b6000612c1e82611e9e565b9150612c2983611e9e565b925082821015612c3c57612c3b6126b8565b5b828203905092915050565b7f4552433732313a206d696e7420746f20746865207a65726f2061646472657373600082015250565b6000612c7d602083611dee565b9150612c8882612c47565b602082019050919050565b60006020820190508181036000830152612cac81612c70565b9050919050565b7f4552433732313a20746f6b656e20616c7265616479206d696e74656400000000600082015250565b6000612ce9601c83611dee565b9150612cf482612cb3565b602082019050919050565b60006020820190508181036000830152612d1881612cdc565b9050919050565b7f45524337323155524953746f726167653a2055524920736574206f66206e6f6e60008201527f6578697374656e7420746f6b656e000000000000000000000000000000000000602082015250565b6000612d7b602e83611dee565b9150612d8682612d1f565b604082019050919050565b60006020820190508181036000830152612daa81612d6e565b9050919050565b7f4552433732313a20617070726f766520746f2063616c6c657200000000000000600082015250565b6000612de7601983611dee565b9150612df282612db1565b602082019050919050565b60006020820190508181036000830152612e1681612dda565b9050919050565b7f4552433732313a207472616e7366657220746f206e6f6e20455243373231526560008201527f63656976657220696d706c656d656e7465720000000000000000000000000000602082015250565b6000612e79603283611dee565b9150612e8482612e1d565b604082019050919050565b60006020820190508181036000830152612ea881612e6c565b9050919050565b7f4552433732314d657461646174613a2055524920717565727920666f72206e6f60008201527f6e6578697374656e7420746f6b656e0000000000000000000000000000000000602082015250565b6000612f0b602f83611dee565b9150612f1682612eaf565b604082019050919050565b60006020820190508181036000830152612f3a81612efe565b9050919050565b600081519050919050565b600082825260208201905092915050565b6000612f6882612f41565b612f728185612f4c565b9350612f82818560208601611dff565b612f8b81611e32565b840191505092915050565b6000608082019050612fab6000830187611f33565b612fb86020830186611f33565b612fc5604083018561227a565b8181036060830152612fd78184612f5d565b905095945050505050565b600081519050612ff181611d54565b92915050565b60006020828403121561300d5761300c611d1e565b5b600061301b84828501612fe2565b91505092915050565b7f4e487b7100000000000000000000000000000000000000000000000000000000600052601260045260246000fd5b600061305e82611e9e565b915061306983611e9e565b92508261307957613078613024565b5b828204905092915050565b600061308f82611e9e565b915061309a83611e9e565b9250826130aa576130a9613024565b5b82820690509291505056fea2646970667358221220bf0b77b721ebaa20b125902a2bf8cfc086032f2ea8fc896af8ad8db7a9d4902264736f6c634300080a0033",
  "immutableReferences": {},
  "source": "// SPDX-License-Identifier: MIT\npragma solidity ^0.8.4;\n\nimport \"@openzeppelin/contracts/utils/Counters.sol\";\nimport \"@openzeppelin/contracts/token/ERC721/extensions/ERC721URIStorage.sol\";\nimport \"@openzeppelin/contracts/token/ERC721/ERC721.sol\";\n\ncontract NFT is ERC721URIStorage {\n    using Counters for Counters.Counter;\n    Counters.Counter private _tokenIds;\n    address contractAddress;\n    mapping(uint256 => bool) public _burnToken;\n\n    constructor(address marketplaceAddress) ERC721(\"Metaverse Tokens\", \"METT\") {\n        contractAddress = marketplaceAddress;\n        setApprovalForAll(contractAddress, true);\n    }\n\n    function createToken(string memory tokenURI) public returns (uint256) {\n        _tokenIds.increment();\n        uint256 newItemId = _tokenIds.current();\n\n        _mint(msg.sender, newItemId);\n        _setTokenURI(newItemId, tokenURI);\n        return newItemId;\n    }\n\n    function burnToken(uint256 tokenId) public returns (uint256) {\n        _burn(tokenId);\n\n        _burnToken[tokenId] = true;\n\n        return tokenId;\n    }\n\n    function fetchMyNFTs() public view returns (uint256[] memory) {\n        uint256 currentIndex = 0;\n        uint256 totalItemCount = _tokenIds.current();\n        uint256 myItmeCount = 0;\n\n        for (uint256 i = 0; i < totalItemCount; i++) {\n            if (!_burnToken[i + 1]) {\n                if (ownerOf(i + 1) == msg.sender) {\n                    myItmeCount += 1;\n                }\n            }\n        }\n\n        uint256[] memory items = new uint256[](myItmeCount);\n\n        for (uint256 i = 0; i < totalItemCount; i++) {\n            if (!_burnToken[i + 1]) {\n                if (ownerOf(i + 1) == msg.sender) {\n                    items[currentIndex] = i + 1;\n                    currentIndex += 1;\n                }\n            }\n        }\n\n        return items;\n    }\n}\n",
  "sourcePath": "/Users/siamsae-chua/Documents/_project/blockChainPlayGround/nft-marketplace-server/contracts/NFT.sol",
  "compiler": {
    "name": "solc",
    "version": "0.8.10+commit.fc410830.Emscripten.clang"
  },
  "schemaVersion": "3.4.4",
  "updatedAt": "2022-02-22T09:37:45.460Z",
  "networkType": "ethereum",
  "devdoc": {
    "kind": "dev",
    "methods": {
      "approve(address,uint256)": {
        "details": "See {IERC721-approve}."
      },
      "balanceOf(address)": {
        "details": "See {IERC721-balanceOf}."
      },
      "getApproved(uint256)": {
        "details": "See {IERC721-getApproved}."
      },
      "isApprovedForAll(address,address)": {
        "details": "See {IERC721-isApprovedForAll}."
      },
      "name()": {
        "details": "See {IERC721Metadata-name}."
      },
      "ownerOf(uint256)": {
        "details": "See {IERC721-ownerOf}."
      },
      "safeTransferFrom(address,address,uint256)": {
        "details": "See {IERC721-safeTransferFrom}."
      },
      "safeTransferFrom(address,address,uint256,bytes)": {
        "details": "See {IERC721-safeTransferFrom}."
      },
      "setApprovalForAll(address,bool)": {
        "details": "See {IERC721-setApprovalForAll}."
      },
      "supportsInterface(bytes4)": {
        "details": "See {IERC165-supportsInterface}."
      },
      "symbol()": {
        "details": "See {IERC721Metadata-symbol}."
      },
      "tokenURI(uint256)": {
        "details": "See {IERC721Metadata-tokenURI}."
      },
      "transferFrom(address,address,uint256)": {
        "details": "See {IERC721-transferFrom}."
      }
    },
    "version": 1
  },
  "userdoc": {
    "kind": "user",
    "methods": {},
    "version": 1
  }
}