{
  "contractName": "NFT",
  "abi": [
    {
      "inputs": [
        {
          "internalType": "address",
          "name": "marketplaceAddress",
          "type": "address"
        }
      ],
      "stateMutability": "nonpayable",
      "type": "constructor"
    },
    {
      "anonymous": false,
      "inputs": [
        {
          "indexed": true,
          "internalType": "address",
          "name": "owner",
          "type": "address"
        },
        {
          "indexed": true,
          "internalType": "address",
          "name": "approved",
          "type": "address"
        },
        {
          "indexed": true,
          "internalType": "uint256",
          "name": "tokenId",
          "type": "uint256"
        }
      ],
      "name": "Approval",
      "type": "event"
    },
    {
      "anonymous": false,
      "inputs": [
        {
          "indexed": true,
          "internalType": "address",
          "name": "owner",
          "type": "address"
        },
        {
          "indexed": true,
          "internalType": "address",
          "name": "operator",
          "type": "address"
        },
        {
          "indexed": false,
          "internalType": "bool",
          "name": "approved",
          "type": "bool"
        }
      ],
      "name": "ApprovalForAll",
      "type": "event"
    },
    {
      "anonymous": false,
      "inputs": [
        {
          "indexed": true,
          "internalType": "address",
          "name": "from",
          "type": "address"
        },
        {
          "indexed": true,
          "internalType": "address",
          "name": "to",
          "type": "address"
        },
        {
          "indexed": true,
          "internalType": "uint256",
          "name": "tokenId",
          "type": "uint256"
        }
      ],
      "name": "Transfer",
      "type": "event"
    },
    {
      "inputs": [
        {
          "internalType": "address",
          "name": "to",
          "type": "address"
        },
        {
          "internalType": "uint256",
          "name": "tokenId",
          "type": "uint256"
        }
      ],
      "name": "approve",
      "outputs": [],
      "stateMutability": "nonpayable",
      "type": "function"
    },
    {
      "inputs": [
        {
          "internalType": "address",
          "name": "owner",
          "type": "address"
        }
      ],
      "name": "balanceOf",
      "outputs": [
        {
          "internalType": "uint256",
          "name": "",
          "type": "uint256"
        }
      ],
      "stateMutability": "view",
      "type": "function",
      "constant": true
    },
    {
      "inputs": [
        {
          "internalType": "uint256",
          "name": "tokenId",
          "type": "uint256"
        }
      ],
      "name": "getApproved",
      "outputs": [
        {
          "internalType": "address",
          "name": "",
          "type": "address"
        }
      ],
      "stateMutability": "view",
      "type": "function",
      "constant": true
    },
    {
      "inputs": [
        {
          "internalType": "address",
          "name": "owner",
          "type": "address"
        },
        {
          "internalType": "address",
          "name": "operator",
          "type": "address"
        }
      ],
      "name": "isApprovedForAll",
      "outputs": [
        {
          "internalType": "bool",
          "name": "",
          "type": "bool"
        }
      ],
      "stateMutability": "view",
      "type": "function",
      "constant": true
    },
    {
      "inputs": [],
      "name": "name",
      "outputs": [
        {
          "internalType": "string",
          "name": "",
          "type": "string"
        }
      ],
      "stateMutability": "view",
      "type": "function",
      "constant": true
    },
    {
      "inputs": [
        {
          "internalType": "uint256",
          "name": "tokenId",
          "type": "uint256"
        }
      ],
      "name": "ownerOf",
      "outputs": [
        {
          "internalType": "address",
          "name": "",
          "type": "address"
        }
      ],
      "stateMutability": "view",
      "type": "function",
      "constant": true
    },
    {
      "inputs": [
        {
          "internalType": "address",
          "name": "from",
          "type": "address"
        },
        {
          "internalType": "address",
          "name": "to",
          "type": "address"
        },
        {
          "internalType": "uint256",
          "name": "tokenId",
          "type": "uint256"
        }
      ],
      "name": "safeTransferFrom",
      "outputs": [],
      "stateMutability": "nonpayable",
      "type": "function"
    },
    {
      "inputs": [
        {
          "internalType": "address",
          "name": "from",
          "type": "address"
        },
        {
          "internalType": "address",
          "name": "to",
          "type": "address"
        },
        {
          "internalType": "uint256",
          "name": "tokenId",
          "type": "uint256"
        },
        {
          "internalType": "bytes",
          "name": "_data",
          "type": "bytes"
        }
      ],
      "name": "safeTransferFrom",
      "outputs": [],
      "stateMutability": "nonpayable",
      "type": "function"
    },
    {
      "inputs": [
        {
          "internalType": "address",
          "name": "operator",
          "type": "address"
        },
        {
          "internalType": "bool",
          "name": "approved",
          "type": "bool"
        }
      ],
      "name": "setApprovalForAll",
      "outputs": [],
      "stateMutability": "nonpayable",
      "type": "function"
    },
    {
      "inputs": [
        {
          "internalType": "bytes4",
          "name": "interfaceId",
          "type": "bytes4"
        }
      ],
      "name": "supportsInterface",
      "outputs": [
        {
          "internalType": "bool",
          "name": "",
          "type": "bool"
        }
      ],
      "stateMutability": "view",
      "type": "function",
      "constant": true
    },
    {
      "inputs": [],
      "name": "symbol",
      "outputs": [
        {
          "internalType": "string",
          "name": "",
          "type": "string"
        }
      ],
      "stateMutability": "view",
      "type": "function",
      "constant": true
    },
    {
      "inputs": [
        {
          "internalType": "uint256",
          "name": "tokenId",
          "type": "uint256"
        }
      ],
      "name": "tokenURI",
      "outputs": [
        {
          "internalType": "string",
          "name": "",
          "type": "string"
        }
      ],
      "stateMutability": "view",
      "type": "function",
      "constant": true
    },
    {
      "inputs": [
        {
          "internalType": "address",
          "name": "from",
          "type": "address"
        },
        {
          "internalType": "address",
          "name": "to",
          "type": "address"
        },
        {
          "internalType": "uint256",
          "name": "tokenId",
          "type": "uint256"
        }
      ],
      "name": "transferFrom",
      "outputs": [],
      "stateMutability": "nonpayable",
      "type": "function"
    },
    {
      "inputs": [
        {
          "internalType": "string",
          "name": "tokenURI",
          "type": "string"
        }
      ],
      "name": "createToken",
      "outputs": [
        {
          "internalType": "uint256",
          "name": "",
          "type": "uint256"
        }
      ],
      "stateMutability": "nonpayable",
      "type": "function"
    },
    {
      "inputs": [
        {
          "internalType": "uint256",
          "name": "tokenId",
          "type": "uint256"
        }
      ],
      "name": "burnToken",
      "outputs": [
        {
          "internalType": "uint256",
          "name": "",
          "type": "uint256"
        }
      ],
      "stateMutability": "nonpayable",
      "type": "function"
    },
    {
      "inputs": [],
      "name": "fetchMyNFTs",
      "outputs": [
        {
          "internalType": "uint256[]",
          "name": "",
          "type": "uint256[]"
        }
      ],
      "stateMutability": "view",
      "type": "function",
      "constant": true
    }
  ],
  "bytecode": "0x60806040523480156200001157600080fd5b506040516200355d3803806200355d83398181016040528101906200003791906200040e565b6040518060400160405280601081526020017f4d657461766572736520546f6b656e73000000000000000000000000000000008152506040518060400160405280600481526020017f4d455454000000000000000000000000000000000000000000000000000000008152508160009080519060200190620000bb929190620002f4565b508060019080519060200190620000d4929190620002f4565b50505080600860006101000a81548173ffffffffffffffffffffffffffffffffffffffff021916908373ffffffffffffffffffffffffffffffffffffffff1602179055506200014d600860009054906101000a900473ffffffffffffffffffffffffffffffffffffffff1660016200015460201b60201c565b5062000562565b62000176620001686200017a60201b60201c565b83836200018260201b60201c565b5050565b600033905090565b8173ffffffffffffffffffffffffffffffffffffffff168373ffffffffffffffffffffffffffffffffffffffff161415620001f4576040517f08c379a0000000000000000000000000000000000000000000000000000000008152600401620001eb90620004a1565b60405180910390fd5b80600560008573ffffffffffffffffffffffffffffffffffffffff1673ffffffffffffffffffffffffffffffffffffffff16815260200190815260200160002060008473ffffffffffffffffffffffffffffffffffffffff1673ffffffffffffffffffffffffffffffffffffffff16815260200190815260200160002060006101000a81548160ff0219169083151502179055508173ffffffffffffffffffffffffffffffffffffffff168373ffffffffffffffffffffffffffffffffffffffff167f17307eab39ab6107e8899845ad3d59bd9653f200f220920489ca2b5937696c3183604051620002e79190620004e0565b60405180910390a3505050565b82805462000302906200052c565b90600052602060002090601f01602090048101928262000326576000855562000372565b82601f106200034157805160ff191683800117855562000372565b8280016001018555821562000372579182015b828111156200037157825182559160200191906001019062000354565b5b50905062000381919062000385565b5090565b5b80821115620003a057600081600090555060010162000386565b5090565b600080fd5b600073ffffffffffffffffffffffffffffffffffffffff82169050919050565b6000620003d682620003a9565b9050919050565b620003e881620003c9565b8114620003f457600080fd5b50565b6000815190506200040881620003dd565b92915050565b600060208284031215620004275762000426620003a4565b5b60006200043784828501620003f7565b91505092915050565b600082825260208201905092915050565b7f4552433732313a20617070726f766520746f2063616c6c657200000000000000600082015250565b60006200048960198362000440565b9150620004968262000451565b602082019050919050565b60006020820190508181036000830152620004bc816200047a565b9050919050565b60008115159050919050565b620004da81620004c3565b82525050565b6000602082019050620004f76000830184620004cf565b92915050565b7f4e487b7100000000000000000000000000000000000000000000000000000000600052602260045260246000fd5b600060028204905060018216806200054557607f821691505b602082108114156200055c576200055b620004fd565b5b50919050565b612feb80620005726000396000f3fe608060405234801561001057600080fd5b50600436106101005760003560e01c80636352211e11610097578063a22cb46511610066578063a22cb465146102d3578063b88d4fde146102ef578063c87b56dd1461030b578063e985e9c51461033b57610100565b80636352211e1461022557806370a08231146102555780637b47ec1a1461028557806395d89b41146102b557610100565b8063202e3740116100d3578063202e37401461019f57806323b872dd146101bd57806342842e0e146101d957806345576f94146101f557610100565b806301ffc9a71461010557806306fdde0314610135578063081812fc14610153578063095ea7b314610183575b600080fd5b61011f600480360381019061011a9190611c80565b61036b565b60405161012c9190611cc8565b60405180910390f35b61013d61044d565b60405161014a9190611d7c565b60405180910390f35b61016d60048036038101906101689190611dd4565b6104df565b60405161017a9190611e42565b60405180910390f35b61019d60048036038101906101989190611e89565b610564565b005b6101a761067c565b6040516101b49190611f87565b60405180910390f35b6101d760048036038101906101d29190611fa9565b6107ea565b005b6101f360048036038101906101ee9190611fa9565b61084a565b005b61020f600480360381019061020a9190612131565b61086a565b60405161021c9190612189565b60405180910390f35b61023f600480360381019061023a9190611dd4565b6108a1565b60405161024c9190611e42565b60405180910390f35b61026f600480360381019061026a91906121a4565b610953565b60405161027c9190612189565b60405180910390f35b61029f600480360381019061029a9190611dd4565b610a0b565b6040516102ac9190612189565b60405180910390f35b6102bd610a1e565b6040516102ca9190611d7c565b60405180910390f35b6102ed60048036038101906102e891906121fd565b610ab0565b005b610309600480360381019061030491906122de565b610ac6565b005b61032560048036038101906103209190611dd4565b610b28565b6040516103329190611d7c565b60405180910390f35b61035560048036038101906103509190612361565b610c7a565b6040516103629190611cc8565b60405180910390f35b60007f80ac58cd000000000000000000000000000000000000000000000000000000007bffffffffffffffffffffffffffffffffffffffffffffffffffffffff1916827bffffffffffffffffffffffffffffffffffffffffffffffffffffffff1916148061043657507f5b5e139f000000000000000000000000000000000000000000000000000000007bffffffffffffffffffffffffffffffffffffffffffffffffffffffff1916827bffffffffffffffffffffffffffffffffffffffffffffffffffffffff1916145b80610446575061044582610d0e565b5b9050919050565b60606000805461045c906123d0565b80601f0160208091040260200160405190810160405280929190818152602001828054610488906123d0565b80156104d55780601f106104aa576101008083540402835291602001916104d5565b820191906000526020600020905b8154815290600101906020018083116104b857829003601f168201915b5050505050905090565b60006104ea82610d78565b610529576040517f08c379a000000000000000000000000000000000000000000000000000000000815260040161052090612474565b60405180910390fd5b6004600083815260200190815260200160002060009054906101000a900473ffffffffffffffffffffffffffffffffffffffff169050919050565b600061056f826108a1565b90508073ffffffffffffffffffffffffffffffffffffffff168373ffffffffffffffffffffffffffffffffffffffff1614156105e0576040517f08c379a00000000000000000000000000000000000000000000000000000000081526004016105d790612506565b60405180910390fd5b8073ffffffffffffffffffffffffffffffffffffffff166105ff610de4565b73ffffffffffffffffffffffffffffffffffffffff16148061062e575061062d81610628610de4565b610c7a565b5b61066d576040517f08c379a000000000000000000000000000000000000000000000000000000000815260040161066490612598565b60405180910390fd5b6106778383610dec565b505050565b606060008061068b6007610ea5565b90506000805b82811015610704573373ffffffffffffffffffffffffffffffffffffffff166106c56001836106c091906125e7565b6108a1565b73ffffffffffffffffffffffffffffffffffffffff1614156106f1576001826106ee91906125e7565b91505b80806106fc9061263d565b915050610691565b5060008167ffffffffffffffff81111561072157610720612006565b5b60405190808252806020026020018201604052801561074f5781602001602082028036833780820191505090505b5090506000600190505b8381116107df573373ffffffffffffffffffffffffffffffffffffffff16610780826108a1565b73ffffffffffffffffffffffffffffffffffffffff1614156107cc57808286815181106107b0576107af612686565b5b6020026020010181815250506001856107c991906125e7565b94505b80806107d79061263d565b915050610759565b508094505050505090565b6107fb6107f5610de4565b82610eb3565b61083a576040517f08c379a000000000000000000000000000000000000000000000000000000000815260040161083190612727565b60405180910390fd5b610845838383610f91565b505050565b61086583838360405180602001604052806000815250610ac6565b505050565b600061087660076111ed565b60006108826007610ea5565b905061088e3382611203565b61089881846113d1565b80915050919050565b6000806002600084815260200190815260200160002060009054906101000a900473ffffffffffffffffffffffffffffffffffffffff169050600073ffffffffffffffffffffffffffffffffffffffff168173ffffffffffffffffffffffffffffffffffffffff16141561094a576040517f08c379a0000000000000000000000000000000000000000000000000000000008152600401610941906127b9565b60405180910390fd5b80915050919050565b60008073ffffffffffffffffffffffffffffffffffffffff168273ffffffffffffffffffffffffffffffffffffffff1614156109c4576040517f08c379a00000000000000000000000000000000000000000000000000000000081526004016109bb9061284b565b60405180910390fd5b600360008373ffffffffffffffffffffffffffffffffffffffff1673ffffffffffffffffffffffffffffffffffffffff168152602001908152602001600020549050919050565b6000610a1682611445565b819050919050565b606060018054610a2d906123d0565b80601f0160208091040260200160405190810160405280929190818152602001828054610a59906123d0565b8015610aa65780601f10610a7b57610100808354040283529160200191610aa6565b820191906000526020600020905b815481529060010190602001808311610a8957829003601f168201915b5050505050905090565b610ac2610abb610de4565b8383611498565b5050565b610ad7610ad1610de4565b83610eb3565b610b16576040517f08c379a0000000000000000000000000000000000000000000000000000000008152600401610b0d90612727565b60405180910390fd5b610b2284848484611605565b50505050565b6060610b3382610d78565b610b72576040517f08c379a0000000000000000000000000000000000000000000000000000000008152600401610b69906128dd565b60405180910390fd5b6000600660008481526020019081526020016000208054610b92906123d0565b80601f0160208091040260200160405190810160405280929190818152602001828054610bbe906123d0565b8015610c0b5780601f10610be057610100808354040283529160200191610c0b565b820191906000526020600020905b815481529060010190602001808311610bee57829003601f168201915b505050505090506000610c1c611661565b9050600081511415610c32578192505050610c75565b600082511115610c67578082604051602001610c4f929190612939565b60405160208183030381529060405292505050610c75565b610c7084611678565b925050505b919050565b6000600560008473ffffffffffffffffffffffffffffffffffffffff1673ffffffffffffffffffffffffffffffffffffffff16815260200190815260200160002060008373ffffffffffffffffffffffffffffffffffffffff1673ffffffffffffffffffffffffffffffffffffffff16815260200190815260200160002060009054906101000a900460ff16905092915050565b60007f01ffc9a7000000000000000000000000000000000000000000000000000000007bffffffffffffffffffffffffffffffffffffffffffffffffffffffff1916827bffffffffffffffffffffffffffffffffffffffffffffffffffffffff1916149050919050565b60008073ffffffffffffffffffffffffffffffffffffffff166002600084815260200190815260200160002060009054906101000a900473ffffffffffffffffffffffffffffffffffffffff1673ffffffffffffffffffffffffffffffffffffffff1614159050919050565b600033905090565b816004600083815260200190815260200160002060006101000a81548173ffffffffffffffffffffffffffffffffffffffff021916908373ffffffffffffffffffffffffffffffffffffffff160217905550808273ffffffffffffffffffffffffffffffffffffffff16610e5f836108a1565b73ffffffffffffffffffffffffffffffffffffffff167f8c5be1e5ebec7d5bd14f71427d1e84f3dd0314c0f7b2291e5b200ac8c7c3b92560405160405180910390a45050565b600081600001549050919050565b6000610ebe82610d78565b610efd576040517f08c379a0000000000000000000000000000000000000000000000000000000008152600401610ef4906129cf565b60405180910390fd5b6000610f08836108a1565b90508073ffffffffffffffffffffffffffffffffffffffff168473ffffffffffffffffffffffffffffffffffffffff161480610f7757508373ffffffffffffffffffffffffffffffffffffffff16610f5f846104df565b73ffffffffffffffffffffffffffffffffffffffff16145b80610f885750610f878185610c7a565b5b91505092915050565b8273ffffffffffffffffffffffffffffffffffffffff16610fb1826108a1565b73ffffffffffffffffffffffffffffffffffffffff1614611007576040517f08c379a0000000000000000000000000000000000000000000000000000000008152600401610ffe90612a61565b60405180910390fd5b600073ffffffffffffffffffffffffffffffffffffffff168273ffffffffffffffffffffffffffffffffffffffff161415611077576040517f08c379a000000000000000000000000000000000000000000000000000000000815260040161106e90612af3565b60405180910390fd5b61108283838361171f565b61108d600082610dec565b6001600360008573ffffffffffffffffffffffffffffffffffffffff1673ffffffffffffffffffffffffffffffffffffffff16815260200190815260200160002060008282546110dd9190612b13565b925050819055506001600360008473ffffffffffffffffffffffffffffffffffffffff1673ffffffffffffffffffffffffffffffffffffffff168152602001908152602001600020600082825461113491906125e7565b92505081905550816002600083815260200190815260200160002060006101000a81548173ffffffffffffffffffffffffffffffffffffffff021916908373ffffffffffffffffffffffffffffffffffffffff160217905550808273ffffffffffffffffffffffffffffffffffffffff168473ffffffffffffffffffffffffffffffffffffffff167fddf252ad1be2c89b69c2b068fc378daa952ba7f163c4a11628f55a4df523b3ef60405160405180910390a4505050565b6001816000016000828254019250508190555050565b600073ffffffffffffffffffffffffffffffffffffffff168273ffffffffffffffffffffffffffffffffffffffff161415611273576040517f08c379a000000000000000000000000000000000000000000000000000000000815260040161126a90612b93565b60405180910390fd5b61127c81610d78565b156112bc576040517f08c379a00000000000000000000000000000000000000000000000000000000081526004016112b390612bff565b60405180910390fd5b6112c86000838361171f565b6001600360008473ffffffffffffffffffffffffffffffffffffffff1673ffffffffffffffffffffffffffffffffffffffff168152602001908152602001600020600082825461131891906125e7565b92505081905550816002600083815260200190815260200160002060006101000a81548173ffffffffffffffffffffffffffffffffffffffff021916908373ffffffffffffffffffffffffffffffffffffffff160217905550808273ffffffffffffffffffffffffffffffffffffffff16600073ffffffffffffffffffffffffffffffffffffffff167fddf252ad1be2c89b69c2b068fc378daa952ba7f163c4a11628f55a4df523b3ef60405160405180910390a45050565b6113da82610d78565b611419576040517f08c379a000000000000000000000000000000000000000000000000000000000815260040161141090612c91565b60405180910390fd5b80600660008481526020019081526020016000209080519060200190611440929190611b31565b505050565b61144e81611724565b600060066000838152602001908152602001600020805461146e906123d0565b905014611495576006600082815260200190815260200160002060006114949190611bb7565b5b50565b8173ffffffffffffffffffffffffffffffffffffffff168373ffffffffffffffffffffffffffffffffffffffff161415611507576040517f08c379a00000000000000000000000000000000000000000000000000000000081526004016114fe90612cfd565b60405180910390fd5b80600560008573ffffffffffffffffffffffffffffffffffffffff1673ffffffffffffffffffffffffffffffffffffffff16815260200190815260200160002060008473ffffffffffffffffffffffffffffffffffffffff1673ffffffffffffffffffffffffffffffffffffffff16815260200190815260200160002060006101000a81548160ff0219169083151502179055508173ffffffffffffffffffffffffffffffffffffffff168373ffffffffffffffffffffffffffffffffffffffff167f17307eab39ab6107e8899845ad3d59bd9653f200f220920489ca2b5937696c31836040516115f89190611cc8565b60405180910390a3505050565b611610848484610f91565b61161c84848484611835565b61165b576040517f08c379a000000000000000000000000000000000000000000000000000000000815260040161165290612d8f565b60405180910390fd5b50505050565b606060405180602001604052806000815250905090565b606061168382610d78565b6116c2576040517f08c379a00000000000000000000000000000000000000000000000000000000081526004016116b990612e21565b60405180910390fd5b60006116cc611661565b905060008151116116ec5760405180602001604052806000815250611717565b806116f6846119bd565b604051602001611707929190612939565b6040516020818303038152906040525b915050919050565b505050565b600061172f826108a1565b905061173d8160008461171f565b611748600083610dec565b6001600360008373ffffffffffffffffffffffffffffffffffffffff1673ffffffffffffffffffffffffffffffffffffffff16815260200190815260200160002060008282546117989190612b13565b925050819055506002600083815260200190815260200160002060006101000a81549073ffffffffffffffffffffffffffffffffffffffff021916905581600073ffffffffffffffffffffffffffffffffffffffff168273ffffffffffffffffffffffffffffffffffffffff167fddf252ad1be2c89b69c2b068fc378daa952ba7f163c4a11628f55a4df523b3ef60405160405180910390a45050565b60006118568473ffffffffffffffffffffffffffffffffffffffff16611b1e565b156119b0578373ffffffffffffffffffffffffffffffffffffffff1663150b7a0261187f610de4565b8786866040518563ffffffff1660e01b81526004016118a19493929190612e96565b6020604051808303816000875af19250505080156118dd57506040513d601f19601f820116820180604052508101906118da9190612ef7565b60015b611960573d806000811461190d576040519150601f19603f3d011682016040523d82523d6000602084013e611912565b606091505b50600081511415611958576040517f08c379a000000000000000000000000000000000000000000000000000000000815260040161194f90612d8f565b60405180910390fd5b805181602001fd5b63150b7a0260e01b7bffffffffffffffffffffffffffffffffffffffffffffffffffffffff1916817bffffffffffffffffffffffffffffffffffffffffffffffffffffffff1916149150506119b5565b600190505b949350505050565b60606000821415611a05576040518060400160405280600181526020017f30000000000000000000000000000000000000000000000000000000000000008152509050611b19565b600082905060005b60008214611a37578080611a209061263d565b915050600a82611a309190612f53565b9150611a0d565b60008167ffffffffffffffff811115611a5357611a52612006565b5b6040519080825280601f01601f191660200182016040528015611a855781602001600182028036833780820191505090505b5090505b60008514611b1257600182611a9e9190612b13565b9150600a85611aad9190612f84565b6030611ab991906125e7565b60f81b818381518110611acf57611ace612686565b5b60200101907effffffffffffffffffffffffffffffffffffffffffffffffffffffffffffff1916908160001a905350600a85611b0b9190612f53565b9450611a89565b8093505050505b919050565b600080823b905060008111915050919050565b828054611b3d906123d0565b90600052602060002090601f016020900481019282611b5f5760008555611ba6565b82601f10611b7857805160ff1916838001178555611ba6565b82800160010185558215611ba6579182015b82811115611ba5578251825591602001919060010190611b8a565b5b509050611bb39190611bf7565b5090565b508054611bc3906123d0565b6000825580601f10611bd55750611bf4565b601f016020900490600052602060002090810190611bf39190611bf7565b5b50565b5b80821115611c10576000816000905550600101611bf8565b5090565b6000604051905090565b600080fd5b600080fd5b60007fffffffff0000000000000000000000000000000000000000000000000000000082169050919050565b611c5d81611c28565b8114611c6857600080fd5b50565b600081359050611c7a81611c54565b92915050565b600060208284031215611c9657611c95611c1e565b5b6000611ca484828501611c6b565b91505092915050565b60008115159050919050565b611cc281611cad565b82525050565b6000602082019050611cdd6000830184611cb9565b92915050565b600081519050919050565b600082825260208201905092915050565b60005b83811015611d1d578082015181840152602081019050611d02565b83811115611d2c576000848401525b50505050565b6000601f19601f8301169050919050565b6000611d4e82611ce3565b611d588185611cee565b9350611d68818560208601611cff565b611d7181611d32565b840191505092915050565b60006020820190508181036000830152611d968184611d43565b905092915050565b6000819050919050565b611db181611d9e565b8114611dbc57600080fd5b50565b600081359050611dce81611da8565b92915050565b600060208284031215611dea57611de9611c1e565b5b6000611df884828501611dbf565b91505092915050565b600073ffffffffffffffffffffffffffffffffffffffff82169050919050565b6000611e2c82611e01565b9050919050565b611e3c81611e21565b82525050565b6000602082019050611e576000830184611e33565b92915050565b611e6681611e21565b8114611e7157600080fd5b50565b600081359050611e8381611e5d565b92915050565b60008060408385031215611ea057611e9f611c1e565b5b6000611eae85828601611e74565b9250506020611ebf85828601611dbf565b9150509250929050565b600081519050919050565b600082825260208201905092915050565b6000819050602082019050919050565b611efe81611d9e565b82525050565b6000611f108383611ef5565b60208301905092915050565b6000602082019050919050565b6000611f3482611ec9565b611f3e8185611ed4565b9350611f4983611ee5565b8060005b83811015611f7a578151611f618882611f04565b9750611f6c83611f1c565b925050600181019050611f4d565b5085935050505092915050565b60006020820190508181036000830152611fa18184611f29565b905092915050565b600080600060608486031215611fc257611fc1611c1e565b5b6000611fd086828701611e74565b9350506020611fe186828701611e74565b9250506040611ff286828701611dbf565b9150509250925092565b600080fd5b600080fd5b7f4e487b7100000000000000000000000000000000000000000000000000000000600052604160045260246000fd5b61203e82611d32565b810181811067ffffffffffffffff8211171561205d5761205c612006565b5b80604052505050565b6000612070611c14565b905061207c8282612035565b919050565b600067ffffffffffffffff82111561209c5761209b612006565b5b6120a582611d32565b9050602081019050919050565b82818337600083830152505050565b60006120d46120cf84612081565b612066565b9050828152602081018484840111156120f0576120ef612001565b5b6120fb8482856120b2565b509392505050565b600082601f83011261211857612117611ffc565b5b81356121288482602086016120c1565b91505092915050565b60006020828403121561214757612146611c1e565b5b600082013567ffffffffffffffff81111561216557612164611c23565b5b61217184828501612103565b91505092915050565b61218381611d9e565b82525050565b600060208201905061219e600083018461217a565b92915050565b6000602082840312156121ba576121b9611c1e565b5b60006121c884828501611e74565b91505092915050565b6121da81611cad565b81146121e557600080fd5b50565b6000813590506121f7816121d1565b92915050565b6000806040838503121561221457612213611c1e565b5b600061222285828601611e74565b9250506020612233858286016121e8565b9150509250929050565b600067ffffffffffffffff82111561225857612257612006565b5b61226182611d32565b9050602081019050919050565b600061228161227c8461223d565b612066565b90508281526020810184848401111561229d5761229c612001565b5b6122a88482856120b2565b509392505050565b600082601f8301126122c5576122c4611ffc565b5b81356122d584826020860161226e565b91505092915050565b600080600080608085870312156122f8576122f7611c1e565b5b600061230687828801611e74565b945050602061231787828801611e74565b935050604061232887828801611dbf565b925050606085013567ffffffffffffffff81111561234957612348611c23565b5b612355878288016122b0565b91505092959194509250565b6000806040838503121561237857612377611c1e565b5b600061238685828601611e74565b925050602061239785828601611e74565b9150509250929050565b7f4e487b7100000000000000000000000000000000000000000000000000000000600052602260045260246000fd5b600060028204905060018216806123e857607f821691505b602082108114156123fc576123fb6123a1565b5b50919050565b7f4552433732313a20617070726f76656420717565727920666f72206e6f6e657860008201527f697374656e7420746f6b656e0000000000000000000000000000000000000000602082015250565b600061245e602c83611cee565b915061246982612402565b604082019050919050565b6000602082019050818103600083015261248d81612451565b9050919050565b7f4552433732313a20617070726f76616c20746f2063757272656e74206f776e6560008201527f7200000000000000000000000000000000000000000000000000000000000000602082015250565b60006124f0602183611cee565b91506124fb82612494565b604082019050919050565b6000602082019050818103600083015261251f816124e3565b9050919050565b7f4552433732313a20617070726f76652063616c6c6572206973206e6f74206f7760008201527f6e6572206e6f7220617070726f76656420666f7220616c6c0000000000000000602082015250565b6000612582603883611cee565b915061258d82612526565b604082019050919050565b600060208201905081810360008301526125b181612575565b9050919050565b7f4e487b7100000000000000000000000000000000000000000000000000000000600052601160045260246000fd5b60006125f282611d9e565b91506125fd83611d9e565b9250827fffffffffffffffffffffffffffffffffffffffffffffffffffffffffffffffff03821115612632576126316125b8565b5b828201905092915050565b600061264882611d9e565b91507fffffffffffffffffffffffffffffffffffffffffffffffffffffffffffffffff82141561267b5761267a6125b8565b5b600182019050919050565b7f4e487b7100000000000000000000000000000000000000000000000000000000600052603260045260246000fd5b7f4552433732313a207472616e736665722063616c6c6572206973206e6f74206f60008201527f776e6572206e6f7220617070726f766564000000000000000000000000000000602082015250565b6000612711603183611cee565b915061271c826126b5565b604082019050919050565b6000602082019050818103600083015261274081612704565b9050919050565b7f4552433732313a206f776e657220717565727920666f72206e6f6e657869737460008201527f656e7420746f6b656e0000000000000000000000000000000000000000000000602082015250565b60006127a3602983611cee565b91506127ae82612747565b604082019050919050565b600060208201905081810360008301526127d281612796565b9050919050565b7f4552433732313a2062616c616e636520717565727920666f7220746865207a6560008201527f726f206164647265737300000000000000000000000000000000000000000000602082015250565b6000612835602a83611cee565b9150612840826127d9565b604082019050919050565b6000602082019050818103600083015261286481612828565b9050919050565b7f45524337323155524953746f726167653a2055524920717565727920666f722060008201527f6e6f6e6578697374656e7420746f6b656e000000000000000000000000000000602082015250565b60006128c7603183611cee565b91506128d28261286b565b604082019050919050565b600060208201905081810360008301526128f6816128ba565b9050919050565b600081905092915050565b600061291382611ce3565b61291d81856128fd565b935061292d818560208601611cff565b80840191505092915050565b60006129458285612908565b91506129518284612908565b91508190509392505050565b7f4552433732313a206f70657261746f7220717565727920666f72206e6f6e657860008201527f697374656e7420746f6b656e0000000000000000000000000000000000000000602082015250565b60006129b9602c83611cee565b91506129c48261295d565b604082019050919050565b600060208201905081810360008301526129e8816129ac565b9050919050565b7f4552433732313a207472616e73666572206f6620746f6b656e2074686174206960008201527f73206e6f74206f776e0000000000000000000000000000000000000000000000602082015250565b6000612a4b602983611cee565b9150612a56826129ef565b604082019050919050565b60006020820190508181036000830152612a7a81612a3e565b9050919050565b7f4552433732313a207472616e7366657220746f20746865207a65726f2061646460008201527f7265737300000000000000000000000000000000000000000000000000000000602082015250565b6000612add602483611cee565b9150612ae882612a81565b604082019050919050565b60006020820190508181036000830152612b0c81612ad0565b9050919050565b6000612b1e82611d9e565b9150612b2983611d9e565b925082821015612b3c57612b3b6125b8565b5b828203905092915050565b7f4552433732313a206d696e7420746f20746865207a65726f2061646472657373600082015250565b6000612b7d602083611cee565b9150612b8882612b47565b602082019050919050565b60006020820190508181036000830152612bac81612b70565b9050919050565b7f4552433732313a20746f6b656e20616c7265616479206d696e74656400000000600082015250565b6000612be9601c83611cee565b9150612bf482612bb3565b602082019050919050565b60006020820190508181036000830152612c1881612bdc565b9050919050565b7f45524337323155524953746f726167653a2055524920736574206f66206e6f6e60008201527f6578697374656e7420746f6b656e000000000000000000000000000000000000602082015250565b6000612c7b602e83611cee565b9150612c8682612c1f565b604082019050919050565b60006020820190508181036000830152612caa81612c6e565b9050919050565b7f4552433732313a20617070726f766520746f2063616c6c657200000000000000600082015250565b6000612ce7601983611cee565b9150612cf282612cb1565b602082019050919050565b60006020820190508181036000830152612d1681612cda565b9050919050565b7f4552433732313a207472616e7366657220746f206e6f6e20455243373231526560008201527f63656976657220696d706c656d656e7465720000000000000000000000000000602082015250565b6000612d79603283611cee565b9150612d8482612d1d565b604082019050919050565b60006020820190508181036000830152612da881612d6c565b9050919050565b7f4552433732314d657461646174613a2055524920717565727920666f72206e6f60008201527f6e6578697374656e7420746f6b656e0000000000000000000000000000000000602082015250565b6000612e0b602f83611cee565b9150612e1682612daf565b604082019050919050565b60006020820190508181036000830152612e3a81612dfe565b9050919050565b600081519050919050565b600082825260208201905092915050565b6000612e6882612e41565b612e728185612e4c565b9350612e82818560208601611cff565b612e8b81611d32565b840191505092915050565b6000608082019050612eab6000830187611e33565b612eb86020830186611e33565b612ec5604083018561217a565b8181036060830152612ed78184612e5d565b905095945050505050565b600081519050612ef181611c54565b92915050565b600060208284031215612f0d57612f0c611c1e565b5b6000612f1b84828501612ee2565b91505092915050565b7f4e487b7100000000000000000000000000000000000000000000000000000000600052601260045260246000fd5b6000612f5e82611d9e565b9150612f6983611d9e565b925082612f7957612f78612f24565b5b828204905092915050565b6000612f8f82611d9e565b9150612f9a83611d9e565b925082612faa57612fa9612f24565b5b82820690509291505056fea2646970667358221220d2828f469c21c498f6f93a08bb76f8eb63db3d768513e23055dad3273b9da70964736f6c634300080a0033",
  "immutableReferences": {},
  "source": "// SPDX-License-Identifier: MIT\npragma solidity ^0.8.4;\n\nimport \"@openzeppelin/contracts/utils/Counters.sol\";\nimport \"@openzeppelin/contracts/token/ERC721/extensions/ERC721URIStorage.sol\";\nimport \"@openzeppelin/contracts/token/ERC721/ERC721.sol\";\n\ncontract NFT is ERC721URIStorage {\n    using Counters for Counters.Counter;\n    Counters.Counter private _tokenIds;\n    address contractAddress;\n\n    constructor(address marketplaceAddress) ERC721(\"Metaverse Tokens\", \"METT\") {\n        contractAddress = marketplaceAddress;\n        setApprovalForAll(contractAddress, true);\n    }\n\n    function createToken(string memory tokenURI) public returns (uint256) {\n        _tokenIds.increment();\n        uint256 newItemId = _tokenIds.current();\n\n        _mint(msg.sender, newItemId);\n        _setTokenURI(newItemId, tokenURI);\n        return newItemId;\n    }\n\n    function burnToken(uint256 tokenId) public returns (uint256) {\n        _burn(tokenId);\n\n        return tokenId;\n    }\n\n    function fetchMyNFTs() public view returns (uint256[] memory) {\n        uint256 currentIndex = 0;\n        uint256 totalItemCount = _tokenIds.current();\n        uint256 myItmeCount = 0;\n\n        for (uint256 i = 0; i < totalItemCount; i++) {\n            if (ownerOf(i + 1) == msg.sender) {\n                myItmeCount += 1;\n            }\n        }\n\n        uint256[] memory items = new uint256[](myItmeCount);\n\n        for (uint256 i = 1; i <= totalItemCount; i++) {\n            if (ownerOf(i) == msg.sender) {\n                items[currentIndex] = i;\n                currentIndex += 1;\n            }\n        }\n\n        return items;\n    }\n}\n",
  "sourcePath": "/Users/siamsae-chua/Documents/_project/blockChainPlayGround/nft-marketplace-server/contracts/NFT.sol",
  "compiler": {
    "name": "solc",
    "version": "0.8.10+commit.fc410830.Emscripten.clang"
  },
  "schemaVersion": "3.4.4",
  "updatedAt": "2022-02-15T15:37:44.804Z",
  "networkType": "ethereum",
  "devdoc": {
    "kind": "dev",
    "methods": {
      "approve(address,uint256)": {
        "details": "See {IERC721-approve}."
      },
      "balanceOf(address)": {
        "details": "See {IERC721-balanceOf}."
      },
      "getApproved(uint256)": {
        "details": "See {IERC721-getApproved}."
      },
      "isApprovedForAll(address,address)": {
        "details": "See {IERC721-isApprovedForAll}."
      },
      "name()": {
        "details": "See {IERC721Metadata-name}."
      },
      "ownerOf(uint256)": {
        "details": "See {IERC721-ownerOf}."
      },
      "safeTransferFrom(address,address,uint256)": {
        "details": "See {IERC721-safeTransferFrom}."
      },
      "safeTransferFrom(address,address,uint256,bytes)": {
        "details": "See {IERC721-safeTransferFrom}."
      },
      "setApprovalForAll(address,bool)": {
        "details": "See {IERC721-setApprovalForAll}."
      },
      "supportsInterface(bytes4)": {
        "details": "See {IERC165-supportsInterface}."
      },
      "symbol()": {
        "details": "See {IERC721Metadata-symbol}."
      },
      "tokenURI(uint256)": {
        "details": "See {IERC721Metadata-tokenURI}."
      },
      "transferFrom(address,address,uint256)": {
        "details": "See {IERC721-transferFrom}."
      }
    },
    "version": 1
  },
  "userdoc": {
    "kind": "user",
    "methods": {},
    "version": 1
  }
}