{
  "contractName": "NFTFusion",
  "abi": [
    {
      "inputs": [
        {
          "internalType": "contract NFT",
          "name": "_nftContract",
          "type": "address"
        },
        {
          "internalType": "contract NFTMarket",
          "name": "_nftMarketContract",
          "type": "address"
        }
      ],
      "stateMutability": "nonpayable",
      "type": "constructor"
    },
    {
      "anonymous": false,
      "inputs": [
        {
          "indexed": false,
          "internalType": "uint256",
          "name": "baseItemId",
          "type": "uint256"
        },
        {
          "indexed": false,
          "internalType": "uint256",
          "name": "ingredientItemId",
          "type": "uint256"
        },
        {
          "indexed": false,
          "internalType": "address",
          "name": "owner",
          "type": "address"
        },
        {
          "indexed": false,
          "internalType": "address",
          "name": "nftContract",
          "type": "address"
        },
        {
          "indexed": false,
          "internalType": "uint256",
          "name": "itemId",
          "type": "uint256"
        }
      ],
      "name": "FusionNFT",
      "type": "event"
    },
    {
      "inputs": [
        {
          "internalType": "uint256",
          "name": "",
          "type": "uint256"
        }
      ],
      "name": "fusionDetails",
      "outputs": [
        {
          "internalType": "uint256",
          "name": "baseItemId",
          "type": "uint256"
        },
        {
          "internalType": "uint256",
          "name": "ingredientItemId",
          "type": "uint256"
        },
        {
          "internalType": "address",
          "name": "owner",
          "type": "address"
        },
        {
          "internalType": "address",
          "name": "nftContract",
          "type": "address"
        },
        {
          "internalType": "uint256",
          "name": "itemId",
          "type": "uint256"
        }
      ],
      "stateMutability": "view",
      "type": "function",
      "constant": true
    },
    {
      "inputs": [],
      "name": "fusionIndex",
      "outputs": [
        {
          "internalType": "uint256",
          "name": "",
          "type": "uint256"
        }
      ],
      "stateMutability": "view",
      "type": "function",
      "constant": true
    },
    {
      "inputs": [
        {
          "internalType": "uint256",
          "name": "baseItemId",
          "type": "uint256"
        },
        {
          "internalType": "uint256",
          "name": "ingredientItemId",
          "type": "uint256"
        },
        {
          "internalType": "string",
          "name": "tokenURI",
          "type": "string"
        }
      ],
      "name": "fusionNFT",
      "outputs": [
        {
          "internalType": "uint256",
          "name": "",
          "type": "uint256"
        }
      ],
      "stateMutability": "nonpayable",
      "type": "function"
    }
  ],
  "bytecode": "0x60806040523480156200001157600080fd5b506040516200129d3803806200129d83398181016040528101906200003791906200024f565b600160008190555033600160006101000a81548173ffffffffffffffffffffffffffffffffffffffff021916908373ffffffffffffffffffffffffffffffffffffffff16021790555081600260006101000a81548173ffffffffffffffffffffffffffffffffffffffff021916908373ffffffffffffffffffffffffffffffffffffffff16021790555081600360006101000a81548173ffffffffffffffffffffffffffffffffffffffff021916908373ffffffffffffffffffffffffffffffffffffffff16021790555080600460006101000a81548173ffffffffffffffffffffffffffffffffffffffff021916908373ffffffffffffffffffffffffffffffffffffffff16021790555080600560006101000a81548173ffffffffffffffffffffffffffffffffffffffff021916908373ffffffffffffffffffffffffffffffffffffffff160217905550505062000296565b600080fd5b600073ffffffffffffffffffffffffffffffffffffffff82169050919050565b6000620001be8262000191565b9050919050565b6000620001d282620001b1565b9050919050565b620001e481620001c5565b8114620001f057600080fd5b50565b6000815190506200020481620001d9565b92915050565b60006200021782620001b1565b9050919050565b62000229816200020a565b81146200023557600080fd5b50565b60008151905062000249816200021e565b92915050565b600080604083850312156200026957620002686200018c565b5b60006200027985828601620001f3565b92505060206200028c8582860162000238565b9150509250929050565b610ff780620002a66000396000f3fe608060405234801561001057600080fd5b50600436106100415760003560e01c806377922feb14610046578063ad3239451461007a578063c9826cec146100aa575b600080fd5b610060600480360381019061005b9190610a98565b6100c8565b604051610071959493929190610b15565b60405180910390f35b610094600480360381019061008f9190610cae565b61013e565b6040516100a19190610d1d565b60405180910390f35b6100b2610a48565b6040516100bf9190610d1d565b60405180910390f35b60066020528060005260406000206000915090508060000154908060010154908060020160009054906101000a900473ffffffffffffffffffffffffffffffffffffffff16908060030160009054906101000a900473ffffffffffffffffffffffffffffffffffffffff16908060040154905085565b60003373ffffffffffffffffffffffffffffffffffffffff16600260009054906101000a900473ffffffffffffffffffffffffffffffffffffffff1673ffffffffffffffffffffffffffffffffffffffff16636352211e866040518263ffffffff1660e01b81526004016101b29190610d1d565b602060405180830381865afa1580156101cf573d6000803e3d6000fd5b505050506040513d601f19601f820116820180604052508101906101f39190610d64565b73ffffffffffffffffffffffffffffffffffffffff1614610249576040517f08c379a000000000000000000000000000000000000000000000000000000000815260040161024090610dee565b60405180910390fd5b3373ffffffffffffffffffffffffffffffffffffffff16600260009054906101000a900473ffffffffffffffffffffffffffffffffffffffff1673ffffffffffffffffffffffffffffffffffffffff16636352211e856040518263ffffffff1660e01b81526004016102bb9190610d1d565b602060405180830381865afa1580156102d8573d6000803e3d6000fd5b505050506040513d601f19601f820116820180604052508101906102fc9190610d64565b73ffffffffffffffffffffffffffffffffffffffff1614610352576040517f08c379a000000000000000000000000000000000000000000000000000000000815260040161034990610dee565b60405180910390fd5b600260009054906101000a900473ffffffffffffffffffffffffffffffffffffffff1673ffffffffffffffffffffffffffffffffffffffff16637b47ec1a856040518263ffffffff1660e01b81526004016103ad9190610d1d565b6020604051808303816000875af11580156103cc573d6000803e3d6000fd5b505050506040513d601f19601f820116820180604052508101906103f09190610e23565b50600260009054906101000a900473ffffffffffffffffffffffffffffffffffffffff1673ffffffffffffffffffffffffffffffffffffffff16637b47ec1a846040518263ffffffff1660e01b815260040161044c9190610d1d565b6020604051808303816000875af115801561046b573d6000803e3d6000fd5b505050506040513d601f19601f8201168201806040525081019061048f9190610e23565b506000600460009054906101000a900473ffffffffffffffffffffffffffffffffffffffff1673ffffffffffffffffffffffffffffffffffffffff166309852298866040518263ffffffff1660e01b81526004016104ed9190610d1d565b602060405180830381865afa15801561050a573d6000803e3d6000fd5b505050506040513d601f19601f8201168201806040525081019061052e9190610e23565b90506000600460009054906101000a900473ffffffffffffffffffffffffffffffffffffffff1673ffffffffffffffffffffffffffffffffffffffff166309852298866040518263ffffffff1660e01b815260040161058d9190610d1d565b602060405180830381865afa1580156105aa573d6000803e3d6000fd5b505050506040513d601f19601f820116820180604052508101906105ce9190610e23565b9050600460009054906101000a900473ffffffffffffffffffffffffffffffffffffffff1673ffffffffffffffffffffffffffffffffffffffff166375e0727f600560009054906101000a900473ffffffffffffffffffffffffffffffffffffffff16846040518363ffffffff1660e01b815260040161064f929190610e50565b6020604051808303816000875af115801561066e573d6000803e3d6000fd5b505050506040513d601f19601f820116820180604052508101906106929190610e23565b50600460009054906101000a900473ffffffffffffffffffffffffffffffffffffffff1673ffffffffffffffffffffffffffffffffffffffff166375e0727f600560009054906101000a900473ffffffffffffffffffffffffffffffffffffffff16836040518363ffffffff1660e01b8152600401610712929190610e50565b6020604051808303816000875af1158015610731573d6000803e3d6000fd5b505050506040513d601f19601f820116820180604052508101906107559190610e23565b506000600260009054906101000a900473ffffffffffffffffffffffffffffffffffffffff1673ffffffffffffffffffffffffffffffffffffffff166345576f94866040518263ffffffff1660e01b81526004016107b39190610ef0565b6020604051808303816000875af11580156107d2573d6000803e3d6000fd5b505050506040513d601f19601f820116820180604052508101906107f69190610e23565b9050600260009054906101000a900473ffffffffffffffffffffffffffffffffffffffff1673ffffffffffffffffffffffffffffffffffffffff166323b872dd3033846040518463ffffffff1660e01b815260040161085793929190610f12565b600060405180830381600087803b15801561087157600080fd5b505af1158015610885573d6000803e3d6000fd5b505050506040518060a001604052808881526020018781526020013373ffffffffffffffffffffffffffffffffffffffff168152602001600260009054906101000a900473ffffffffffffffffffffffffffffffffffffffff1673ffffffffffffffffffffffffffffffffffffffff16815260200182815250600660006007548152602001908152602001600020600082015181600001556020820151816001015560408201518160020160006101000a81548173ffffffffffffffffffffffffffffffffffffffff021916908373ffffffffffffffffffffffffffffffffffffffff16021790555060608201518160030160006101000a81548173ffffffffffffffffffffffffffffffffffffffff021916908373ffffffffffffffffffffffffffffffffffffffff16021790555060808201518160040155905050600760008154809291906109d590610f78565b91905055507f65c089fb279140ee527e932c169817108243ea0fd0f28f82fa576b3c40be276b878733600260009054906101000a900473ffffffffffffffffffffffffffffffffffffffff1685604051610a33959493929190610b15565b60405180910390a18093505050509392505050565b60075481565b6000604051905090565b600080fd5b600080fd5b6000819050919050565b610a7581610a62565b8114610a8057600080fd5b50565b600081359050610a9281610a6c565b92915050565b600060208284031215610aae57610aad610a58565b5b6000610abc84828501610a83565b91505092915050565b610ace81610a62565b82525050565b600073ffffffffffffffffffffffffffffffffffffffff82169050919050565b6000610aff82610ad4565b9050919050565b610b0f81610af4565b82525050565b600060a082019050610b2a6000830188610ac5565b610b376020830187610ac5565b610b446040830186610b06565b610b516060830185610b06565b610b5e6080830184610ac5565b9695505050505050565b600080fd5b600080fd5b6000601f19601f8301169050919050565b7f4e487b7100000000000000000000000000000000000000000000000000000000600052604160045260246000fd5b610bbb82610b72565b810181811067ffffffffffffffff82111715610bda57610bd9610b83565b5b80604052505050565b6000610bed610a4e565b9050610bf98282610bb2565b919050565b600067ffffffffffffffff821115610c1957610c18610b83565b5b610c2282610b72565b9050602081019050919050565b82818337600083830152505050565b6000610c51610c4c84610bfe565b610be3565b905082815260208101848484011115610c6d57610c6c610b6d565b5b610c78848285610c2f565b509392505050565b600082601f830112610c9557610c94610b68565b5b8135610ca5848260208601610c3e565b91505092915050565b600080600060608486031215610cc757610cc6610a58565b5b6000610cd586828701610a83565b9350506020610ce686828701610a83565b925050604084013567ffffffffffffffff811115610d0757610d06610a5d565b5b610d1386828701610c80565b9150509250925092565b6000602082019050610d326000830184610ac5565b92915050565b610d4181610af4565b8114610d4c57600080fd5b50565b600081519050610d5e81610d38565b92915050565b600060208284031215610d7a57610d79610a58565b5b6000610d8884828501610d4f565b91505092915050565b600082825260208201905092915050565b7f596f7520617265206e6f74206f776e6572206f66206974656d2e000000000000600082015250565b6000610dd8601a83610d91565b9150610de382610da2565b602082019050919050565b60006020820190508181036000830152610e0781610dcb565b9050919050565b600081519050610e1d81610a6c565b92915050565b600060208284031215610e3957610e38610a58565b5b6000610e4784828501610e0e565b91505092915050565b6000604082019050610e656000830185610b06565b610e726020830184610ac5565b9392505050565b600081519050919050565b60005b83811015610ea2578082015181840152602081019050610e87565b83811115610eb1576000848401525b50505050565b6000610ec282610e79565b610ecc8185610d91565b9350610edc818560208601610e84565b610ee581610b72565b840191505092915050565b60006020820190508181036000830152610f0a8184610eb7565b905092915050565b6000606082019050610f276000830186610b06565b610f346020830185610b06565b610f416040830184610ac5565b949350505050565b7f4e487b7100000000000000000000000000000000000000000000000000000000600052601160045260246000fd5b6000610f8382610a62565b91507fffffffffffffffffffffffffffffffffffffffffffffffffffffffffffffffff821415610fb657610fb5610f49565b5b60018201905091905056fea2646970667358221220b32adde91abf6b70a8951cf5b24469c0d10dae1f59d252be817457dfe4f3590e64736f6c634300080a0033",
  "immutableReferences": {},
  "source": "// SPDX-License-Identifier: MIT OR Apache-2.0\npragma solidity ^0.8.3;\n\nimport \"@openzeppelin/contracts/utils/Counters.sol\";\nimport \"@openzeppelin/contracts/security/ReentrancyGuard.sol\";\nimport \"@openzeppelin/contracts/token/ERC721/ERC721.sol\";\nimport \"./INFT.sol\";\nimport \"./NFT.sol\";\nimport \"./NFTMarket.sol\";\n\ncontract NFTFusion is ReentrancyGuard {\n    address payable owner;\n\n    NFT nftContract;\n    address nftContractAddress;\n\n    NFTMarket nftMarketContract;\n    address nftMarketContractAddress;\n\n    struct fusionDetail {\n        uint256 baseItemId;\n        uint256 ingredientItemId;\n        address owner;\n        address nftContract;\n        uint256 itemId;\n    }\n\n    mapping(uint256 => fusionDetail) public fusionDetails;\n    uint256 public fusionIndex;\n\n    constructor(NFT _nftContract, NFTMarket _nftMarketContract) {\n        owner = payable(msg.sender);\n        nftContract = _nftContract;\n        nftContractAddress = address(_nftContract);\n        nftMarketContract = _nftMarketContract;\n        nftMarketContractAddress = address(_nftMarketContract);\n    }\n\n    event FusionNFT(\n        uint256 baseItemId,\n        uint256 ingredientItemId,\n        address owner,\n        address nftContract,\n        uint256 itemId\n    );\n\n    function fusionNFT(\n        uint256 baseItemId,\n        uint256 ingredientItemId,\n        string memory tokenURI\n    ) public returns (uint256) {\n        require(\n            nftContract.ownerOf(baseItemId) == msg.sender,\n            \"You are not owner of item.\"\n        );\n        require(\n            nftContract.ownerOf(ingredientItemId) == msg.sender,\n            \"You are not owner of item.\"\n        );\n\n        nftContract.burnToken(baseItemId);\n        nftContract.burnToken(ingredientItemId);\n\n        uint256 baseItemMarketId = nftMarketContract.getMarketIdByToken(\n            baseItemId\n        );\n        uint256 ingredientItemMarketId = nftMarketContract.getMarketIdByToken(\n            ingredientItemId\n        );\n\n        nftMarketContract.deleteMarketItem(\n            nftMarketContractAddress,\n            baseItemMarketId\n        );\n        nftMarketContract.deleteMarketItem(\n            nftMarketContractAddress,\n            ingredientItemMarketId\n        );\n\n        uint256 itemId = nftContract.createToken(tokenURI);\n        nftContract.transferFrom(address(this), msg.sender, itemId);\n\n        fusionDetails[fusionIndex] = fusionDetail(\n            baseItemId,\n            ingredientItemId,\n            msg.sender,\n            address(nftContract),\n            itemId\n        );\n        fusionIndex++;\n\n        emit FusionNFT(\n            baseItemId,\n            ingredientItemId,\n            msg.sender,\n            address(nftContract),\n            itemId\n        );\n\n        return itemId;\n    }\n}\n",
  "sourcePath": "/Users/siamsae-chua/Documents/_project/blockChainPlayGround/nft-marketplace-server/contracts/NFTFusion.sol",
  "compiler": {
    "name": "solc",
    "version": "0.8.10+commit.fc410830.Emscripten.clang"
  },
  "schemaVersion": "3.4.4",
  "updatedAt": "2022-02-20T16:05:49.939Z",
  "networkType": "ethereum",
  "devdoc": {
    "kind": "dev",
    "methods": {},
    "version": 1
  },
  "userdoc": {
    "kind": "user",
    "methods": {},
    "version": 1
  }
}