{
  "contractName": "NFTFusion",
  "abi": [
    {
      "inputs": [
        {
          "internalType": "contract NFT",
          "name": "_nftContract",
          "type": "address"
        }
      ],
      "stateMutability": "nonpayable",
      "type": "constructor"
    },
    {
      "anonymous": false,
      "inputs": [
        {
          "indexed": false,
          "internalType": "uint256",
          "name": "baseItemId",
          "type": "uint256"
        },
        {
          "indexed": false,
          "internalType": "uint256",
          "name": "ingredientItemId",
          "type": "uint256"
        },
        {
          "indexed": false,
          "internalType": "address",
          "name": "owner",
          "type": "address"
        },
        {
          "indexed": false,
          "internalType": "address",
          "name": "nftContract",
          "type": "address"
        },
        {
          "indexed": false,
          "internalType": "uint256",
          "name": "itemId",
          "type": "uint256"
        }
      ],
      "name": "FusionNFT",
      "type": "event"
    },
    {
      "inputs": [
        {
          "internalType": "uint256",
          "name": "",
          "type": "uint256"
        }
      ],
      "name": "fusionDetails",
      "outputs": [
        {
          "internalType": "uint256",
          "name": "baseItemId",
          "type": "uint256"
        },
        {
          "internalType": "uint256",
          "name": "ingredientItemId",
          "type": "uint256"
        },
        {
          "internalType": "address",
          "name": "owner",
          "type": "address"
        },
        {
          "internalType": "address",
          "name": "nftContract",
          "type": "address"
        },
        {
          "internalType": "uint256",
          "name": "itemId",
          "type": "uint256"
        }
      ],
      "stateMutability": "view",
      "type": "function",
      "constant": true
    },
    {
      "inputs": [],
      "name": "fusionIndex",
      "outputs": [
        {
          "internalType": "uint256",
          "name": "",
          "type": "uint256"
        }
      ],
      "stateMutability": "view",
      "type": "function",
      "constant": true
    },
    {
      "inputs": [
        {
          "internalType": "uint256",
          "name": "baseItemId",
          "type": "uint256"
        },
        {
          "internalType": "uint256",
          "name": "ingredientItemId",
          "type": "uint256"
        },
        {
          "internalType": "string",
          "name": "tokenURI",
          "type": "string"
        }
      ],
      "name": "fusionNFT",
      "outputs": [
        {
          "internalType": "uint256",
          "name": "",
          "type": "uint256"
        }
      ],
      "stateMutability": "nonpayable",
      "type": "function"
    }
  ],
  "bytecode": "0x608060405234801561001057600080fd5b50604051610ba2380380610ba283398181016040528101906100329190610137565b600160008190555033600160006101000a81548173ffffffffffffffffffffffffffffffffffffffff021916908373ffffffffffffffffffffffffffffffffffffffff16021790555080600260006101000a81548173ffffffffffffffffffffffffffffffffffffffff021916908373ffffffffffffffffffffffffffffffffffffffff16021790555050610164565b600080fd5b600073ffffffffffffffffffffffffffffffffffffffff82169050919050565b60006100f2826100c7565b9050919050565b6000610104826100e7565b9050919050565b610114816100f9565b811461011f57600080fd5b50565b6000815190506101318161010b565b92915050565b60006020828403121561014d5761014c6100c2565b5b600061015b84828501610122565b91505092915050565b610a2f806101736000396000f3fe608060405234801561001057600080fd5b50600436106100415760003560e01c806377922feb14610046578063ad3239451461007a578063c9826cec146100aa575b600080fd5b610060600480360381019061005b91906105be565b6100c8565b60405161007195949392919061063b565b60405180910390f35b610094600480360381019061008f91906107d4565b61013e565b6040516100a19190610843565b60405180910390f35b6100b261056e565b6040516100bf9190610843565b60405180910390f35b60036020528060005260406000206000915090508060000154908060010154908060020160009054906101000a900473ffffffffffffffffffffffffffffffffffffffff16908060030160009054906101000a900473ffffffffffffffffffffffffffffffffffffffff16908060040154905085565b6000600260009054906101000a900473ffffffffffffffffffffffffffffffffffffffff1673ffffffffffffffffffffffffffffffffffffffff16637b47ec1a856040518263ffffffff1660e01b815260040161019b9190610843565b6020604051808303816000875af11580156101ba573d6000803e3d6000fd5b505050506040513d601f19601f820116820180604052508101906101de9190610873565b50600260009054906101000a900473ffffffffffffffffffffffffffffffffffffffff1673ffffffffffffffffffffffffffffffffffffffff16637b47ec1a846040518263ffffffff1660e01b815260040161023a9190610843565b6020604051808303816000875af1158015610259573d6000803e3d6000fd5b505050506040513d601f19601f8201168201806040525081019061027d9190610873565b506000600260009054906101000a900473ffffffffffffffffffffffffffffffffffffffff1673ffffffffffffffffffffffffffffffffffffffff166345576f94846040518263ffffffff1660e01b81526004016102db9190610928565b6020604051808303816000875af11580156102fa573d6000803e3d6000fd5b505050506040513d601f19601f8201168201806040525081019061031e9190610873565b9050600260009054906101000a900473ffffffffffffffffffffffffffffffffffffffff1673ffffffffffffffffffffffffffffffffffffffff166323b872dd3033846040518463ffffffff1660e01b815260040161037f9392919061094a565b600060405180830381600087803b15801561039957600080fd5b505af11580156103ad573d6000803e3d6000fd5b505050506040518060a001604052808681526020018581526020013373ffffffffffffffffffffffffffffffffffffffff168152602001600260009054906101000a900473ffffffffffffffffffffffffffffffffffffffff1673ffffffffffffffffffffffffffffffffffffffff16815260200182815250600360006004548152602001908152602001600020600082015181600001556020820151816001015560408201518160020160006101000a81548173ffffffffffffffffffffffffffffffffffffffff021916908373ffffffffffffffffffffffffffffffffffffffff16021790555060608201518160030160006101000a81548173ffffffffffffffffffffffffffffffffffffffff021916908373ffffffffffffffffffffffffffffffffffffffff16021790555060808201518160040155905050600460008154809291906104fd906109b0565b91905055507f65c089fb279140ee527e932c169817108243ea0fd0f28f82fa576b3c40be276b858533600260009054906101000a900473ffffffffffffffffffffffffffffffffffffffff168560405161055b95949392919061063b565b60405180910390a1809150509392505050565b60045481565b6000604051905090565b600080fd5b600080fd5b6000819050919050565b61059b81610588565b81146105a657600080fd5b50565b6000813590506105b881610592565b92915050565b6000602082840312156105d4576105d361057e565b5b60006105e2848285016105a9565b91505092915050565b6105f481610588565b82525050565b600073ffffffffffffffffffffffffffffffffffffffff82169050919050565b6000610625826105fa565b9050919050565b6106358161061a565b82525050565b600060a08201905061065060008301886105eb565b61065d60208301876105eb565b61066a604083018661062c565b610677606083018561062c565b61068460808301846105eb565b9695505050505050565b600080fd5b600080fd5b6000601f19601f8301169050919050565b7f4e487b7100000000000000000000000000000000000000000000000000000000600052604160045260246000fd5b6106e182610698565b810181811067ffffffffffffffff82111715610700576106ff6106a9565b5b80604052505050565b6000610713610574565b905061071f82826106d8565b919050565b600067ffffffffffffffff82111561073f5761073e6106a9565b5b61074882610698565b9050602081019050919050565b82818337600083830152505050565b600061077761077284610724565b610709565b90508281526020810184848401111561079357610792610693565b5b61079e848285610755565b509392505050565b600082601f8301126107bb576107ba61068e565b5b81356107cb848260208601610764565b91505092915050565b6000806000606084860312156107ed576107ec61057e565b5b60006107fb868287016105a9565b935050602061080c868287016105a9565b925050604084013567ffffffffffffffff81111561082d5761082c610583565b5b610839868287016107a6565b9150509250925092565b600060208201905061085860008301846105eb565b92915050565b60008151905061086d81610592565b92915050565b6000602082840312156108895761088861057e565b5b60006108978482850161085e565b91505092915050565b600081519050919050565b600082825260208201905092915050565b60005b838110156108da5780820151818401526020810190506108bf565b838111156108e9576000848401525b50505050565b60006108fa826108a0565b61090481856108ab565b93506109148185602086016108bc565b61091d81610698565b840191505092915050565b6000602082019050818103600083015261094281846108ef565b905092915050565b600060608201905061095f600083018661062c565b61096c602083018561062c565b61097960408301846105eb565b949350505050565b7f4e487b7100000000000000000000000000000000000000000000000000000000600052601160045260246000fd5b60006109bb82610588565b91507fffffffffffffffffffffffffffffffffffffffffffffffffffffffffffffffff8214156109ee576109ed610981565b5b60018201905091905056fea2646970667358221220fa33d5db11bf2c84164dc042fd16b9bedd22a8a6eac7cc2e05a4e0965a21982264736f6c634300080a0033",
  "immutableReferences": {},
  "source": "// SPDX-License-Identifier: MIT OR Apache-2.0\npragma solidity ^0.8.3;\n\nimport \"@openzeppelin/contracts/utils/Counters.sol\";\nimport \"@openzeppelin/contracts/security/ReentrancyGuard.sol\";\nimport \"@openzeppelin/contracts/token/ERC721/ERC721.sol\";\nimport \"./INFT.sol\";\nimport \"./NFT.sol\";\n\ncontract NFTFusion is ReentrancyGuard {\n    address payable owner;\n\n    NFT nftContract;\n\n    struct fusionDetail {\n        uint256 baseItemId;\n        uint256 ingredientItemId;\n        address owner;\n        address nftContract;\n        uint256 itemId;\n    }\n\n    mapping(uint256 => fusionDetail) public fusionDetails;\n    uint256 public fusionIndex;\n\n    constructor(NFT _nftContract) {\n        owner = payable(msg.sender);\n        nftContract = _nftContract;\n    }\n\n    event FusionNFT(\n        uint256 baseItemId,\n        uint256 ingredientItemId,\n        address owner,\n        address nftContract,\n        uint256 itemId\n    );\n\n    function fusionNFT(\n        uint256 baseItemId,\n        uint256 ingredientItemId,\n        string memory tokenURI\n    ) public returns (uint256) {\n        nftContract.burnToken(baseItemId);\n        nftContract.burnToken(ingredientItemId);\n        uint256 itemId = nftContract.createToken(tokenURI);\n        nftContract.transferFrom(address(this), msg.sender, itemId);\n        // INFT(nftContract).burnToken(baseItemId);\n        // INFT(nftContract).burnToken(ingredientItemId);\n\n        // INFT(nftContract).createToken(tokenURI);\n\n        fusionDetails[fusionIndex] = fusionDetail(\n            baseItemId,\n            ingredientItemId,\n            msg.sender,\n            address(nftContract),\n            itemId\n        );\n        fusionIndex++;\n\n        emit FusionNFT(\n            baseItemId,\n            ingredientItemId,\n            msg.sender,\n            address(nftContract),\n            itemId\n        );\n\n        return itemId;\n    }\n}\n",
  "sourcePath": "/Users/siamsae-chua/Documents/_project/blockChainPlayGround/nft-marketplace-server/contracts/NFTFusion.sol",
  "compiler": {
    "name": "solc",
    "version": "0.8.10+commit.fc410830.Emscripten.clang"
  },
  "schemaVersion": "3.4.4",
  "updatedAt": "2022-02-15T17:46:00.843Z",
  "networkType": "ethereum",
  "devdoc": {
    "kind": "dev",
    "methods": {},
    "version": 1
  },
  "userdoc": {
    "kind": "user",
    "methods": {},
    "version": 1
  }
}