{
  "contractName": "NFTMarket",
  "abi": [
    {
      "inputs": [],
      "stateMutability": "nonpayable",
      "type": "constructor"
    },
    {
      "anonymous": false,
      "inputs": [
        {
          "indexed": true,
          "internalType": "uint256",
          "name": "itemId",
          "type": "uint256"
        },
        {
          "indexed": true,
          "internalType": "address",
          "name": "nftContract",
          "type": "address"
        },
        {
          "indexed": true,
          "internalType": "uint256",
          "name": "tokenId",
          "type": "uint256"
        },
        {
          "indexed": false,
          "internalType": "address",
          "name": "seller",
          "type": "address"
        },
        {
          "indexed": false,
          "internalType": "address",
          "name": "owner",
          "type": "address"
        },
        {
          "indexed": false,
          "internalType": "uint256",
          "name": "price",
          "type": "uint256"
        },
        {
          "indexed": false,
          "internalType": "bool",
          "name": "sold",
          "type": "bool"
        },
        {
          "indexed": false,
          "internalType": "bool",
          "name": "isDelete",
          "type": "bool"
        }
      ],
      "name": "DeleteMarketItem",
      "type": "event"
    },
    {
      "anonymous": false,
      "inputs": [
        {
          "indexed": true,
          "internalType": "uint256",
          "name": "itemId",
          "type": "uint256"
        },
        {
          "indexed": true,
          "internalType": "address",
          "name": "nftContract",
          "type": "address"
        },
        {
          "indexed": true,
          "internalType": "uint256",
          "name": "tokenId",
          "type": "uint256"
        },
        {
          "indexed": false,
          "internalType": "address",
          "name": "seller",
          "type": "address"
        },
        {
          "indexed": false,
          "internalType": "address",
          "name": "owner",
          "type": "address"
        },
        {
          "indexed": false,
          "internalType": "uint256",
          "name": "price",
          "type": "uint256"
        },
        {
          "indexed": false,
          "internalType": "bool",
          "name": "sold",
          "type": "bool"
        },
        {
          "indexed": false,
          "internalType": "bool",
          "name": "isDelete",
          "type": "bool"
        }
      ],
      "name": "MarketItemCreated",
      "type": "event"
    },
    {
      "anonymous": false,
      "inputs": [
        {
          "indexed": false,
          "internalType": "address",
          "name": "sender",
          "type": "address"
        },
        {
          "indexed": false,
          "internalType": "address",
          "name": "contractAddress",
          "type": "address"
        },
        {
          "indexed": false,
          "internalType": "bool",
          "name": "approved",
          "type": "bool"
        }
      ],
      "name": "UpdateApprovals",
      "type": "event"
    },
    {
      "inputs": [
        {
          "internalType": "address",
          "name": "contractAddress",
          "type": "address"
        },
        {
          "internalType": "bool",
          "name": "approved",
          "type": "bool"
        }
      ],
      "name": "updateApprovals",
      "outputs": [],
      "stateMutability": "nonpayable",
      "type": "function"
    },
    {
      "inputs": [],
      "name": "getListingPrice",
      "outputs": [
        {
          "internalType": "uint256",
          "name": "",
          "type": "uint256"
        }
      ],
      "stateMutability": "view",
      "type": "function",
      "constant": true
    },
    {
      "inputs": [
        {
          "internalType": "address",
          "name": "nftContract",
          "type": "address"
        },
        {
          "internalType": "uint256",
          "name": "tokenId",
          "type": "uint256"
        },
        {
          "internalType": "uint256",
          "name": "price",
          "type": "uint256"
        }
      ],
      "name": "createMarketItem",
      "outputs": [],
      "stateMutability": "payable",
      "type": "function",
      "payable": true
    },
    {
      "inputs": [
        {
          "internalType": "address",
          "name": "nftContract",
          "type": "address"
        },
        {
          "internalType": "uint256",
          "name": "itemId",
          "type": "uint256"
        }
      ],
      "name": "createMarketSale",
      "outputs": [],
      "stateMutability": "payable",
      "type": "function",
      "payable": true
    },
    {
      "inputs": [],
      "name": "fetchMarketItems",
      "outputs": [
        {
          "components": [
            {
              "internalType": "uint256",
              "name": "itemId",
              "type": "uint256"
            },
            {
              "internalType": "address",
              "name": "nftContract",
              "type": "address"
            },
            {
              "internalType": "uint256",
              "name": "tokenId",
              "type": "uint256"
            },
            {
              "internalType": "address payable",
              "name": "seller",
              "type": "address"
            },
            {
              "internalType": "address payable",
              "name": "owner",
              "type": "address"
            },
            {
              "internalType": "uint256",
              "name": "price",
              "type": "uint256"
            },
            {
              "internalType": "bool",
              "name": "sold",
              "type": "bool"
            },
            {
              "internalType": "bool",
              "name": "isDelete",
              "type": "bool"
            }
          ],
          "internalType": "struct NFTMarket.MarketItem[]",
          "name": "",
          "type": "tuple[]"
        }
      ],
      "stateMutability": "view",
      "type": "function",
      "constant": true
    },
    {
      "inputs": [],
      "name": "fetchMyNFTs",
      "outputs": [
        {
          "components": [
            {
              "internalType": "uint256",
              "name": "itemId",
              "type": "uint256"
            },
            {
              "internalType": "address",
              "name": "nftContract",
              "type": "address"
            },
            {
              "internalType": "uint256",
              "name": "tokenId",
              "type": "uint256"
            },
            {
              "internalType": "address payable",
              "name": "seller",
              "type": "address"
            },
            {
              "internalType": "address payable",
              "name": "owner",
              "type": "address"
            },
            {
              "internalType": "uint256",
              "name": "price",
              "type": "uint256"
            },
            {
              "internalType": "bool",
              "name": "sold",
              "type": "bool"
            },
            {
              "internalType": "bool",
              "name": "isDelete",
              "type": "bool"
            }
          ],
          "internalType": "struct NFTMarket.MarketItem[]",
          "name": "",
          "type": "tuple[]"
        }
      ],
      "stateMutability": "view",
      "type": "function",
      "constant": true
    },
    {
      "inputs": [],
      "name": "fetchItemsCreated",
      "outputs": [
        {
          "components": [
            {
              "internalType": "uint256",
              "name": "itemId",
              "type": "uint256"
            },
            {
              "internalType": "address",
              "name": "nftContract",
              "type": "address"
            },
            {
              "internalType": "uint256",
              "name": "tokenId",
              "type": "uint256"
            },
            {
              "internalType": "address payable",
              "name": "seller",
              "type": "address"
            },
            {
              "internalType": "address payable",
              "name": "owner",
              "type": "address"
            },
            {
              "internalType": "uint256",
              "name": "price",
              "type": "uint256"
            },
            {
              "internalType": "bool",
              "name": "sold",
              "type": "bool"
            },
            {
              "internalType": "bool",
              "name": "isDelete",
              "type": "bool"
            }
          ],
          "internalType": "struct NFTMarket.MarketItem[]",
          "name": "",
          "type": "tuple[]"
        }
      ],
      "stateMutability": "view",
      "type": "function",
      "constant": true
    },
    {
      "inputs": [
        {
          "internalType": "address",
          "name": "nftContract",
          "type": "address"
        },
        {
          "internalType": "uint256",
          "name": "itemId",
          "type": "uint256"
        }
      ],
      "name": "deleteMarketItem",
      "outputs": [
        {
          "internalType": "uint256",
          "name": "",
          "type": "uint256"
        }
      ],
      "stateMutability": "nonpayable",
      "type": "function"
    },
    {
      "inputs": [
        {
          "internalType": "uint256",
          "name": "tokenId",
          "type": "uint256"
        }
      ],
      "name": "getMarketIdByToken",
      "outputs": [
        {
          "internalType": "uint256",
          "name": "",
          "type": "uint256"
        }
      ],
      "stateMutability": "view",
      "type": "function",
      "constant": true
    }
  ],
  "bytecode": "0x60806040526658d15e1762800060055534801561001b57600080fd5b50600160008190555033600460006101000a81548173ffffffffffffffffffffffffffffffffffffffff021916908373ffffffffffffffffffffffffffffffffffffffff16021790555061247b806100746000396000f3fe6080604052600436106100865760003560e01c806358eb2df51161005957806358eb2df51461014957806375e0727f14610165578063c23b139e146101a2578063e02ab4ae146101be578063f064c32e146101e757610086565b8063098522981461008b5780630f08efe0146100c857806312e85585146100f3578063202e37401461011e575b600080fd5b34801561009757600080fd5b506100b260048036038101906100ad9190611a49565b610212565b6040516100bf9190611a85565b60405180910390f35b3480156100d457600080fd5b506100dd6102a1565b6040516100ea9190611c7e565b60405180910390f35b3480156100ff57600080fd5b5061010861068b565b6040516101159190611a85565b60405180910390f35b34801561012a57600080fd5b50610133610695565b6040516101409190611c7e565b60405180910390f35b610163600480360381019061015e9190611ccc565b610a7d565b005b34801561017157600080fd5b5061018c60048036038101906101879190611d1f565b610e0d565b6040516101999190611a85565b60405180910390f35b6101bc60048036038101906101b79190611d1f565b611142565b005b3480156101ca57600080fd5b506101e560048036038101906101e09190611d8b565b6113fb565b005b3480156101f357600080fd5b506101fc611521565b6040516102099190611c7e565b60405180910390f35b60008061021f6001611909565b905060005b8181101561029557836006600060018461023e9190611dfa565b815260200190815260200160002060020154141561028257600660006001836102679190611dfa565b8152602001908152602001600020600001549250505061029c565b808061028d90611e50565b915050610224565b5060009150505b919050565b606060006102af6001611909565b905060008060005b8381101561039857600073ffffffffffffffffffffffffffffffffffffffff16600660006001846102e89190611dfa565b815260200190815260200160002060040160009054906101000a900473ffffffffffffffffffffffffffffffffffffffff1673ffffffffffffffffffffffffffffffffffffffff161480156103705750600015156006600060018461034d9190611dfa565b815260200190815260200160002060060160019054906101000a900460ff161515145b15610385576001836103829190611dfa565b92505b808061039090611e50565b9150506102b7565b5060008267ffffffffffffffff8111156103b5576103b4611e99565b5b6040519080825280602002602001820160405280156103ee57816020015b6103db611983565b8152602001906001900390816103d35790505b50905060005b8481101561068057600073ffffffffffffffffffffffffffffffffffffffff16600660006001846104259190611dfa565b815260200190815260200160002060040160009054906101000a900473ffffffffffffffffffffffffffffffffffffffff1673ffffffffffffffffffffffffffffffffffffffff161480156104ad5750600015156006600060018461048a9190611dfa565b815260200190815260200160002060060160019054906101000a900460ff161515145b1561066d5760006001826104c19190611dfa565b905060006006600083815260200190815260200160002090508060405180610100016040529081600082015481526020016001820160009054906101000a900473ffffffffffffffffffffffffffffffffffffffff1673ffffffffffffffffffffffffffffffffffffffff1673ffffffffffffffffffffffffffffffffffffffff168152602001600282015481526020016003820160009054906101000a900473ffffffffffffffffffffffffffffffffffffffff1673ffffffffffffffffffffffffffffffffffffffff1673ffffffffffffffffffffffffffffffffffffffff1681526020016004820160009054906101000a900473ffffffffffffffffffffffffffffffffffffffff1673ffffffffffffffffffffffffffffffffffffffff1673ffffffffffffffffffffffffffffffffffffffff168152602001600582015481526020016006820160009054906101000a900460ff161515151581526020016006820160019054906101000a900460ff1615151515815250508486815181106106505761064f611ec8565b5b60200260200101819052506001856106689190611dfa565b945050505b808061067890611e50565b9150506103f4565b508094505050505090565b6000600554905090565b606060006106a36001611909565b905060008060005b8381101561078b573373ffffffffffffffffffffffffffffffffffffffff16600660006001846106db9190611dfa565b815260200190815260200160002060040160009054906101000a900473ffffffffffffffffffffffffffffffffffffffff1673ffffffffffffffffffffffffffffffffffffffff16148015610763575060001515600660006001846107409190611dfa565b815260200190815260200160002060060160019054906101000a900460ff161515145b15610778576001836107759190611dfa565b92505b808061078390611e50565b9150506106ab565b5060008267ffffffffffffffff8111156107a8576107a7611e99565b5b6040519080825280602002602001820160405280156107e157816020015b6107ce611983565b8152602001906001900390816107c65790505b50905060005b84811015610a72573373ffffffffffffffffffffffffffffffffffffffff16600660006001846108179190611dfa565b815260200190815260200160002060040160009054906101000a900473ffffffffffffffffffffffffffffffffffffffff1673ffffffffffffffffffffffffffffffffffffffff1614801561089f5750600015156006600060018461087c9190611dfa565b815260200190815260200160002060060160019054906101000a900460ff161515145b15610a5f5760006001826108b39190611dfa565b905060006006600083815260200190815260200160002090508060405180610100016040529081600082015481526020016001820160009054906101000a900473ffffffffffffffffffffffffffffffffffffffff1673ffffffffffffffffffffffffffffffffffffffff1673ffffffffffffffffffffffffffffffffffffffff168152602001600282015481526020016003820160009054906101000a900473ffffffffffffffffffffffffffffffffffffffff1673ffffffffffffffffffffffffffffffffffffffff1673ffffffffffffffffffffffffffffffffffffffff1681526020016004820160009054906101000a900473ffffffffffffffffffffffffffffffffffffffff1673ffffffffffffffffffffffffffffffffffffffff1673ffffffffffffffffffffffffffffffffffffffff168152602001600582015481526020016006820160009054906101000a900460ff161515151581526020016006820160019054906101000a900460ff161515151581525050848681518110610a4257610a41611ec8565b5b6020026020010181905250600185610a5a9190611dfa565b945050505b8080610a6a90611e50565b9150506107e7565b508094505050505090565b60026000541415610ac3576040517f08c379a0000000000000000000000000000000000000000000000000000000008152600401610aba90611f54565b60405180910390fd5b600260008190555060008111610b0e576040517f08c379a0000000000000000000000000000000000000000000000000000000008152600401610b0590611fc0565b60405180910390fd5b6005543414610b52576040517f08c379a0000000000000000000000000000000000000000000000000000000008152600401610b4990612052565b60405180910390fd5b610b5c6001611917565b6000610b686001611909565b90506040518061010001604052808281526020018573ffffffffffffffffffffffffffffffffffffffff1681526020018481526020013373ffffffffffffffffffffffffffffffffffffffff168152602001600073ffffffffffffffffffffffffffffffffffffffff16815260200183815260200160001515815260200160001515815250600660008381526020019081526020016000206000820151816000015560208201518160010160006101000a81548173ffffffffffffffffffffffffffffffffffffffff021916908373ffffffffffffffffffffffffffffffffffffffff1602179055506040820151816002015560608201518160030160006101000a81548173ffffffffffffffffffffffffffffffffffffffff021916908373ffffffffffffffffffffffffffffffffffffffff16021790555060808201518160040160006101000a81548173ffffffffffffffffffffffffffffffffffffffff021916908373ffffffffffffffffffffffffffffffffffffffff16021790555060a0820151816005015560c08201518160060160006101000a81548160ff02191690831515021790555060e08201518160060160016101000a81548160ff0219169083151502179055509050508373ffffffffffffffffffffffffffffffffffffffff166323b872dd3330866040518463ffffffff1660e01b8152600401610d7393929190612081565b600060405180830381600087803b158015610d8d57600080fd5b505af1158015610da1573d6000803e3d6000fd5b50505050828473ffffffffffffffffffffffffffffffffffffffff16827fc99151f4453170a67bc7441775fde1a3bc3220c06645df1121e703aab5e7da5d33600087600080604051610df79594939291906120c7565b60405180910390a4506001600081905550505050565b60003373ffffffffffffffffffffffffffffffffffffffff166006600084815260200190815260200160002060040160009054906101000a900473ffffffffffffffffffffffffffffffffffffffff1673ffffffffffffffffffffffffffffffffffffffff161480610e8b575060011515610e873361192d565b1515145b610eca576040517f08c379a0000000000000000000000000000000000000000000000000000000008152600401610ec190612166565b60405180910390fd5b600115156006600084815260200190815260200160002060060160009054906101000a900460ff16151514610f34576040517f08c379a0000000000000000000000000000000000000000000000000000000008152600401610f2b906121d2565b60405180910390fd5b600015156006600084815260200190815260200160002060060160019054906101000a900460ff16151514610f9e576040517f08c379a0000000000000000000000000000000000000000000000000000000008152600401610f959061223e565b60405180910390fd5b60016006600084815260200190815260200160002060060160016101000a81548160ff021916908315150217905550610fd76003611917565b60066000838152602001908152602001600020600201548373ffffffffffffffffffffffffffffffffffffffff1660066000858152602001908152602001600020600001547f367c15bfb509fff72acb3fb4b63c99dc1dbc9f123079f5922043c3da3d4426ab6006600087815260200190815260200160002060030160009054906101000a900473ffffffffffffffffffffffffffffffffffffffff166006600088815260200190815260200160002060040160009054906101000a900473ffffffffffffffffffffffffffffffffffffffff166006600089815260200190815260200160002060050154600660008a815260200190815260200160002060060160009054906101000a900460ff16600660008b815260200190815260200160002060060160019054906101000a900460ff1660405161111b9594939291906122bd565b60405180910390a46006600083815260200190815260200160002060000154905092915050565b60026000541415611188576040517f08c379a000000000000000000000000000000000000000000000000000000000815260040161117f90611f54565b60405180910390fd5b6002600081905550600060066000838152602001908152602001600020600501549050600060066000848152602001908152602001600020600201549050813414611208576040517f08c379a00000000000000000000000000000000000000000000000000000000081526004016111ff90612382565b60405180910390fd5b6006600084815260200190815260200160002060030160009054906101000a900473ffffffffffffffffffffffffffffffffffffffff1673ffffffffffffffffffffffffffffffffffffffff166108fc349081150290604051600060405180830381858888f19350505050158015611284573d6000803e3d6000fd5b508373ffffffffffffffffffffffffffffffffffffffff166323b872dd3033846040518463ffffffff1660e01b81526004016112c293929190612081565b600060405180830381600087803b1580156112dc57600080fd5b505af11580156112f0573d6000803e3d6000fd5b50505050336006600085815260200190815260200160002060040160006101000a81548173ffffffffffffffffffffffffffffffffffffffff021916908373ffffffffffffffffffffffffffffffffffffffff16021790555060016006600085815260200190815260200160002060060160006101000a81548160ff0219169083151502179055506113826002611917565b600460009054906101000a900473ffffffffffffffffffffffffffffffffffffffff1673ffffffffffffffffffffffffffffffffffffffff166108fc6005549081150290604051600060405180830381858888f193505050501580156113ec573d6000803e3d6000fd5b50505060016000819055505050565b600460009054906101000a900473ffffffffffffffffffffffffffffffffffffffff1673ffffffffffffffffffffffffffffffffffffffff163373ffffffffffffffffffffffffffffffffffffffff161461148b576040517f08c379a0000000000000000000000000000000000000000000000000000000008152600401611482906123ee565b60405180910390fd5b80600760008473ffffffffffffffffffffffffffffffffffffffff1673ffffffffffffffffffffffffffffffffffffffff16815260200190815260200160002060006101000a81548160ff0219169083151502179055507f941a2ca67f46c43d03aeb2c213a50c902f071ed217b87f264d0ddd03b582ff323383836040516115159392919061240e565b60405180910390a15050565b6060600061152f6001611909565b905060008060005b83811015611617573373ffffffffffffffffffffffffffffffffffffffff16600660006001846115679190611dfa565b815260200190815260200160002060030160009054906101000a900473ffffffffffffffffffffffffffffffffffffffff1673ffffffffffffffffffffffffffffffffffffffff161480156115ef575060001515600660006001846115cc9190611dfa565b815260200190815260200160002060060160019054906101000a900460ff161515145b15611604576001836116019190611dfa565b92505b808061160f90611e50565b915050611537565b5060008267ffffffffffffffff81111561163457611633611e99565b5b60405190808252806020026020018201604052801561166d57816020015b61165a611983565b8152602001906001900390816116525790505b50905060005b848110156118fe573373ffffffffffffffffffffffffffffffffffffffff16600660006001846116a39190611dfa565b815260200190815260200160002060030160009054906101000a900473ffffffffffffffffffffffffffffffffffffffff1673ffffffffffffffffffffffffffffffffffffffff1614801561172b575060001515600660006001846117089190611dfa565b815260200190815260200160002060060160019054906101000a900460ff161515145b156118eb57600060018261173f9190611dfa565b905060006006600083815260200190815260200160002090508060405180610100016040529081600082015481526020016001820160009054906101000a900473ffffffffffffffffffffffffffffffffffffffff1673ffffffffffffffffffffffffffffffffffffffff1673ffffffffffffffffffffffffffffffffffffffff168152602001600282015481526020016003820160009054906101000a900473ffffffffffffffffffffffffffffffffffffffff1673ffffffffffffffffffffffffffffffffffffffff1673ffffffffffffffffffffffffffffffffffffffff1681526020016004820160009054906101000a900473ffffffffffffffffffffffffffffffffffffffff1673ffffffffffffffffffffffffffffffffffffffff1673ffffffffffffffffffffffffffffffffffffffff168152602001600582015481526020016006820160009054906101000a900460ff161515151581526020016006820160019054906101000a900460ff1615151515815250508486815181106118ce576118cd611ec8565b5b60200260200101819052506001856118e69190611dfa565b945050505b80806118f690611e50565b915050611673565b508094505050505090565b600081600001549050919050565b6001816000016000828254019250508190555050565b6000600760008373ffffffffffffffffffffffffffffffffffffffff1673ffffffffffffffffffffffffffffffffffffffff16815260200190815260200160002060009054906101000a900460ff169050919050565b60405180610100016040528060008152602001600073ffffffffffffffffffffffffffffffffffffffff16815260200160008152602001600073ffffffffffffffffffffffffffffffffffffffff168152602001600073ffffffffffffffffffffffffffffffffffffffff168152602001600081526020016000151581526020016000151581525090565b600080fd5b6000819050919050565b611a2681611a13565b8114611a3157600080fd5b50565b600081359050611a4381611a1d565b92915050565b600060208284031215611a5f57611a5e611a0e565b5b6000611a6d84828501611a34565b91505092915050565b611a7f81611a13565b82525050565b6000602082019050611a9a6000830184611a76565b92915050565b600081519050919050565b600082825260208201905092915050565b6000819050602082019050919050565b611ad581611a13565b82525050565b600073ffffffffffffffffffffffffffffffffffffffff82169050919050565b6000611b0682611adb565b9050919050565b611b1681611afb565b82525050565b6000611b2782611adb565b9050919050565b611b3781611b1c565b82525050565b60008115159050919050565b611b5281611b3d565b82525050565b61010082016000820151611b6f6000850182611acc565b506020820151611b826020850182611b0d565b506040820151611b956040850182611acc565b506060820151611ba86060850182611b2e565b506080820151611bbb6080850182611b2e565b5060a0820151611bce60a0850182611acc565b5060c0820151611be160c0850182611b49565b5060e0820151611bf460e0850182611b49565b50505050565b6000611c068383611b58565b6101008301905092915050565b6000602082019050919050565b6000611c2b82611aa0565b611c358185611aab565b9350611c4083611abc565b8060005b83811015611c71578151611c588882611bfa565b9750611c6383611c13565b925050600181019050611c44565b5085935050505092915050565b60006020820190508181036000830152611c988184611c20565b905092915050565b611ca981611afb565b8114611cb457600080fd5b50565b600081359050611cc681611ca0565b92915050565b600080600060608486031215611ce557611ce4611a0e565b5b6000611cf386828701611cb7565b9350506020611d0486828701611a34565b9250506040611d1586828701611a34565b9150509250925092565b60008060408385031215611d3657611d35611a0e565b5b6000611d4485828601611cb7565b9250506020611d5585828601611a34565b9150509250929050565b611d6881611b3d565b8114611d7357600080fd5b50565b600081359050611d8581611d5f565b92915050565b60008060408385031215611da257611da1611a0e565b5b6000611db085828601611cb7565b9250506020611dc185828601611d76565b9150509250929050565b7f4e487b7100000000000000000000000000000000000000000000000000000000600052601160045260246000fd5b6000611e0582611a13565b9150611e1083611a13565b9250827fffffffffffffffffffffffffffffffffffffffffffffffffffffffffffffffff03821115611e4557611e44611dcb565b5b828201905092915050565b6000611e5b82611a13565b91507fffffffffffffffffffffffffffffffffffffffffffffffffffffffffffffffff821415611e8e57611e8d611dcb565b5b600182019050919050565b7f4e487b7100000000000000000000000000000000000000000000000000000000600052604160045260246000fd5b7f4e487b7100000000000000000000000000000000000000000000000000000000600052603260045260246000fd5b600082825260208201905092915050565b7f5265656e7472616e637947756172643a207265656e7472616e742063616c6c00600082015250565b6000611f3e601f83611ef7565b9150611f4982611f08565b602082019050919050565b60006020820190508181036000830152611f6d81611f31565b9050919050565b7f5072696365206d757374206265206174206c6561737420312077656900000000600082015250565b6000611faa601c83611ef7565b9150611fb582611f74565b602082019050919050565b60006020820190508181036000830152611fd981611f9d565b9050919050565b7f5072696365206d75737420626520657175616c20746f206c697374696e67207060008201527f7269636500000000000000000000000000000000000000000000000000000000602082015250565b600061203c602483611ef7565b915061204782611fe0565b604082019050919050565b6000602082019050818103600083015261206b8161202f565b9050919050565b61207b81611afb565b82525050565b60006060820190506120966000830186612072565b6120a36020830185612072565b6120b06040830184611a76565b949350505050565b6120c181611b3d565b82525050565b600060a0820190506120dc6000830188612072565b6120e96020830187612072565b6120f66040830186611a76565b61210360608301856120b8565b61211060808301846120b8565b9695505050505050565b7f54686973206974656d206973206e6f7420796f75722e00000000000000000000600082015250565b6000612150601683611ef7565b915061215b8261211a565b602082019050919050565b6000602082019050818103600083015261217f81612143565b9050919050565b7f54686973206974656d206973206e6f7420736f6c642e00000000000000000000600082015250565b60006121bc601683611ef7565b91506121c782612186565b602082019050919050565b600060208201905081810360008301526121eb816121af565b9050919050565b7f54686973206974656d20697320616c72656164792064656c657465642e000000600082015250565b6000612228601d83611ef7565b9150612233826121f2565b602082019050919050565b600060208201905081810360008301526122578161221b565b9050919050565b6000819050919050565b600061228361227e61227984611adb565b61225e565b611adb565b9050919050565b600061229582612268565b9050919050565b60006122a78261228a565b9050919050565b6122b78161229c565b82525050565b600060a0820190506122d260008301886122ae565b6122df60208301876122ae565b6122ec6040830186611a76565b6122f960608301856120b8565b61230660808301846120b8565b9695505050505050565b7f506c65617365207375626d6974207468652061736b696e67207072696365206960008201527f6e206f7264657220746f20636f6d706c65746520746865207075726368617365602082015250565b600061236c604083611ef7565b915061237782612310565b604082019050919050565b6000602082019050818103600083015261239b8161235f565b9050919050565b7f596f7520617265206e6f74206f776e65722e0000000000000000000000000000600082015250565b60006123d8601283611ef7565b91506123e3826123a2565b602082019050919050565b60006020820190508181036000830152612407816123cb565b9050919050565b60006060820190506124236000830186612072565b6124306020830185612072565b61243d60408301846120b8565b94935050505056fea26469706673582212203ff9ad7afbb9e88df76964adc15c135ab4861711f669c6da35e5b17c6536fa2c64736f6c634300080a0033",
  "immutableReferences": {},
  "source": "// SPDX-License-Identifier: MIT OR Apache-2.0\npragma solidity ^0.8.3;\n\nimport \"@openzeppelin/contracts/utils/Counters.sol\";\nimport \"@openzeppelin/contracts/security/ReentrancyGuard.sol\";\nimport \"@openzeppelin/contracts/token/ERC721/ERC721.sol\";\n\ncontract NFTMarket is ReentrancyGuard {\n    using Counters for Counters.Counter;\n    Counters.Counter private _itemIds;\n    Counters.Counter private _itemsSold;\n    Counters.Counter private _itemsDelete;\n\n    address payable owner;\n    uint256 listingPrice = 0.025 ether;\n\n    constructor() {\n        owner = payable(msg.sender);\n    }\n\n    struct MarketItem {\n        uint256 itemId;\n        address nftContract;\n        uint256 tokenId;\n        address payable seller;\n        address payable owner;\n        uint256 price;\n        bool sold;\n        bool isDelete;\n    }\n\n    mapping(uint256 => MarketItem) private idToMarketItem;\n\n    mapping(address => bool) private _approvals;\n\n    event UpdateApprovals(\n        address sender,\n        address contractAddress,\n        bool approved\n    );\n\n    function updateApprovals(address contractAddress, bool approved) public {\n        require(msg.sender == owner, \"You are not owner.\");\n\n        _approvals[contractAddress] = approved;\n\n        emit UpdateApprovals(msg.sender, contractAddress, approved);\n    }\n\n    function isApproved(address contractAddress) private view returns (bool) {\n        return _approvals[contractAddress];\n    }\n\n    event MarketItemCreated(\n        uint256 indexed itemId,\n        address indexed nftContract,\n        uint256 indexed tokenId,\n        address seller,\n        address owner,\n        uint256 price,\n        bool sold,\n        bool isDelete\n    );\n\n    /* Returns the listing price of the contract */\n    function getListingPrice() public view returns (uint256) {\n        return listingPrice;\n    }\n\n    /* Places an item for sale on the marketplace */\n    function createMarketItem(\n        address nftContract,\n        uint256 tokenId,\n        uint256 price\n    ) public payable nonReentrant {\n        require(price > 0, \"Price must be at least 1 wei\");\n        require(\n            msg.value == listingPrice,\n            \"Price must be equal to listing price\"\n        );\n\n        _itemIds.increment();\n        uint256 itemId = _itemIds.current();\n\n        idToMarketItem[itemId] = MarketItem(\n            itemId,\n            nftContract,\n            tokenId,\n            payable(msg.sender),\n            payable(address(0)),\n            price,\n            false,\n            false\n        );\n\n        IERC721(nftContract).transferFrom(msg.sender, address(this), tokenId);\n\n        emit MarketItemCreated(\n            itemId,\n            nftContract,\n            tokenId,\n            msg.sender,\n            address(0),\n            price,\n            false,\n            false\n        );\n    }\n\n    /* Creates the sale of a marketplace item */\n    /* Transfers ownership of the item, as well as funds between parties */\n    function createMarketSale(address nftContract, uint256 itemId)\n        public\n        payable\n        nonReentrant\n    {\n        uint256 price = idToMarketItem[itemId].price;\n        uint256 tokenId = idToMarketItem[itemId].tokenId;\n        require(\n            msg.value == price,\n            \"Please submit the asking price in order to complete the purchase\"\n        );\n\n        idToMarketItem[itemId].seller.transfer(msg.value);\n        IERC721(nftContract).transferFrom(address(this), msg.sender, tokenId);\n        idToMarketItem[itemId].owner = payable(msg.sender);\n        idToMarketItem[itemId].sold = true;\n        _itemsSold.increment();\n        payable(owner).transfer(listingPrice);\n    }\n\n    function fetchMarketItems() public view returns (MarketItem[] memory) {\n        uint256 totalItemCount = _itemIds.current();\n        uint256 itemCount = 0;\n        uint256 currentIndex = 0;\n\n        for (uint256 i = 0; i < totalItemCount; i++) {\n            if (\n                idToMarketItem[i + 1].owner == address(0) &&\n                idToMarketItem[i + 1].isDelete == false\n            ) {\n                itemCount += 1;\n            }\n        }\n\n        MarketItem[] memory items = new MarketItem[](itemCount);\n        for (uint256 i = 0; i < totalItemCount; i++) {\n            if (\n                idToMarketItem[i + 1].owner == address(0) &&\n                idToMarketItem[i + 1].isDelete == false\n            ) {\n                uint256 currentId = i + 1;\n                MarketItem storage currentItem = idToMarketItem[currentId];\n                items[currentIndex] = currentItem;\n                currentIndex += 1;\n            }\n        }\n        return items;\n    }\n\n    /* Returns onlyl items that a user has purchased */\n    function fetchMyNFTs() public view returns (MarketItem[] memory) {\n        uint256 totalItemCount = _itemIds.current();\n        uint256 itemCount = 0;\n        uint256 currentIndex = 0;\n\n        for (uint256 i = 0; i < totalItemCount; i++) {\n            if (\n                idToMarketItem[i + 1].owner == msg.sender &&\n                idToMarketItem[i + 1].isDelete == false\n            ) {\n                itemCount += 1;\n            }\n        }\n\n        MarketItem[] memory items = new MarketItem[](itemCount);\n        for (uint256 i = 0; i < totalItemCount; i++) {\n            if (\n                idToMarketItem[i + 1].owner == msg.sender &&\n                idToMarketItem[i + 1].isDelete == false\n            ) {\n                uint256 currentId = i + 1;\n                MarketItem storage currentItem = idToMarketItem[currentId];\n                items[currentIndex] = currentItem;\n                currentIndex += 1;\n            }\n        }\n        return items;\n    }\n\n    /* Returns only items a user has created */\n    function fetchItemsCreated() public view returns (MarketItem[] memory) {\n        uint256 totalItemCount = _itemIds.current();\n        uint256 itemCount = 0;\n        uint256 currentIndex = 0;\n\n        for (uint256 i = 0; i < totalItemCount; i++) {\n            if (\n                idToMarketItem[i + 1].seller == msg.sender &&\n                idToMarketItem[i + 1].isDelete == false\n            ) {\n                itemCount += 1;\n            }\n        }\n\n        MarketItem[] memory items = new MarketItem[](itemCount);\n        for (uint256 i = 0; i < totalItemCount; i++) {\n            if (\n                idToMarketItem[i + 1].seller == msg.sender &&\n                idToMarketItem[i + 1].isDelete == false\n            ) {\n                uint256 currentId = i + 1;\n                MarketItem storage currentItem = idToMarketItem[currentId];\n                items[currentIndex] = currentItem;\n                currentIndex += 1;\n            }\n        }\n        return items;\n    }\n\n    event DeleteMarketItem(\n        uint256 indexed itemId,\n        address indexed nftContract,\n        uint256 indexed tokenId,\n        address seller,\n        address owner,\n        uint256 price,\n        bool sold,\n        bool isDelete\n    );\n\n    function deleteMarketItem(address nftContract, uint256 itemId)\n        public\n        returns (uint256)\n    {\n        require(\n            idToMarketItem[itemId].owner == msg.sender ||\n                isApproved(msg.sender) == true,\n            \"This item is not your.\"\n        );\n        require(idToMarketItem[itemId].sold == true, \"This item is not sold.\");\n        require(\n            idToMarketItem[itemId].isDelete == false,\n            \"This item is already deleted.\"\n        );\n\n        idToMarketItem[itemId].isDelete = true;\n\n        _itemsDelete.increment();\n        emit DeleteMarketItem(\n            idToMarketItem[itemId].itemId,\n            nftContract,\n            idToMarketItem[itemId].tokenId,\n            idToMarketItem[itemId].seller,\n            idToMarketItem[itemId].owner,\n            idToMarketItem[itemId].price,\n            idToMarketItem[itemId].sold,\n            idToMarketItem[itemId].isDelete\n        );\n\n        return idToMarketItem[itemId].itemId;\n    }\n\n    function getMarketIdByToken(uint256 tokenId) public view returns (uint256) {\n        uint256 totalItemCount = _itemIds.current();\n        for (uint256 i = 0; i < totalItemCount; i++) {\n            if (idToMarketItem[i + 1].tokenId == tokenId) {\n                return idToMarketItem[i + 1].itemId;\n            }\n        }\n        return 0;\n    }\n}\n",
  "sourcePath": "/Users/siamsae-chua/Documents/_project/blockChainPlayGround/nft-marketplace-server/contracts/NFTMarket.sol",
  "compiler": {
    "name": "solc",
    "version": "0.8.10+commit.fc410830.Emscripten.clang"
  },
  "schemaVersion": "3.4.4",
  "updatedAt": "2022-02-20T16:05:49.928Z",
  "networkType": "ethereum",
  "devdoc": {
    "kind": "dev",
    "methods": {},
    "version": 1
  },
  "userdoc": {
    "kind": "user",
    "methods": {},
    "version": 1
  }
}