{
  "contractName": "NFTMarket",
  "abi": [
    {
      "inputs": [],
      "stateMutability": "nonpayable",
      "type": "constructor"
    },
    {
      "anonymous": false,
      "inputs": [
        {
          "indexed": true,
          "internalType": "uint256",
          "name": "itemId",
          "type": "uint256"
        },
        {
          "indexed": true,
          "internalType": "address",
          "name": "nftContract",
          "type": "address"
        },
        {
          "indexed": true,
          "internalType": "uint256",
          "name": "tokenId",
          "type": "uint256"
        },
        {
          "indexed": false,
          "internalType": "address",
          "name": "seller",
          "type": "address"
        },
        {
          "indexed": false,
          "internalType": "address",
          "name": "ownerAddress",
          "type": "address"
        },
        {
          "indexed": false,
          "internalType": "uint256",
          "name": "price",
          "type": "uint256"
        },
        {
          "indexed": false,
          "internalType": "bool",
          "name": "sold",
          "type": "bool"
        },
        {
          "indexed": false,
          "internalType": "bool",
          "name": "isDelete",
          "type": "bool"
        }
      ],
      "name": "DeleteMarketItem",
      "type": "event"
    },
    {
      "anonymous": false,
      "inputs": [
        {
          "indexed": true,
          "internalType": "uint256",
          "name": "itemId",
          "type": "uint256"
        },
        {
          "indexed": true,
          "internalType": "address",
          "name": "nftContract",
          "type": "address"
        },
        {
          "indexed": true,
          "internalType": "uint256",
          "name": "tokenId",
          "type": "uint256"
        },
        {
          "indexed": false,
          "internalType": "address",
          "name": "seller",
          "type": "address"
        },
        {
          "indexed": false,
          "internalType": "address",
          "name": "ownerAddress",
          "type": "address"
        },
        {
          "indexed": false,
          "internalType": "uint256",
          "name": "price",
          "type": "uint256"
        },
        {
          "indexed": false,
          "internalType": "bool",
          "name": "sold",
          "type": "bool"
        },
        {
          "indexed": false,
          "internalType": "bool",
          "name": "isDelete",
          "type": "bool"
        }
      ],
      "name": "MarketItemCreated",
      "type": "event"
    },
    {
      "anonymous": false,
      "inputs": [
        {
          "indexed": true,
          "internalType": "address",
          "name": "previousOwner",
          "type": "address"
        },
        {
          "indexed": true,
          "internalType": "address",
          "name": "newOwner",
          "type": "address"
        }
      ],
      "name": "OwnershipTransferred",
      "type": "event"
    },
    {
      "anonymous": false,
      "inputs": [
        {
          "indexed": false,
          "internalType": "address",
          "name": "sender",
          "type": "address"
        },
        {
          "indexed": false,
          "internalType": "address",
          "name": "contractAddress",
          "type": "address"
        },
        {
          "indexed": false,
          "internalType": "bool",
          "name": "approved",
          "type": "bool"
        }
      ],
      "name": "UpdateApprovals",
      "type": "event"
    },
    {
      "inputs": [
        {
          "internalType": "address",
          "name": "contractAddress",
          "type": "address"
        }
      ],
      "name": "isApproved",
      "outputs": [
        {
          "internalType": "bool",
          "name": "",
          "type": "bool"
        }
      ],
      "stateMutability": "view",
      "type": "function",
      "constant": true
    },
    {
      "inputs": [],
      "name": "owner",
      "outputs": [
        {
          "internalType": "address",
          "name": "",
          "type": "address"
        }
      ],
      "stateMutability": "view",
      "type": "function",
      "constant": true
    },
    {
      "inputs": [],
      "name": "renounceOwnership",
      "outputs": [],
      "stateMutability": "nonpayable",
      "type": "function"
    },
    {
      "inputs": [
        {
          "internalType": "address",
          "name": "newOwner",
          "type": "address"
        }
      ],
      "name": "transferOwnership",
      "outputs": [],
      "stateMutability": "nonpayable",
      "type": "function"
    },
    {
      "inputs": [
        {
          "internalType": "address",
          "name": "contractAddress",
          "type": "address"
        },
        {
          "internalType": "bool",
          "name": "approved",
          "type": "bool"
        }
      ],
      "name": "updateApprovals",
      "outputs": [],
      "stateMutability": "nonpayable",
      "type": "function"
    },
    {
      "inputs": [],
      "name": "getListingPrice",
      "outputs": [
        {
          "internalType": "uint256",
          "name": "",
          "type": "uint256"
        }
      ],
      "stateMutability": "view",
      "type": "function",
      "constant": true
    },
    {
      "inputs": [
        {
          "internalType": "address",
          "name": "nftContract",
          "type": "address"
        },
        {
          "internalType": "uint256",
          "name": "tokenId",
          "type": "uint256"
        },
        {
          "internalType": "uint256",
          "name": "price",
          "type": "uint256"
        }
      ],
      "name": "createMarketItem",
      "outputs": [],
      "stateMutability": "payable",
      "type": "function",
      "payable": true
    },
    {
      "inputs": [
        {
          "internalType": "address",
          "name": "nftContract",
          "type": "address"
        },
        {
          "internalType": "uint256",
          "name": "itemId",
          "type": "uint256"
        }
      ],
      "name": "createMarketSale",
      "outputs": [],
      "stateMutability": "payable",
      "type": "function",
      "payable": true
    },
    {
      "inputs": [],
      "name": "fetchMarketItems",
      "outputs": [
        {
          "components": [
            {
              "internalType": "uint256",
              "name": "itemId",
              "type": "uint256"
            },
            {
              "internalType": "address",
              "name": "nftContract",
              "type": "address"
            },
            {
              "internalType": "uint256",
              "name": "tokenId",
              "type": "uint256"
            },
            {
              "internalType": "address payable",
              "name": "seller",
              "type": "address"
            },
            {
              "internalType": "address payable",
              "name": "ownerAddress",
              "type": "address"
            },
            {
              "internalType": "uint256",
              "name": "price",
              "type": "uint256"
            },
            {
              "internalType": "bool",
              "name": "sold",
              "type": "bool"
            },
            {
              "internalType": "bool",
              "name": "isDelete",
              "type": "bool"
            }
          ],
          "internalType": "struct NFTMarket.MarketItem[]",
          "name": "",
          "type": "tuple[]"
        }
      ],
      "stateMutability": "view",
      "type": "function",
      "constant": true
    },
    {
      "inputs": [],
      "name": "fetchMyNFTs",
      "outputs": [
        {
          "components": [
            {
              "internalType": "uint256",
              "name": "itemId",
              "type": "uint256"
            },
            {
              "internalType": "address",
              "name": "nftContract",
              "type": "address"
            },
            {
              "internalType": "uint256",
              "name": "tokenId",
              "type": "uint256"
            },
            {
              "internalType": "address payable",
              "name": "seller",
              "type": "address"
            },
            {
              "internalType": "address payable",
              "name": "ownerAddress",
              "type": "address"
            },
            {
              "internalType": "uint256",
              "name": "price",
              "type": "uint256"
            },
            {
              "internalType": "bool",
              "name": "sold",
              "type": "bool"
            },
            {
              "internalType": "bool",
              "name": "isDelete",
              "type": "bool"
            }
          ],
          "internalType": "struct NFTMarket.MarketItem[]",
          "name": "",
          "type": "tuple[]"
        }
      ],
      "stateMutability": "view",
      "type": "function",
      "constant": true
    },
    {
      "inputs": [],
      "name": "fetchItemsCreated",
      "outputs": [
        {
          "components": [
            {
              "internalType": "uint256",
              "name": "itemId",
              "type": "uint256"
            },
            {
              "internalType": "address",
              "name": "nftContract",
              "type": "address"
            },
            {
              "internalType": "uint256",
              "name": "tokenId",
              "type": "uint256"
            },
            {
              "internalType": "address payable",
              "name": "seller",
              "type": "address"
            },
            {
              "internalType": "address payable",
              "name": "ownerAddress",
              "type": "address"
            },
            {
              "internalType": "uint256",
              "name": "price",
              "type": "uint256"
            },
            {
              "internalType": "bool",
              "name": "sold",
              "type": "bool"
            },
            {
              "internalType": "bool",
              "name": "isDelete",
              "type": "bool"
            }
          ],
          "internalType": "struct NFTMarket.MarketItem[]",
          "name": "",
          "type": "tuple[]"
        }
      ],
      "stateMutability": "view",
      "type": "function",
      "constant": true
    },
    {
      "inputs": [
        {
          "internalType": "uint256",
          "name": "tokenId",
          "type": "uint256"
        }
      ],
      "name": "isMarketItem",
      "outputs": [
        {
          "internalType": "bool",
          "name": "",
          "type": "bool"
        }
      ],
      "stateMutability": "view",
      "type": "function",
      "constant": true
    },
    {
      "inputs": [
        {
          "internalType": "address",
          "name": "nftContract",
          "type": "address"
        },
        {
          "internalType": "uint256",
          "name": "itemId",
          "type": "uint256"
        }
      ],
      "name": "deleteMarketItem",
      "outputs": [
        {
          "internalType": "uint256",
          "name": "",
          "type": "uint256"
        }
      ],
      "stateMutability": "nonpayable",
      "type": "function"
    },
    {
      "inputs": [
        {
          "internalType": "uint256",
          "name": "tokenId",
          "type": "uint256"
        }
      ],
      "name": "getMarketIdByToken",
      "outputs": [
        {
          "internalType": "uint256",
          "name": "",
          "type": "uint256"
        }
      ],
      "stateMutability": "view",
      "type": "function",
      "constant": true
    }
  ],
  "bytecode": "0x60806040526658d15e176280006007553480156200001c57600080fd5b50600160008190555062000045620000396200008c60201b60201c565b6200009460201b60201c565b33600660006101000a81548173ffffffffffffffffffffffffffffffffffffffff021916908373ffffffffffffffffffffffffffffffffffffffff1602179055506200015a565b600033905090565b6000600160009054906101000a900473ffffffffffffffffffffffffffffffffffffffff16905081600160006101000a81548173ffffffffffffffffffffffffffffffffffffffff021916908373ffffffffffffffffffffffffffffffffffffffff1602179055508173ffffffffffffffffffffffffffffffffffffffff168173ffffffffffffffffffffffffffffffffffffffff167f8be0079c531659141344cd1fd0a4f28419497f9722a3daafe3b4186f6b6457e060405160405180910390a35050565b6129d0806200016a6000396000f3fe6080604052600436106100dd5760003560e01c806375e0727f1161007f578063c23b139e11610059578063c23b139e146102b5578063e02ab4ae146102d1578063f064c32e146102fa578063f2fde38b14610325576100dd565b806375e0727f146102105780638afba5601461024d5780638da5cb5b1461028a576100dd565b8063202e3740116100bb578063202e37401461017557806358eb2df5146101a0578063673448dd146101bc578063715018a6146101f9576100dd565b806309852298146100e25780630f08efe01461011f57806312e855851461014a575b600080fd5b3480156100ee57600080fd5b5061010960048036038101906101049190611ea9565b61034e565b6040516101169190611ee5565b60405180910390f35b34801561012b57600080fd5b506101346103dd565b60405161014191906120de565b60405180910390f35b34801561015657600080fd5b5061015f6107c7565b60405161016c9190611ee5565b60405180910390f35b34801561018157600080fd5b5061018a6107d1565b60405161019791906120de565b60405180910390f35b6101ba60048036038101906101b5919061212c565b610bb9565b005b3480156101c857600080fd5b506101e360048036038101906101de919061217f565b610f49565b6040516101f091906121bb565b60405180910390f35b34801561020557600080fd5b5061020e610f9f565b005b34801561021c57600080fd5b50610237600480360381019061023291906121d6565b611027565b6040516102449190611ee5565b60405180910390f35b34801561025957600080fd5b50610274600480360381019061026f9190611ea9565b61135c565b60405161028191906121bb565b60405180910390f35b34801561029657600080fd5b5061029f611411565b6040516102ac9190612225565b60405180910390f35b6102cf60048036038101906102ca91906121d6565b61143b565b005b3480156102dd57600080fd5b506102f860048036038101906102f3919061226c565b6116ff565b005b34801561030657600080fd5b5061030f611811565b60405161031c91906120de565b60405180910390f35b34801561033157600080fd5b5061034c6004803603810190610347919061217f565b611bf9565b005b60008061035b6003611cf1565b905060005b818110156103d157836008600060018461037a91906122db565b81526020019081526020016000206002015414156103be57600860006001836103a391906122db565b815260200190815260200160002060000154925050506103d8565b80806103c990612331565b915050610360565b5060009150505b919050565b606060006103eb6003611cf1565b905060008060005b838110156104d457600073ffffffffffffffffffffffffffffffffffffffff166008600060018461042491906122db565b815260200190815260200160002060040160009054906101000a900473ffffffffffffffffffffffffffffffffffffffff1673ffffffffffffffffffffffffffffffffffffffff161480156104ac5750600015156008600060018461048991906122db565b815260200190815260200160002060060160019054906101000a900460ff161515145b156104c1576001836104be91906122db565b92505b80806104cc90612331565b9150506103f3565b5060008267ffffffffffffffff8111156104f1576104f061237a565b5b60405190808252806020026020018201604052801561052a57816020015b610517611de3565b81526020019060019003908161050f5790505b50905060005b848110156107bc57600073ffffffffffffffffffffffffffffffffffffffff166008600060018461056191906122db565b815260200190815260200160002060040160009054906101000a900473ffffffffffffffffffffffffffffffffffffffff1673ffffffffffffffffffffffffffffffffffffffff161480156105e9575060001515600860006001846105c691906122db565b815260200190815260200160002060060160019054906101000a900460ff161515145b156107a95760006001826105fd91906122db565b905060006008600083815260200190815260200160002090508060405180610100016040529081600082015481526020016001820160009054906101000a900473ffffffffffffffffffffffffffffffffffffffff1673ffffffffffffffffffffffffffffffffffffffff1673ffffffffffffffffffffffffffffffffffffffff168152602001600282015481526020016003820160009054906101000a900473ffffffffffffffffffffffffffffffffffffffff1673ffffffffffffffffffffffffffffffffffffffff1673ffffffffffffffffffffffffffffffffffffffff1681526020016004820160009054906101000a900473ffffffffffffffffffffffffffffffffffffffff1673ffffffffffffffffffffffffffffffffffffffff1673ffffffffffffffffffffffffffffffffffffffff168152602001600582015481526020016006820160009054906101000a900460ff161515151581526020016006820160019054906101000a900460ff16151515158152505084868151811061078c5761078b6123a9565b5b60200260200101819052506001856107a491906122db565b945050505b80806107b490612331565b915050610530565b508094505050505090565b6000600754905090565b606060006107df6003611cf1565b905060008060005b838110156108c7573373ffffffffffffffffffffffffffffffffffffffff166008600060018461081791906122db565b815260200190815260200160002060040160009054906101000a900473ffffffffffffffffffffffffffffffffffffffff1673ffffffffffffffffffffffffffffffffffffffff1614801561089f5750600015156008600060018461087c91906122db565b815260200190815260200160002060060160019054906101000a900460ff161515145b156108b4576001836108b191906122db565b92505b80806108bf90612331565b9150506107e7565b5060008267ffffffffffffffff8111156108e4576108e361237a565b5b60405190808252806020026020018201604052801561091d57816020015b61090a611de3565b8152602001906001900390816109025790505b50905060005b84811015610bae573373ffffffffffffffffffffffffffffffffffffffff166008600060018461095391906122db565b815260200190815260200160002060040160009054906101000a900473ffffffffffffffffffffffffffffffffffffffff1673ffffffffffffffffffffffffffffffffffffffff161480156109db575060001515600860006001846109b891906122db565b815260200190815260200160002060060160019054906101000a900460ff161515145b15610b9b5760006001826109ef91906122db565b905060006008600083815260200190815260200160002090508060405180610100016040529081600082015481526020016001820160009054906101000a900473ffffffffffffffffffffffffffffffffffffffff1673ffffffffffffffffffffffffffffffffffffffff1673ffffffffffffffffffffffffffffffffffffffff168152602001600282015481526020016003820160009054906101000a900473ffffffffffffffffffffffffffffffffffffffff1673ffffffffffffffffffffffffffffffffffffffff1673ffffffffffffffffffffffffffffffffffffffff1681526020016004820160009054906101000a900473ffffffffffffffffffffffffffffffffffffffff1673ffffffffffffffffffffffffffffffffffffffff1673ffffffffffffffffffffffffffffffffffffffff168152602001600582015481526020016006820160009054906101000a900460ff161515151581526020016006820160019054906101000a900460ff161515151581525050848681518110610b7e57610b7d6123a9565b5b6020026020010181905250600185610b9691906122db565b945050505b8080610ba690612331565b915050610923565b508094505050505090565b60026000541415610bff576040517f08c379a0000000000000000000000000000000000000000000000000000000008152600401610bf690612435565b60405180910390fd5b600260008190555060008111610c4a576040517f08c379a0000000000000000000000000000000000000000000000000000000008152600401610c41906124a1565b60405180910390fd5b6007543414610c8e576040517f08c379a0000000000000000000000000000000000000000000000000000000008152600401610c8590612533565b60405180910390fd5b610c986003611cff565b6000610ca46003611cf1565b90506040518061010001604052808281526020018573ffffffffffffffffffffffffffffffffffffffff1681526020018481526020013373ffffffffffffffffffffffffffffffffffffffff168152602001600073ffffffffffffffffffffffffffffffffffffffff16815260200183815260200160001515815260200160001515815250600860008381526020019081526020016000206000820151816000015560208201518160010160006101000a81548173ffffffffffffffffffffffffffffffffffffffff021916908373ffffffffffffffffffffffffffffffffffffffff1602179055506040820151816002015560608201518160030160006101000a81548173ffffffffffffffffffffffffffffffffffffffff021916908373ffffffffffffffffffffffffffffffffffffffff16021790555060808201518160040160006101000a81548173ffffffffffffffffffffffffffffffffffffffff021916908373ffffffffffffffffffffffffffffffffffffffff16021790555060a0820151816005015560c08201518160060160006101000a81548160ff02191690831515021790555060e08201518160060160016101000a81548160ff0219169083151502179055509050508373ffffffffffffffffffffffffffffffffffffffff166323b872dd3330866040518463ffffffff1660e01b8152600401610eaf93929190612553565b600060405180830381600087803b158015610ec957600080fd5b505af1158015610edd573d6000803e3d6000fd5b50505050828473ffffffffffffffffffffffffffffffffffffffff16827fc99151f4453170a67bc7441775fde1a3bc3220c06645df1121e703aab5e7da5d33600087600080604051610f3395949392919061258a565b60405180910390a4506001600081905550505050565b6000600260008373ffffffffffffffffffffffffffffffffffffffff1673ffffffffffffffffffffffffffffffffffffffff16815260200190815260200160002060009054906101000a900460ff169050919050565b610fa7611d15565b73ffffffffffffffffffffffffffffffffffffffff16610fc5611411565b73ffffffffffffffffffffffffffffffffffffffff161461101b576040517f08c379a000000000000000000000000000000000000000000000000000000000815260040161101290612629565b60405180910390fd5b6110256000611d1d565b565b60003373ffffffffffffffffffffffffffffffffffffffff166008600084815260200190815260200160002060040160009054906101000a900473ffffffffffffffffffffffffffffffffffffffff1673ffffffffffffffffffffffffffffffffffffffff1614806110a55750600115156110a133610f49565b1515145b6110e4576040517f08c379a00000000000000000000000000000000000000000000000000000000081526004016110db90612695565b60405180910390fd5b600115156008600084815260200190815260200160002060060160009054906101000a900460ff1615151461114e576040517f08c379a000000000000000000000000000000000000000000000000000000000815260040161114590612701565b60405180910390fd5b600015156008600084815260200190815260200160002060060160019054906101000a900460ff161515146111b8576040517f08c379a00000000000000000000000000000000000000000000000000000000081526004016111af9061276d565b60405180910390fd5b60016008600084815260200190815260200160002060060160016101000a81548160ff0219169083151502179055506111f16005611cff565b60086000838152602001908152602001600020600201548373ffffffffffffffffffffffffffffffffffffffff1660086000858152602001908152602001600020600001547f367c15bfb509fff72acb3fb4b63c99dc1dbc9f123079f5922043c3da3d4426ab6008600087815260200190815260200160002060030160009054906101000a900473ffffffffffffffffffffffffffffffffffffffff166008600088815260200190815260200160002060040160009054906101000a900473ffffffffffffffffffffffffffffffffffffffff166008600089815260200190815260200160002060050154600860008a815260200190815260200160002060060160009054906101000a900460ff16600860008b815260200190815260200160002060060160019054906101000a900460ff166040516113359594939291906127ec565b60405180910390a46008600083815260200190815260200160002060000154905092915050565b6000806113696003611cf1565b905060005b8181101561140557836008600060018461138891906122db565b81526020019081526020016000206002015414156113f25760001515600860006001846113b591906122db565b815260200190815260200160002060060160019054906101000a900460ff16151514156113e75760019250505061140c565b60009250505061140c565b80806113fd90612331565b91505061136e565b5060009150505b919050565b6000600160009054906101000a900473ffffffffffffffffffffffffffffffffffffffff16905090565b60026000541415611481576040517f08c379a000000000000000000000000000000000000000000000000000000000815260040161147890612435565b60405180910390fd5b6002600081905550600060086000838152602001908152602001600020600501549050600060086000848152602001908152602001600020600201549050813414611501576040517f08c379a00000000000000000000000000000000000000000000000000000000081526004016114f8906128b1565b60405180910390fd5b6008600084815260200190815260200160002060030160009054906101000a900473ffffffffffffffffffffffffffffffffffffffff1673ffffffffffffffffffffffffffffffffffffffff166108fc349081150290604051600060405180830381858888f1935050505015801561157d573d6000803e3d6000fd5b508373ffffffffffffffffffffffffffffffffffffffff166323b872dd3033846040518463ffffffff1660e01b81526004016115bb93929190612553565b600060405180830381600087803b1580156115d557600080fd5b505af11580156115e9573d6000803e3d6000fd5b50505050336008600085815260200190815260200160002060040160006101000a81548173ffffffffffffffffffffffffffffffffffffffff021916908373ffffffffffffffffffffffffffffffffffffffff16021790555060016008600085815260200190815260200160002060060160006101000a81548160ff02191690831515021790555061167b8484611027565b506116866004611cff565b600660009054906101000a900473ffffffffffffffffffffffffffffffffffffffff1673ffffffffffffffffffffffffffffffffffffffff166108fc6007549081150290604051600060405180830381858888f193505050501580156116f0573d6000803e3d6000fd5b50505060016000819055505050565b611707611d15565b73ffffffffffffffffffffffffffffffffffffffff16611725611411565b73ffffffffffffffffffffffffffffffffffffffff161461177b576040517f08c379a000000000000000000000000000000000000000000000000000000000815260040161177290612629565b60405180910390fd5b80600260008473ffffffffffffffffffffffffffffffffffffffff1673ffffffffffffffffffffffffffffffffffffffff16815260200190815260200160002060006101000a81548160ff0219169083151502179055507f941a2ca67f46c43d03aeb2c213a50c902f071ed217b87f264d0ddd03b582ff32338383604051611805939291906128d1565b60405180910390a15050565b6060600061181f6003611cf1565b905060008060005b83811015611907573373ffffffffffffffffffffffffffffffffffffffff166008600060018461185791906122db565b815260200190815260200160002060030160009054906101000a900473ffffffffffffffffffffffffffffffffffffffff1673ffffffffffffffffffffffffffffffffffffffff161480156118df575060001515600860006001846118bc91906122db565b815260200190815260200160002060060160019054906101000a900460ff161515145b156118f4576001836118f191906122db565b92505b80806118ff90612331565b915050611827565b5060008267ffffffffffffffff8111156119245761192361237a565b5b60405190808252806020026020018201604052801561195d57816020015b61194a611de3565b8152602001906001900390816119425790505b50905060005b84811015611bee573373ffffffffffffffffffffffffffffffffffffffff166008600060018461199391906122db565b815260200190815260200160002060030160009054906101000a900473ffffffffffffffffffffffffffffffffffffffff1673ffffffffffffffffffffffffffffffffffffffff16148015611a1b575060001515600860006001846119f891906122db565b815260200190815260200160002060060160019054906101000a900460ff161515145b15611bdb576000600182611a2f91906122db565b905060006008600083815260200190815260200160002090508060405180610100016040529081600082015481526020016001820160009054906101000a900473ffffffffffffffffffffffffffffffffffffffff1673ffffffffffffffffffffffffffffffffffffffff1673ffffffffffffffffffffffffffffffffffffffff168152602001600282015481526020016003820160009054906101000a900473ffffffffffffffffffffffffffffffffffffffff1673ffffffffffffffffffffffffffffffffffffffff1673ffffffffffffffffffffffffffffffffffffffff1681526020016004820160009054906101000a900473ffffffffffffffffffffffffffffffffffffffff1673ffffffffffffffffffffffffffffffffffffffff1673ffffffffffffffffffffffffffffffffffffffff168152602001600582015481526020016006820160009054906101000a900460ff161515151581526020016006820160019054906101000a900460ff161515151581525050848681518110611bbe57611bbd6123a9565b5b6020026020010181905250600185611bd691906122db565b945050505b8080611be690612331565b915050611963565b508094505050505090565b611c01611d15565b73ffffffffffffffffffffffffffffffffffffffff16611c1f611411565b73ffffffffffffffffffffffffffffffffffffffff1614611c75576040517f08c379a0000000000000000000000000000000000000000000000000000000008152600401611c6c90612629565b60405180910390fd5b600073ffffffffffffffffffffffffffffffffffffffff168173ffffffffffffffffffffffffffffffffffffffff161415611ce5576040517f08c379a0000000000000000000000000000000000000000000000000000000008152600401611cdc9061297a565b60405180910390fd5b611cee81611d1d565b50565b600081600001549050919050565b6001816000016000828254019250508190555050565b600033905090565b6000600160009054906101000a900473ffffffffffffffffffffffffffffffffffffffff16905081600160006101000a81548173ffffffffffffffffffffffffffffffffffffffff021916908373ffffffffffffffffffffffffffffffffffffffff1602179055508173ffffffffffffffffffffffffffffffffffffffff168173ffffffffffffffffffffffffffffffffffffffff167f8be0079c531659141344cd1fd0a4f28419497f9722a3daafe3b4186f6b6457e060405160405180910390a35050565b60405180610100016040528060008152602001600073ffffffffffffffffffffffffffffffffffffffff16815260200160008152602001600073ffffffffffffffffffffffffffffffffffffffff168152602001600073ffffffffffffffffffffffffffffffffffffffff168152602001600081526020016000151581526020016000151581525090565b600080fd5b6000819050919050565b611e8681611e73565b8114611e9157600080fd5b50565b600081359050611ea381611e7d565b92915050565b600060208284031215611ebf57611ebe611e6e565b5b6000611ecd84828501611e94565b91505092915050565b611edf81611e73565b82525050565b6000602082019050611efa6000830184611ed6565b92915050565b600081519050919050565b600082825260208201905092915050565b6000819050602082019050919050565b611f3581611e73565b82525050565b600073ffffffffffffffffffffffffffffffffffffffff82169050919050565b6000611f6682611f3b565b9050919050565b611f7681611f5b565b82525050565b6000611f8782611f3b565b9050919050565b611f9781611f7c565b82525050565b60008115159050919050565b611fb281611f9d565b82525050565b61010082016000820151611fcf6000850182611f2c565b506020820151611fe26020850182611f6d565b506040820151611ff56040850182611f2c565b5060608201516120086060850182611f8e565b50608082015161201b6080850182611f8e565b5060a082015161202e60a0850182611f2c565b5060c082015161204160c0850182611fa9565b5060e082015161205460e0850182611fa9565b50505050565b60006120668383611fb8565b6101008301905092915050565b6000602082019050919050565b600061208b82611f00565b6120958185611f0b565b93506120a083611f1c565b8060005b838110156120d15781516120b8888261205a565b97506120c383612073565b9250506001810190506120a4565b5085935050505092915050565b600060208201905081810360008301526120f88184612080565b905092915050565b61210981611f5b565b811461211457600080fd5b50565b60008135905061212681612100565b92915050565b60008060006060848603121561214557612144611e6e565b5b600061215386828701612117565b935050602061216486828701611e94565b925050604061217586828701611e94565b9150509250925092565b60006020828403121561219557612194611e6e565b5b60006121a384828501612117565b91505092915050565b6121b581611f9d565b82525050565b60006020820190506121d060008301846121ac565b92915050565b600080604083850312156121ed576121ec611e6e565b5b60006121fb85828601612117565b925050602061220c85828601611e94565b9150509250929050565b61221f81611f5b565b82525050565b600060208201905061223a6000830184612216565b92915050565b61224981611f9d565b811461225457600080fd5b50565b60008135905061226681612240565b92915050565b6000806040838503121561228357612282611e6e565b5b600061229185828601612117565b92505060206122a285828601612257565b9150509250929050565b7f4e487b7100000000000000000000000000000000000000000000000000000000600052601160045260246000fd5b60006122e682611e73565b91506122f183611e73565b9250827fffffffffffffffffffffffffffffffffffffffffffffffffffffffffffffffff03821115612326576123256122ac565b5b828201905092915050565b600061233c82611e73565b91507fffffffffffffffffffffffffffffffffffffffffffffffffffffffffffffffff82141561236f5761236e6122ac565b5b600182019050919050565b7f4e487b7100000000000000000000000000000000000000000000000000000000600052604160045260246000fd5b7f4e487b7100000000000000000000000000000000000000000000000000000000600052603260045260246000fd5b600082825260208201905092915050565b7f5265656e7472616e637947756172643a207265656e7472616e742063616c6c00600082015250565b600061241f601f836123d8565b915061242a826123e9565b602082019050919050565b6000602082019050818103600083015261244e81612412565b9050919050565b7f5072696365206d757374206265206174206c6561737420312077656900000000600082015250565b600061248b601c836123d8565b915061249682612455565b602082019050919050565b600060208201905081810360008301526124ba8161247e565b9050919050565b7f5072696365206d75737420626520657175616c20746f206c697374696e67207060008201527f7269636500000000000000000000000000000000000000000000000000000000602082015250565b600061251d6024836123d8565b9150612528826124c1565b604082019050919050565b6000602082019050818103600083015261254c81612510565b9050919050565b60006060820190506125686000830186612216565b6125756020830185612216565b6125826040830184611ed6565b949350505050565b600060a08201905061259f6000830188612216565b6125ac6020830187612216565b6125b96040830186611ed6565b6125c660608301856121ac565b6125d360808301846121ac565b9695505050505050565b7f4f776e61626c653a2063616c6c6572206973206e6f7420746865206f776e6572600082015250565b60006126136020836123d8565b915061261e826125dd565b602082019050919050565b6000602082019050818103600083015261264281612606565b9050919050565b7f54686973206974656d206973206e6f7420796f75722e00000000000000000000600082015250565b600061267f6016836123d8565b915061268a82612649565b602082019050919050565b600060208201905081810360008301526126ae81612672565b9050919050565b7f54686973206974656d206973206e6f7420736f6c642e00000000000000000000600082015250565b60006126eb6016836123d8565b91506126f6826126b5565b602082019050919050565b6000602082019050818103600083015261271a816126de565b9050919050565b7f54686973206974656d20697320616c72656164792064656c657465642e000000600082015250565b6000612757601d836123d8565b915061276282612721565b602082019050919050565b600060208201905081810360008301526127868161274a565b9050919050565b6000819050919050565b60006127b26127ad6127a884611f3b565b61278d565b611f3b565b9050919050565b60006127c482612797565b9050919050565b60006127d6826127b9565b9050919050565b6127e6816127cb565b82525050565b600060a08201905061280160008301886127dd565b61280e60208301876127dd565b61281b6040830186611ed6565b61282860608301856121ac565b61283560808301846121ac565b9695505050505050565b7f506c65617365207375626d6974207468652061736b696e67207072696365206960008201527f6e206f7264657220746f20636f6d706c65746520746865207075726368617365602082015250565b600061289b6040836123d8565b91506128a68261283f565b604082019050919050565b600060208201905081810360008301526128ca8161288e565b9050919050565b60006060820190506128e66000830186612216565b6128f36020830185612216565b61290060408301846121ac565b949350505050565b7f4f776e61626c653a206e6577206f776e657220697320746865207a65726f206160008201527f6464726573730000000000000000000000000000000000000000000000000000602082015250565b60006129646026836123d8565b915061296f82612908565b604082019050919050565b6000602082019050818103600083015261299381612957565b905091905056fea2646970667358221220df26726513eb34440f2fa6cad7cf63d2a666f99184ac281b76cfb94146d5e64164736f6c634300080a0033",
  "immutableReferences": {},
  "source": "// SPDX-License-Identifier: MIT OR Apache-2.0\npragma solidity ^0.8.3;\n\nimport \"@openzeppelin/contracts/utils/Counters.sol\";\nimport \"@openzeppelin/contracts/security/ReentrancyGuard.sol\";\nimport \"@openzeppelin/contracts/token/ERC721/ERC721.sol\";\n\nimport \"./Owner.sol\";\n\ncontract NFTMarket is ReentrancyGuard, Owner {\n    using Counters for Counters.Counter;\n    Counters.Counter private _itemIds;\n    Counters.Counter private _itemsSold;\n    Counters.Counter private _itemsDelete;\n\n    address payable ownerAddress;\n    uint256 listingPrice = 0.025 ether;\n\n    constructor() {\n        ownerAddress = payable(msg.sender);\n    }\n\n    struct MarketItem {\n        uint256 itemId;\n        address nftContract;\n        uint256 tokenId;\n        address payable seller;\n        address payable ownerAddress;\n        uint256 price;\n        bool sold;\n        bool isDelete;\n    }\n\n    mapping(uint256 => MarketItem) private idToMarketItem;\n\n    event MarketItemCreated(\n        uint256 indexed itemId,\n        address indexed nftContract,\n        uint256 indexed tokenId,\n        address seller,\n        address ownerAddress,\n        uint256 price,\n        bool sold,\n        bool isDelete\n    );\n\n    /* Returns the listing price of the contract */\n    function getListingPrice() public view returns (uint256) {\n        return listingPrice;\n    }\n\n    /* Places an item for sale on the marketplace */\n    function createMarketItem(\n        address nftContract,\n        uint256 tokenId,\n        uint256 price\n    ) public payable nonReentrant {\n        require(price > 0, \"Price must be at least 1 wei\");\n        require(\n            msg.value == listingPrice,\n            \"Price must be equal to listing price\"\n        );\n\n        _itemIds.increment();\n        uint256 itemId = _itemIds.current();\n\n        idToMarketItem[itemId] = MarketItem(\n            itemId,\n            nftContract,\n            tokenId,\n            payable(msg.sender),\n            payable(address(0)),\n            price,\n            false,\n            false\n        );\n\n        IERC721(nftContract).transferFrom(msg.sender, address(this), tokenId);\n\n        emit MarketItemCreated(\n            itemId,\n            nftContract,\n            tokenId,\n            msg.sender,\n            address(0),\n            price,\n            false,\n            false\n        );\n    }\n\n    /* Creates the sale of a marketplace item */\n    /* Transfers ownerAddressship of the item, as well as funds between parties */\n    function createMarketSale(address nftContract, uint256 itemId)\n        public\n        payable\n        nonReentrant\n    {\n        uint256 price = idToMarketItem[itemId].price;\n        uint256 tokenId = idToMarketItem[itemId].tokenId;\n        require(\n            msg.value == price,\n            \"Please submit the asking price in order to complete the purchase\"\n        );\n\n        idToMarketItem[itemId].seller.transfer(msg.value);\n        IERC721(nftContract).transferFrom(address(this), msg.sender, tokenId);\n        idToMarketItem[itemId].ownerAddress = payable(msg.sender);\n        idToMarketItem[itemId].sold = true;\n\n        deleteMarketItem(nftContract, itemId);\n\n        _itemsSold.increment();\n        payable(ownerAddress).transfer(listingPrice);\n    }\n\n    function fetchMarketItems() public view returns (MarketItem[] memory) {\n        uint256 totalItemCount = _itemIds.current();\n        uint256 itemCount = 0;\n        uint256 currentIndex = 0;\n\n        for (uint256 i = 0; i < totalItemCount; i++) {\n            if (\n                idToMarketItem[i + 1].ownerAddress == address(0) &&\n                idToMarketItem[i + 1].isDelete == false\n            ) {\n                itemCount += 1;\n            }\n        }\n\n        MarketItem[] memory items = new MarketItem[](itemCount);\n        for (uint256 i = 0; i < totalItemCount; i++) {\n            if (\n                idToMarketItem[i + 1].ownerAddress == address(0) &&\n                idToMarketItem[i + 1].isDelete == false\n            ) {\n                uint256 currentId = i + 1;\n                MarketItem storage currentItem = idToMarketItem[currentId];\n                items[currentIndex] = currentItem;\n                currentIndex += 1;\n            }\n        }\n        return items;\n    }\n\n    /* Returns onlyl items that a user has purchased */\n    function fetchMyNFTs() public view returns (MarketItem[] memory) {\n        uint256 totalItemCount = _itemIds.current();\n        uint256 itemCount = 0;\n        uint256 currentIndex = 0;\n\n        for (uint256 i = 0; i < totalItemCount; i++) {\n            if (\n                idToMarketItem[i + 1].ownerAddress == msg.sender &&\n                idToMarketItem[i + 1].isDelete == false\n            ) {\n                itemCount += 1;\n            }\n        }\n\n        MarketItem[] memory items = new MarketItem[](itemCount);\n        for (uint256 i = 0; i < totalItemCount; i++) {\n            if (\n                idToMarketItem[i + 1].ownerAddress == msg.sender &&\n                idToMarketItem[i + 1].isDelete == false\n            ) {\n                uint256 currentId = i + 1;\n                MarketItem storage currentItem = idToMarketItem[currentId];\n                items[currentIndex] = currentItem;\n                currentIndex += 1;\n            }\n        }\n        return items;\n    }\n\n    /* Returns only items a user has created */\n    function fetchItemsCreated() public view returns (MarketItem[] memory) {\n        uint256 totalItemCount = _itemIds.current();\n        uint256 itemCount = 0;\n        uint256 currentIndex = 0;\n\n        for (uint256 i = 0; i < totalItemCount; i++) {\n            if (\n                idToMarketItem[i + 1].seller == msg.sender &&\n                idToMarketItem[i + 1].isDelete == false\n            ) {\n                itemCount += 1;\n            }\n        }\n\n        MarketItem[] memory items = new MarketItem[](itemCount);\n        for (uint256 i = 0; i < totalItemCount; i++) {\n            if (\n                idToMarketItem[i + 1].seller == msg.sender &&\n                idToMarketItem[i + 1].isDelete == false\n            ) {\n                uint256 currentId = i + 1;\n                MarketItem storage currentItem = idToMarketItem[currentId];\n                items[currentIndex] = currentItem;\n                currentIndex += 1;\n            }\n        }\n        return items;\n    }\n\n    event DeleteMarketItem(\n        uint256 indexed itemId,\n        address indexed nftContract,\n        uint256 indexed tokenId,\n        address seller,\n        address ownerAddress,\n        uint256 price,\n        bool sold,\n        bool isDelete\n    );\n\n    function isMarketItem(uint256 tokenId) public view returns (bool) {\n        uint256 totalItemCount = _itemIds.current();\n\n        for (uint256 i = 0; i < totalItemCount; i++) {\n            if (idToMarketItem[i + 1].tokenId == tokenId) {\n                if (idToMarketItem[i + 1].isDelete == false) {\n                    return true;\n                } else {\n                    return false;\n                }\n            }\n        }\n        return false;\n    }\n\n    function deleteMarketItem(address nftContract, uint256 itemId)\n        public\n        returns (uint256)\n    {\n        require(\n            idToMarketItem[itemId].ownerAddress == msg.sender ||\n                isApproved(msg.sender) == true,\n            \"This item is not your.\"\n        );\n        require(idToMarketItem[itemId].sold == true, \"This item is not sold.\");\n        require(\n            idToMarketItem[itemId].isDelete == false,\n            \"This item is already deleted.\"\n        );\n\n        idToMarketItem[itemId].isDelete = true;\n\n        _itemsDelete.increment();\n        emit DeleteMarketItem(\n            idToMarketItem[itemId].itemId,\n            nftContract,\n            idToMarketItem[itemId].tokenId,\n            idToMarketItem[itemId].seller,\n            idToMarketItem[itemId].ownerAddress,\n            idToMarketItem[itemId].price,\n            idToMarketItem[itemId].sold,\n            idToMarketItem[itemId].isDelete\n        );\n\n        return idToMarketItem[itemId].itemId;\n    }\n\n    function getMarketIdByToken(uint256 tokenId) public view returns (uint256) {\n        uint256 totalItemCount = _itemIds.current();\n        for (uint256 i = 0; i < totalItemCount; i++) {\n            if (idToMarketItem[i + 1].tokenId == tokenId) {\n                return idToMarketItem[i + 1].itemId;\n            }\n        }\n        return 0;\n    }\n}\n",
  "sourcePath": "/Users/siamsae-chua/Documents/_project/blockChainPlayGround/nft-marketplace-server/contracts/NFTMarket.sol",
  "compiler": {
    "name": "solc",
    "version": "0.8.10+commit.fc410830.Emscripten.clang"
  },
  "schemaVersion": "3.4.4",
  "updatedAt": "2022-03-06T15:37:37.917Z",
  "networkType": "ethereum",
  "devdoc": {
    "kind": "dev",
    "methods": {
      "owner()": {
        "details": "Returns the address of the current owner."
      },
      "renounceOwnership()": {
        "details": "Leaves the contract without owner. It will not be possible to call `onlyOwner` functions anymore. Can only be called by the current owner. NOTE: Renouncing ownership will leave the contract without an owner, thereby removing any functionality that is only available to the owner."
      },
      "transferOwnership(address)": {
        "details": "Transfers ownership of the contract to a new account (`newOwner`). Can only be called by the current owner."
      }
    },
    "version": 1
  },
  "userdoc": {
    "kind": "user",
    "methods": {},
    "version": 1
  }
}