{
  "contractName": "NFTMarket",
  "abi": [
    {
      "inputs": [],
      "stateMutability": "nonpayable",
      "type": "constructor"
    },
    {
      "anonymous": false,
      "inputs": [
        {
          "indexed": true,
          "internalType": "uint256",
          "name": "itemId",
          "type": "uint256"
        },
        {
          "indexed": true,
          "internalType": "address",
          "name": "nftContract",
          "type": "address"
        },
        {
          "indexed": true,
          "internalType": "uint256",
          "name": "tokenId",
          "type": "uint256"
        },
        {
          "indexed": false,
          "internalType": "address",
          "name": "seller",
          "type": "address"
        },
        {
          "indexed": false,
          "internalType": "address",
          "name": "ownerAddress",
          "type": "address"
        },
        {
          "indexed": false,
          "internalType": "uint256",
          "name": "price",
          "type": "uint256"
        },
        {
          "indexed": false,
          "internalType": "bool",
          "name": "sold",
          "type": "bool"
        },
        {
          "indexed": false,
          "internalType": "bool",
          "name": "isDelete",
          "type": "bool"
        }
      ],
      "name": "DeleteMarketItem",
      "type": "event"
    },
    {
      "anonymous": false,
      "inputs": [
        {
          "indexed": true,
          "internalType": "uint256",
          "name": "itemId",
          "type": "uint256"
        },
        {
          "indexed": true,
          "internalType": "address",
          "name": "nftContract",
          "type": "address"
        },
        {
          "indexed": true,
          "internalType": "uint256",
          "name": "tokenId",
          "type": "uint256"
        },
        {
          "indexed": false,
          "internalType": "address",
          "name": "seller",
          "type": "address"
        },
        {
          "indexed": false,
          "internalType": "address",
          "name": "ownerAddress",
          "type": "address"
        },
        {
          "indexed": false,
          "internalType": "uint256",
          "name": "price",
          "type": "uint256"
        },
        {
          "indexed": false,
          "internalType": "bool",
          "name": "sold",
          "type": "bool"
        },
        {
          "indexed": false,
          "internalType": "bool",
          "name": "isDelete",
          "type": "bool"
        }
      ],
      "name": "MarketItemCreated",
      "type": "event"
    },
    {
      "anonymous": false,
      "inputs": [
        {
          "indexed": true,
          "internalType": "address",
          "name": "previousOwner",
          "type": "address"
        },
        {
          "indexed": true,
          "internalType": "address",
          "name": "newOwner",
          "type": "address"
        }
      ],
      "name": "OwnershipTransferred",
      "type": "event"
    },
    {
      "anonymous": false,
      "inputs": [
        {
          "indexed": false,
          "internalType": "address",
          "name": "sender",
          "type": "address"
        },
        {
          "indexed": false,
          "internalType": "address",
          "name": "contractAddress",
          "type": "address"
        },
        {
          "indexed": false,
          "internalType": "bool",
          "name": "approved",
          "type": "bool"
        }
      ],
      "name": "UpdateApprovals",
      "type": "event"
    },
    {
      "inputs": [
        {
          "internalType": "address",
          "name": "contractAddress",
          "type": "address"
        }
      ],
      "name": "isApproved",
      "outputs": [
        {
          "internalType": "bool",
          "name": "",
          "type": "bool"
        }
      ],
      "stateMutability": "view",
      "type": "function",
      "constant": true
    },
    {
      "inputs": [],
      "name": "owner",
      "outputs": [
        {
          "internalType": "address",
          "name": "",
          "type": "address"
        }
      ],
      "stateMutability": "view",
      "type": "function",
      "constant": true
    },
    {
      "inputs": [],
      "name": "renounceOwnership",
      "outputs": [],
      "stateMutability": "nonpayable",
      "type": "function"
    },
    {
      "inputs": [
        {
          "internalType": "address",
          "name": "newOwner",
          "type": "address"
        }
      ],
      "name": "transferOwnership",
      "outputs": [],
      "stateMutability": "nonpayable",
      "type": "function"
    },
    {
      "inputs": [
        {
          "internalType": "address",
          "name": "contractAddress",
          "type": "address"
        },
        {
          "internalType": "bool",
          "name": "approved",
          "type": "bool"
        }
      ],
      "name": "updateApprovals",
      "outputs": [],
      "stateMutability": "nonpayable",
      "type": "function"
    },
    {
      "inputs": [],
      "name": "getListingPrice",
      "outputs": [
        {
          "internalType": "uint256",
          "name": "",
          "type": "uint256"
        }
      ],
      "stateMutability": "view",
      "type": "function",
      "constant": true
    },
    {
      "inputs": [
        {
          "internalType": "address",
          "name": "nftContract",
          "type": "address"
        },
        {
          "internalType": "uint256",
          "name": "tokenId",
          "type": "uint256"
        },
        {
          "internalType": "uint256",
          "name": "price",
          "type": "uint256"
        }
      ],
      "name": "createMarketItem",
      "outputs": [],
      "stateMutability": "payable",
      "type": "function",
      "payable": true
    },
    {
      "inputs": [
        {
          "internalType": "address",
          "name": "nftContract",
          "type": "address"
        },
        {
          "internalType": "uint256",
          "name": "itemId",
          "type": "uint256"
        }
      ],
      "name": "createMarketSale",
      "outputs": [],
      "stateMutability": "payable",
      "type": "function",
      "payable": true
    },
    {
      "inputs": [],
      "name": "fetchMarketItems",
      "outputs": [
        {
          "components": [
            {
              "internalType": "uint256",
              "name": "itemId",
              "type": "uint256"
            },
            {
              "internalType": "address",
              "name": "nftContract",
              "type": "address"
            },
            {
              "internalType": "uint256",
              "name": "tokenId",
              "type": "uint256"
            },
            {
              "internalType": "address payable",
              "name": "seller",
              "type": "address"
            },
            {
              "internalType": "address payable",
              "name": "ownerAddress",
              "type": "address"
            },
            {
              "internalType": "uint256",
              "name": "price",
              "type": "uint256"
            },
            {
              "internalType": "bool",
              "name": "sold",
              "type": "bool"
            },
            {
              "internalType": "bool",
              "name": "isDelete",
              "type": "bool"
            }
          ],
          "internalType": "struct NFTMarket.MarketItem[]",
          "name": "",
          "type": "tuple[]"
        }
      ],
      "stateMutability": "view",
      "type": "function",
      "constant": true
    },
    {
      "inputs": [],
      "name": "fetchMyNFTs",
      "outputs": [
        {
          "components": [
            {
              "internalType": "uint256",
              "name": "itemId",
              "type": "uint256"
            },
            {
              "internalType": "address",
              "name": "nftContract",
              "type": "address"
            },
            {
              "internalType": "uint256",
              "name": "tokenId",
              "type": "uint256"
            },
            {
              "internalType": "address payable",
              "name": "seller",
              "type": "address"
            },
            {
              "internalType": "address payable",
              "name": "ownerAddress",
              "type": "address"
            },
            {
              "internalType": "uint256",
              "name": "price",
              "type": "uint256"
            },
            {
              "internalType": "bool",
              "name": "sold",
              "type": "bool"
            },
            {
              "internalType": "bool",
              "name": "isDelete",
              "type": "bool"
            }
          ],
          "internalType": "struct NFTMarket.MarketItem[]",
          "name": "",
          "type": "tuple[]"
        }
      ],
      "stateMutability": "view",
      "type": "function",
      "constant": true
    },
    {
      "inputs": [],
      "name": "fetchItemsCreated",
      "outputs": [
        {
          "components": [
            {
              "internalType": "uint256",
              "name": "itemId",
              "type": "uint256"
            },
            {
              "internalType": "address",
              "name": "nftContract",
              "type": "address"
            },
            {
              "internalType": "uint256",
              "name": "tokenId",
              "type": "uint256"
            },
            {
              "internalType": "address payable",
              "name": "seller",
              "type": "address"
            },
            {
              "internalType": "address payable",
              "name": "ownerAddress",
              "type": "address"
            },
            {
              "internalType": "uint256",
              "name": "price",
              "type": "uint256"
            },
            {
              "internalType": "bool",
              "name": "sold",
              "type": "bool"
            },
            {
              "internalType": "bool",
              "name": "isDelete",
              "type": "bool"
            }
          ],
          "internalType": "struct NFTMarket.MarketItem[]",
          "name": "",
          "type": "tuple[]"
        }
      ],
      "stateMutability": "view",
      "type": "function",
      "constant": true
    },
    {
      "inputs": [
        {
          "internalType": "address",
          "name": "nftContract",
          "type": "address"
        },
        {
          "internalType": "uint256",
          "name": "itemId",
          "type": "uint256"
        }
      ],
      "name": "deleteMarketItem",
      "outputs": [
        {
          "internalType": "uint256",
          "name": "",
          "type": "uint256"
        }
      ],
      "stateMutability": "nonpayable",
      "type": "function"
    },
    {
      "inputs": [
        {
          "internalType": "uint256",
          "name": "tokenId",
          "type": "uint256"
        }
      ],
      "name": "getMarketIdByToken",
      "outputs": [
        {
          "internalType": "uint256",
          "name": "",
          "type": "uint256"
        }
      ],
      "stateMutability": "view",
      "type": "function",
      "constant": true
    }
  ],
  "bytecode": "0x60806040526658d15e176280006007553480156200001c57600080fd5b50600160008190555062000045620000396200008c60201b60201c565b6200009460201b60201c565b33600660006101000a81548173ffffffffffffffffffffffffffffffffffffffff021916908373ffffffffffffffffffffffffffffffffffffffff1602179055506200015a565b600033905090565b6000600160009054906101000a900473ffffffffffffffffffffffffffffffffffffffff16905081600160006101000a81548173ffffffffffffffffffffffffffffffffffffffff021916908373ffffffffffffffffffffffffffffffffffffffff1602179055508173ffffffffffffffffffffffffffffffffffffffff168173ffffffffffffffffffffffffffffffffffffffff167f8be0079c531659141344cd1fd0a4f28419497f9722a3daafe3b4186f6b6457e060405160405180910390a35050565b6128b8806200016a6000396000f3fe6080604052600436106100c25760003560e01c8063715018a61161007f578063c23b139e11610059578063c23b139e1461025d578063e02ab4ae14610279578063f064c32e146102a2578063f2fde38b146102cd576100c2565b8063715018a6146101de57806375e0727f146101f55780638da5cb5b14610232576100c2565b806309852298146100c75780630f08efe01461010457806312e855851461012f578063202e37401461015a57806358eb2df514610185578063673448dd146101a1575b600080fd5b3480156100d357600080fd5b506100ee60048036038101906100e99190611d91565b6102f6565b6040516100fb9190611dcd565b60405180910390f35b34801561011057600080fd5b50610119610385565b6040516101269190611fc6565b60405180910390f35b34801561013b57600080fd5b5061014461076f565b6040516101519190611dcd565b60405180910390f35b34801561016657600080fd5b5061016f610779565b60405161017c9190611fc6565b60405180910390f35b61019f600480360381019061019a9190612014565b610b61565b005b3480156101ad57600080fd5b506101c860048036038101906101c39190612067565b610ef1565b6040516101d591906120a3565b60405180910390f35b3480156101ea57600080fd5b506101f3610f47565b005b34801561020157600080fd5b5061021c600480360381019061021791906120be565b610fcf565b6040516102299190611dcd565b60405180910390f35b34801561023e57600080fd5b50610247611304565b604051610254919061210d565b60405180910390f35b610277600480360381019061027291906120be565b61132e565b005b34801561028557600080fd5b506102a0600480360381019061029b9190612154565b6115e7565b005b3480156102ae57600080fd5b506102b76116f9565b6040516102c49190611fc6565b60405180910390f35b3480156102d957600080fd5b506102f460048036038101906102ef9190612067565b611ae1565b005b6000806103036003611bd9565b905060005b8181101561037957836008600060018461032291906121c3565b8152602001908152602001600020600201541415610366576008600060018361034b91906121c3565b81526020019081526020016000206000015492505050610380565b808061037190612219565b915050610308565b5060009150505b919050565b606060006103936003611bd9565b905060008060005b8381101561047c57600073ffffffffffffffffffffffffffffffffffffffff16600860006001846103cc91906121c3565b815260200190815260200160002060040160009054906101000a900473ffffffffffffffffffffffffffffffffffffffff1673ffffffffffffffffffffffffffffffffffffffff161480156104545750600015156008600060018461043191906121c3565b815260200190815260200160002060060160019054906101000a900460ff161515145b156104695760018361046691906121c3565b92505b808061047490612219565b91505061039b565b5060008267ffffffffffffffff81111561049957610498612262565b5b6040519080825280602002602001820160405280156104d257816020015b6104bf611ccb565b8152602001906001900390816104b75790505b50905060005b8481101561076457600073ffffffffffffffffffffffffffffffffffffffff166008600060018461050991906121c3565b815260200190815260200160002060040160009054906101000a900473ffffffffffffffffffffffffffffffffffffffff1673ffffffffffffffffffffffffffffffffffffffff161480156105915750600015156008600060018461056e91906121c3565b815260200190815260200160002060060160019054906101000a900460ff161515145b156107515760006001826105a591906121c3565b905060006008600083815260200190815260200160002090508060405180610100016040529081600082015481526020016001820160009054906101000a900473ffffffffffffffffffffffffffffffffffffffff1673ffffffffffffffffffffffffffffffffffffffff1673ffffffffffffffffffffffffffffffffffffffff168152602001600282015481526020016003820160009054906101000a900473ffffffffffffffffffffffffffffffffffffffff1673ffffffffffffffffffffffffffffffffffffffff1673ffffffffffffffffffffffffffffffffffffffff1681526020016004820160009054906101000a900473ffffffffffffffffffffffffffffffffffffffff1673ffffffffffffffffffffffffffffffffffffffff1673ffffffffffffffffffffffffffffffffffffffff168152602001600582015481526020016006820160009054906101000a900460ff161515151581526020016006820160019054906101000a900460ff16151515158152505084868151811061073457610733612291565b5b602002602001018190525060018561074c91906121c3565b945050505b808061075c90612219565b9150506104d8565b508094505050505090565b6000600754905090565b606060006107876003611bd9565b905060008060005b8381101561086f573373ffffffffffffffffffffffffffffffffffffffff16600860006001846107bf91906121c3565b815260200190815260200160002060040160009054906101000a900473ffffffffffffffffffffffffffffffffffffffff1673ffffffffffffffffffffffffffffffffffffffff161480156108475750600015156008600060018461082491906121c3565b815260200190815260200160002060060160019054906101000a900460ff161515145b1561085c5760018361085991906121c3565b92505b808061086790612219565b91505061078f565b5060008267ffffffffffffffff81111561088c5761088b612262565b5b6040519080825280602002602001820160405280156108c557816020015b6108b2611ccb565b8152602001906001900390816108aa5790505b50905060005b84811015610b56573373ffffffffffffffffffffffffffffffffffffffff16600860006001846108fb91906121c3565b815260200190815260200160002060040160009054906101000a900473ffffffffffffffffffffffffffffffffffffffff1673ffffffffffffffffffffffffffffffffffffffff161480156109835750600015156008600060018461096091906121c3565b815260200190815260200160002060060160019054906101000a900460ff161515145b15610b4357600060018261099791906121c3565b905060006008600083815260200190815260200160002090508060405180610100016040529081600082015481526020016001820160009054906101000a900473ffffffffffffffffffffffffffffffffffffffff1673ffffffffffffffffffffffffffffffffffffffff1673ffffffffffffffffffffffffffffffffffffffff168152602001600282015481526020016003820160009054906101000a900473ffffffffffffffffffffffffffffffffffffffff1673ffffffffffffffffffffffffffffffffffffffff1673ffffffffffffffffffffffffffffffffffffffff1681526020016004820160009054906101000a900473ffffffffffffffffffffffffffffffffffffffff1673ffffffffffffffffffffffffffffffffffffffff1673ffffffffffffffffffffffffffffffffffffffff168152602001600582015481526020016006820160009054906101000a900460ff161515151581526020016006820160019054906101000a900460ff161515151581525050848681518110610b2657610b25612291565b5b6020026020010181905250600185610b3e91906121c3565b945050505b8080610b4e90612219565b9150506108cb565b508094505050505090565b60026000541415610ba7576040517f08c379a0000000000000000000000000000000000000000000000000000000008152600401610b9e9061231d565b60405180910390fd5b600260008190555060008111610bf2576040517f08c379a0000000000000000000000000000000000000000000000000000000008152600401610be990612389565b60405180910390fd5b6007543414610c36576040517f08c379a0000000000000000000000000000000000000000000000000000000008152600401610c2d9061241b565b60405180910390fd5b610c406003611be7565b6000610c4c6003611bd9565b90506040518061010001604052808281526020018573ffffffffffffffffffffffffffffffffffffffff1681526020018481526020013373ffffffffffffffffffffffffffffffffffffffff168152602001600073ffffffffffffffffffffffffffffffffffffffff16815260200183815260200160001515815260200160001515815250600860008381526020019081526020016000206000820151816000015560208201518160010160006101000a81548173ffffffffffffffffffffffffffffffffffffffff021916908373ffffffffffffffffffffffffffffffffffffffff1602179055506040820151816002015560608201518160030160006101000a81548173ffffffffffffffffffffffffffffffffffffffff021916908373ffffffffffffffffffffffffffffffffffffffff16021790555060808201518160040160006101000a81548173ffffffffffffffffffffffffffffffffffffffff021916908373ffffffffffffffffffffffffffffffffffffffff16021790555060a0820151816005015560c08201518160060160006101000a81548160ff02191690831515021790555060e08201518160060160016101000a81548160ff0219169083151502179055509050508373ffffffffffffffffffffffffffffffffffffffff166323b872dd3330866040518463ffffffff1660e01b8152600401610e579392919061243b565b600060405180830381600087803b158015610e7157600080fd5b505af1158015610e85573d6000803e3d6000fd5b50505050828473ffffffffffffffffffffffffffffffffffffffff16827fc99151f4453170a67bc7441775fde1a3bc3220c06645df1121e703aab5e7da5d33600087600080604051610edb959493929190612472565b60405180910390a4506001600081905550505050565b6000600260008373ffffffffffffffffffffffffffffffffffffffff1673ffffffffffffffffffffffffffffffffffffffff16815260200190815260200160002060009054906101000a900460ff169050919050565b610f4f611bfd565b73ffffffffffffffffffffffffffffffffffffffff16610f6d611304565b73ffffffffffffffffffffffffffffffffffffffff1614610fc3576040517f08c379a0000000000000000000000000000000000000000000000000000000008152600401610fba90612511565b60405180910390fd5b610fcd6000611c05565b565b60003373ffffffffffffffffffffffffffffffffffffffff166008600084815260200190815260200160002060040160009054906101000a900473ffffffffffffffffffffffffffffffffffffffff1673ffffffffffffffffffffffffffffffffffffffff16148061104d57506001151561104933610ef1565b1515145b61108c576040517f08c379a00000000000000000000000000000000000000000000000000000000081526004016110839061257d565b60405180910390fd5b600115156008600084815260200190815260200160002060060160009054906101000a900460ff161515146110f6576040517f08c379a00000000000000000000000000000000000000000000000000000000081526004016110ed906125e9565b60405180910390fd5b600015156008600084815260200190815260200160002060060160019054906101000a900460ff16151514611160576040517f08c379a000000000000000000000000000000000000000000000000000000000815260040161115790612655565b60405180910390fd5b60016008600084815260200190815260200160002060060160016101000a81548160ff0219169083151502179055506111996005611be7565b60086000838152602001908152602001600020600201548373ffffffffffffffffffffffffffffffffffffffff1660086000858152602001908152602001600020600001547f367c15bfb509fff72acb3fb4b63c99dc1dbc9f123079f5922043c3da3d4426ab6008600087815260200190815260200160002060030160009054906101000a900473ffffffffffffffffffffffffffffffffffffffff166008600088815260200190815260200160002060040160009054906101000a900473ffffffffffffffffffffffffffffffffffffffff166008600089815260200190815260200160002060050154600860008a815260200190815260200160002060060160009054906101000a900460ff16600860008b815260200190815260200160002060060160019054906101000a900460ff166040516112dd9594939291906126d4565b60405180910390a46008600083815260200190815260200160002060000154905092915050565b6000600160009054906101000a900473ffffffffffffffffffffffffffffffffffffffff16905090565b60026000541415611374576040517f08c379a000000000000000000000000000000000000000000000000000000000815260040161136b9061231d565b60405180910390fd5b60026000819055506000600860008381526020019081526020016000206005015490506000600860008481526020019081526020016000206002015490508134146113f4576040517f08c379a00000000000000000000000000000000000000000000000000000000081526004016113eb90612799565b60405180910390fd5b6008600084815260200190815260200160002060030160009054906101000a900473ffffffffffffffffffffffffffffffffffffffff1673ffffffffffffffffffffffffffffffffffffffff166108fc349081150290604051600060405180830381858888f19350505050158015611470573d6000803e3d6000fd5b508373ffffffffffffffffffffffffffffffffffffffff166323b872dd3033846040518463ffffffff1660e01b81526004016114ae9392919061243b565b600060405180830381600087803b1580156114c857600080fd5b505af11580156114dc573d6000803e3d6000fd5b50505050336008600085815260200190815260200160002060040160006101000a81548173ffffffffffffffffffffffffffffffffffffffff021916908373ffffffffffffffffffffffffffffffffffffffff16021790555060016008600085815260200190815260200160002060060160006101000a81548160ff02191690831515021790555061156e6004611be7565b600660009054906101000a900473ffffffffffffffffffffffffffffffffffffffff1673ffffffffffffffffffffffffffffffffffffffff166108fc6007549081150290604051600060405180830381858888f193505050501580156115d8573d6000803e3d6000fd5b50505060016000819055505050565b6115ef611bfd565b73ffffffffffffffffffffffffffffffffffffffff1661160d611304565b73ffffffffffffffffffffffffffffffffffffffff1614611663576040517f08c379a000000000000000000000000000000000000000000000000000000000815260040161165a90612511565b60405180910390fd5b80600260008473ffffffffffffffffffffffffffffffffffffffff1673ffffffffffffffffffffffffffffffffffffffff16815260200190815260200160002060006101000a81548160ff0219169083151502179055507f941a2ca67f46c43d03aeb2c213a50c902f071ed217b87f264d0ddd03b582ff323383836040516116ed939291906127b9565b60405180910390a15050565b606060006117076003611bd9565b905060008060005b838110156117ef573373ffffffffffffffffffffffffffffffffffffffff166008600060018461173f91906121c3565b815260200190815260200160002060030160009054906101000a900473ffffffffffffffffffffffffffffffffffffffff1673ffffffffffffffffffffffffffffffffffffffff161480156117c7575060001515600860006001846117a491906121c3565b815260200190815260200160002060060160019054906101000a900460ff161515145b156117dc576001836117d991906121c3565b92505b80806117e790612219565b91505061170f565b5060008267ffffffffffffffff81111561180c5761180b612262565b5b60405190808252806020026020018201604052801561184557816020015b611832611ccb565b81526020019060019003908161182a5790505b50905060005b84811015611ad6573373ffffffffffffffffffffffffffffffffffffffff166008600060018461187b91906121c3565b815260200190815260200160002060030160009054906101000a900473ffffffffffffffffffffffffffffffffffffffff1673ffffffffffffffffffffffffffffffffffffffff16148015611903575060001515600860006001846118e091906121c3565b815260200190815260200160002060060160019054906101000a900460ff161515145b15611ac357600060018261191791906121c3565b905060006008600083815260200190815260200160002090508060405180610100016040529081600082015481526020016001820160009054906101000a900473ffffffffffffffffffffffffffffffffffffffff1673ffffffffffffffffffffffffffffffffffffffff1673ffffffffffffffffffffffffffffffffffffffff168152602001600282015481526020016003820160009054906101000a900473ffffffffffffffffffffffffffffffffffffffff1673ffffffffffffffffffffffffffffffffffffffff1673ffffffffffffffffffffffffffffffffffffffff1681526020016004820160009054906101000a900473ffffffffffffffffffffffffffffffffffffffff1673ffffffffffffffffffffffffffffffffffffffff1673ffffffffffffffffffffffffffffffffffffffff168152602001600582015481526020016006820160009054906101000a900460ff161515151581526020016006820160019054906101000a900460ff161515151581525050848681518110611aa657611aa5612291565b5b6020026020010181905250600185611abe91906121c3565b945050505b8080611ace90612219565b91505061184b565b508094505050505090565b611ae9611bfd565b73ffffffffffffffffffffffffffffffffffffffff16611b07611304565b73ffffffffffffffffffffffffffffffffffffffff1614611b5d576040517f08c379a0000000000000000000000000000000000000000000000000000000008152600401611b5490612511565b60405180910390fd5b600073ffffffffffffffffffffffffffffffffffffffff168173ffffffffffffffffffffffffffffffffffffffff161415611bcd576040517f08c379a0000000000000000000000000000000000000000000000000000000008152600401611bc490612862565b60405180910390fd5b611bd681611c05565b50565b600081600001549050919050565b6001816000016000828254019250508190555050565b600033905090565b6000600160009054906101000a900473ffffffffffffffffffffffffffffffffffffffff16905081600160006101000a81548173ffffffffffffffffffffffffffffffffffffffff021916908373ffffffffffffffffffffffffffffffffffffffff1602179055508173ffffffffffffffffffffffffffffffffffffffff168173ffffffffffffffffffffffffffffffffffffffff167f8be0079c531659141344cd1fd0a4f28419497f9722a3daafe3b4186f6b6457e060405160405180910390a35050565b60405180610100016040528060008152602001600073ffffffffffffffffffffffffffffffffffffffff16815260200160008152602001600073ffffffffffffffffffffffffffffffffffffffff168152602001600073ffffffffffffffffffffffffffffffffffffffff168152602001600081526020016000151581526020016000151581525090565b600080fd5b6000819050919050565b611d6e81611d5b565b8114611d7957600080fd5b50565b600081359050611d8b81611d65565b92915050565b600060208284031215611da757611da6611d56565b5b6000611db584828501611d7c565b91505092915050565b611dc781611d5b565b82525050565b6000602082019050611de26000830184611dbe565b92915050565b600081519050919050565b600082825260208201905092915050565b6000819050602082019050919050565b611e1d81611d5b565b82525050565b600073ffffffffffffffffffffffffffffffffffffffff82169050919050565b6000611e4e82611e23565b9050919050565b611e5e81611e43565b82525050565b6000611e6f82611e23565b9050919050565b611e7f81611e64565b82525050565b60008115159050919050565b611e9a81611e85565b82525050565b61010082016000820151611eb76000850182611e14565b506020820151611eca6020850182611e55565b506040820151611edd6040850182611e14565b506060820151611ef06060850182611e76565b506080820151611f036080850182611e76565b5060a0820151611f1660a0850182611e14565b5060c0820151611f2960c0850182611e91565b5060e0820151611f3c60e0850182611e91565b50505050565b6000611f4e8383611ea0565b6101008301905092915050565b6000602082019050919050565b6000611f7382611de8565b611f7d8185611df3565b9350611f8883611e04565b8060005b83811015611fb9578151611fa08882611f42565b9750611fab83611f5b565b925050600181019050611f8c565b5085935050505092915050565b60006020820190508181036000830152611fe08184611f68565b905092915050565b611ff181611e43565b8114611ffc57600080fd5b50565b60008135905061200e81611fe8565b92915050565b60008060006060848603121561202d5761202c611d56565b5b600061203b86828701611fff565b935050602061204c86828701611d7c565b925050604061205d86828701611d7c565b9150509250925092565b60006020828403121561207d5761207c611d56565b5b600061208b84828501611fff565b91505092915050565b61209d81611e85565b82525050565b60006020820190506120b86000830184612094565b92915050565b600080604083850312156120d5576120d4611d56565b5b60006120e385828601611fff565b92505060206120f485828601611d7c565b9150509250929050565b61210781611e43565b82525050565b600060208201905061212260008301846120fe565b92915050565b61213181611e85565b811461213c57600080fd5b50565b60008135905061214e81612128565b92915050565b6000806040838503121561216b5761216a611d56565b5b600061217985828601611fff565b925050602061218a8582860161213f565b9150509250929050565b7f4e487b7100000000000000000000000000000000000000000000000000000000600052601160045260246000fd5b60006121ce82611d5b565b91506121d983611d5b565b9250827fffffffffffffffffffffffffffffffffffffffffffffffffffffffffffffffff0382111561220e5761220d612194565b5b828201905092915050565b600061222482611d5b565b91507fffffffffffffffffffffffffffffffffffffffffffffffffffffffffffffffff82141561225757612256612194565b5b600182019050919050565b7f4e487b7100000000000000000000000000000000000000000000000000000000600052604160045260246000fd5b7f4e487b7100000000000000000000000000000000000000000000000000000000600052603260045260246000fd5b600082825260208201905092915050565b7f5265656e7472616e637947756172643a207265656e7472616e742063616c6c00600082015250565b6000612307601f836122c0565b9150612312826122d1565b602082019050919050565b60006020820190508181036000830152612336816122fa565b9050919050565b7f5072696365206d757374206265206174206c6561737420312077656900000000600082015250565b6000612373601c836122c0565b915061237e8261233d565b602082019050919050565b600060208201905081810360008301526123a281612366565b9050919050565b7f5072696365206d75737420626520657175616c20746f206c697374696e67207060008201527f7269636500000000000000000000000000000000000000000000000000000000602082015250565b60006124056024836122c0565b9150612410826123a9565b604082019050919050565b60006020820190508181036000830152612434816123f8565b9050919050565b600060608201905061245060008301866120fe565b61245d60208301856120fe565b61246a6040830184611dbe565b949350505050565b600060a08201905061248760008301886120fe565b61249460208301876120fe565b6124a16040830186611dbe565b6124ae6060830185612094565b6124bb6080830184612094565b9695505050505050565b7f4f776e61626c653a2063616c6c6572206973206e6f7420746865206f776e6572600082015250565b60006124fb6020836122c0565b9150612506826124c5565b602082019050919050565b6000602082019050818103600083015261252a816124ee565b9050919050565b7f54686973206974656d206973206e6f7420796f75722e00000000000000000000600082015250565b60006125676016836122c0565b915061257282612531565b602082019050919050565b600060208201905081810360008301526125968161255a565b9050919050565b7f54686973206974656d206973206e6f7420736f6c642e00000000000000000000600082015250565b60006125d36016836122c0565b91506125de8261259d565b602082019050919050565b60006020820190508181036000830152612602816125c6565b9050919050565b7f54686973206974656d20697320616c72656164792064656c657465642e000000600082015250565b600061263f601d836122c0565b915061264a82612609565b602082019050919050565b6000602082019050818103600083015261266e81612632565b9050919050565b6000819050919050565b600061269a61269561269084611e23565b612675565b611e23565b9050919050565b60006126ac8261267f565b9050919050565b60006126be826126a1565b9050919050565b6126ce816126b3565b82525050565b600060a0820190506126e960008301886126c5565b6126f660208301876126c5565b6127036040830186611dbe565b6127106060830185612094565b61271d6080830184612094565b9695505050505050565b7f506c65617365207375626d6974207468652061736b696e67207072696365206960008201527f6e206f7264657220746f20636f6d706c65746520746865207075726368617365602082015250565b60006127836040836122c0565b915061278e82612727565b604082019050919050565b600060208201905081810360008301526127b281612776565b9050919050565b60006060820190506127ce60008301866120fe565b6127db60208301856120fe565b6127e86040830184612094565b949350505050565b7f4f776e61626c653a206e6577206f776e657220697320746865207a65726f206160008201527f6464726573730000000000000000000000000000000000000000000000000000602082015250565b600061284c6026836122c0565b9150612857826127f0565b604082019050919050565b6000602082019050818103600083015261287b8161283f565b905091905056fea2646970667358221220be0da788206b7856f045566861a4791e86ad1aa4242736b990e2e82972687ab964736f6c634300080a0033",
  "immutableReferences": {},
  "source": "// SPDX-License-Identifier: MIT OR Apache-2.0\npragma solidity ^0.8.3;\n\nimport \"@openzeppelin/contracts/utils/Counters.sol\";\nimport \"@openzeppelin/contracts/security/ReentrancyGuard.sol\";\nimport \"@openzeppelin/contracts/token/ERC721/ERC721.sol\";\n\nimport \"./Owner.sol\";\n\ncontract NFTMarket is ReentrancyGuard, Owner {\n    using Counters for Counters.Counter;\n    Counters.Counter private _itemIds;\n    Counters.Counter private _itemsSold;\n    Counters.Counter private _itemsDelete;\n\n    address payable ownerAddress;\n    uint256 listingPrice = 0.025 ether;\n\n    constructor() {\n        ownerAddress = payable(msg.sender);\n    }\n\n    struct MarketItem {\n        uint256 itemId;\n        address nftContract;\n        uint256 tokenId;\n        address payable seller;\n        address payable ownerAddress;\n        uint256 price;\n        bool sold;\n        bool isDelete;\n    }\n\n    mapping(uint256 => MarketItem) private idToMarketItem;\n\n    event MarketItemCreated(\n        uint256 indexed itemId,\n        address indexed nftContract,\n        uint256 indexed tokenId,\n        address seller,\n        address ownerAddress,\n        uint256 price,\n        bool sold,\n        bool isDelete\n    );\n\n    /* Returns the listing price of the contract */\n    function getListingPrice() public view returns (uint256) {\n        return listingPrice;\n    }\n\n    /* Places an item for sale on the marketplace */\n    function createMarketItem(\n        address nftContract,\n        uint256 tokenId,\n        uint256 price\n    ) public payable nonReentrant {\n        require(price > 0, \"Price must be at least 1 wei\");\n        require(\n            msg.value == listingPrice,\n            \"Price must be equal to listing price\"\n        );\n\n        _itemIds.increment();\n        uint256 itemId = _itemIds.current();\n\n        idToMarketItem[itemId] = MarketItem(\n            itemId,\n            nftContract,\n            tokenId,\n            payable(msg.sender),\n            payable(address(0)),\n            price,\n            false,\n            false\n        );\n\n        IERC721(nftContract).transferFrom(msg.sender, address(this), tokenId);\n\n        emit MarketItemCreated(\n            itemId,\n            nftContract,\n            tokenId,\n            msg.sender,\n            address(0),\n            price,\n            false,\n            false\n        );\n    }\n\n    /* Creates the sale of a marketplace item */\n    /* Transfers ownerAddressship of the item, as well as funds between parties */\n    function createMarketSale(address nftContract, uint256 itemId)\n        public\n        payable\n        nonReentrant\n    {\n        uint256 price = idToMarketItem[itemId].price;\n        uint256 tokenId = idToMarketItem[itemId].tokenId;\n        require(\n            msg.value == price,\n            \"Please submit the asking price in order to complete the purchase\"\n        );\n\n        idToMarketItem[itemId].seller.transfer(msg.value);\n        IERC721(nftContract).transferFrom(address(this), msg.sender, tokenId);\n        idToMarketItem[itemId].ownerAddress = payable(msg.sender);\n        idToMarketItem[itemId].sold = true;\n        _itemsSold.increment();\n        payable(ownerAddress).transfer(listingPrice);\n    }\n\n    function fetchMarketItems() public view returns (MarketItem[] memory) {\n        uint256 totalItemCount = _itemIds.current();\n        uint256 itemCount = 0;\n        uint256 currentIndex = 0;\n\n        for (uint256 i = 0; i < totalItemCount; i++) {\n            if (\n                idToMarketItem[i + 1].ownerAddress == address(0) &&\n                idToMarketItem[i + 1].isDelete == false\n            ) {\n                itemCount += 1;\n            }\n        }\n\n        MarketItem[] memory items = new MarketItem[](itemCount);\n        for (uint256 i = 0; i < totalItemCount; i++) {\n            if (\n                idToMarketItem[i + 1].ownerAddress == address(0) &&\n                idToMarketItem[i + 1].isDelete == false\n            ) {\n                uint256 currentId = i + 1;\n                MarketItem storage currentItem = idToMarketItem[currentId];\n                items[currentIndex] = currentItem;\n                currentIndex += 1;\n            }\n        }\n        return items;\n    }\n\n    /* Returns onlyl items that a user has purchased */\n    function fetchMyNFTs() public view returns (MarketItem[] memory) {\n        uint256 totalItemCount = _itemIds.current();\n        uint256 itemCount = 0;\n        uint256 currentIndex = 0;\n\n        for (uint256 i = 0; i < totalItemCount; i++) {\n            if (\n                idToMarketItem[i + 1].ownerAddress == msg.sender &&\n                idToMarketItem[i + 1].isDelete == false\n            ) {\n                itemCount += 1;\n            }\n        }\n\n        MarketItem[] memory items = new MarketItem[](itemCount);\n        for (uint256 i = 0; i < totalItemCount; i++) {\n            if (\n                idToMarketItem[i + 1].ownerAddress == msg.sender &&\n                idToMarketItem[i + 1].isDelete == false\n            ) {\n                uint256 currentId = i + 1;\n                MarketItem storage currentItem = idToMarketItem[currentId];\n                items[currentIndex] = currentItem;\n                currentIndex += 1;\n            }\n        }\n        return items;\n    }\n\n    /* Returns only items a user has created */\n    function fetchItemsCreated() public view returns (MarketItem[] memory) {\n        uint256 totalItemCount = _itemIds.current();\n        uint256 itemCount = 0;\n        uint256 currentIndex = 0;\n\n        for (uint256 i = 0; i < totalItemCount; i++) {\n            if (\n                idToMarketItem[i + 1].seller == msg.sender &&\n                idToMarketItem[i + 1].isDelete == false\n            ) {\n                itemCount += 1;\n            }\n        }\n\n        MarketItem[] memory items = new MarketItem[](itemCount);\n        for (uint256 i = 0; i < totalItemCount; i++) {\n            if (\n                idToMarketItem[i + 1].seller == msg.sender &&\n                idToMarketItem[i + 1].isDelete == false\n            ) {\n                uint256 currentId = i + 1;\n                MarketItem storage currentItem = idToMarketItem[currentId];\n                items[currentIndex] = currentItem;\n                currentIndex += 1;\n            }\n        }\n        return items;\n    }\n\n    event DeleteMarketItem(\n        uint256 indexed itemId,\n        address indexed nftContract,\n        uint256 indexed tokenId,\n        address seller,\n        address ownerAddress,\n        uint256 price,\n        bool sold,\n        bool isDelete\n    );\n\n    function deleteMarketItem(address nftContract, uint256 itemId)\n        public\n        returns (uint256)\n    {\n        require(\n            idToMarketItem[itemId].ownerAddress == msg.sender ||\n                isApproved(msg.sender) == true,\n            \"This item is not your.\"\n        );\n        require(idToMarketItem[itemId].sold == true, \"This item is not sold.\");\n        require(\n            idToMarketItem[itemId].isDelete == false,\n            \"This item is already deleted.\"\n        );\n\n        idToMarketItem[itemId].isDelete = true;\n\n        _itemsDelete.increment();\n        emit DeleteMarketItem(\n            idToMarketItem[itemId].itemId,\n            nftContract,\n            idToMarketItem[itemId].tokenId,\n            idToMarketItem[itemId].seller,\n            idToMarketItem[itemId].ownerAddress,\n            idToMarketItem[itemId].price,\n            idToMarketItem[itemId].sold,\n            idToMarketItem[itemId].isDelete\n        );\n\n        return idToMarketItem[itemId].itemId;\n    }\n\n    function getMarketIdByToken(uint256 tokenId) public view returns (uint256) {\n        uint256 totalItemCount = _itemIds.current();\n        for (uint256 i = 0; i < totalItemCount; i++) {\n            if (idToMarketItem[i + 1].tokenId == tokenId) {\n                return idToMarketItem[i + 1].itemId;\n            }\n        }\n        return 0;\n    }\n}\n",
  "sourcePath": "/Users/siamsae-chua/Documents/_project/blockChainPlayGround/nft-marketplace-server/contracts/NFTMarket.sol",
  "compiler": {
    "name": "solc",
    "version": "0.8.10+commit.fc410830.Emscripten.clang"
  },
  "schemaVersion": "3.4.4",
  "updatedAt": "2022-02-21T06:54:15.643Z",
  "networkType": "ethereum",
  "devdoc": {
    "kind": "dev",
    "methods": {
      "owner()": {
        "details": "Returns the address of the current owner."
      },
      "renounceOwnership()": {
        "details": "Leaves the contract without owner. It will not be possible to call `onlyOwner` functions anymore. Can only be called by the current owner. NOTE: Renouncing ownership will leave the contract without an owner, thereby removing any functionality that is only available to the owner."
      },
      "transferOwnership(address)": {
        "details": "Transfers ownership of the contract to a new account (`newOwner`). Can only be called by the current owner."
      }
    },
    "version": 1
  },
  "userdoc": {
    "kind": "user",
    "methods": {},
    "version": 1
  }
}