{
  "contractName": "NFTMarket",
  "abi": [
    {
      "inputs": [],
      "stateMutability": "nonpayable",
      "type": "constructor"
    },
    {
      "anonymous": false,
      "inputs": [
        {
          "indexed": true,
          "internalType": "uint256",
          "name": "itemId",
          "type": "uint256"
        },
        {
          "indexed": true,
          "internalType": "address",
          "name": "nftContract",
          "type": "address"
        },
        {
          "indexed": true,
          "internalType": "uint256",
          "name": "tokenId",
          "type": "uint256"
        },
        {
          "indexed": false,
          "internalType": "address",
          "name": "seller",
          "type": "address"
        },
        {
          "indexed": false,
          "internalType": "address",
          "name": "owner",
          "type": "address"
        },
        {
          "indexed": false,
          "internalType": "uint256",
          "name": "price",
          "type": "uint256"
        },
        {
          "indexed": false,
          "internalType": "bool",
          "name": "sold",
          "type": "bool"
        },
        {
          "indexed": false,
          "internalType": "bool",
          "name": "isDelete",
          "type": "bool"
        }
      ],
      "name": "DeleteMarketItem",
      "type": "event"
    },
    {
      "anonymous": false,
      "inputs": [
        {
          "indexed": true,
          "internalType": "uint256",
          "name": "itemId",
          "type": "uint256"
        },
        {
          "indexed": true,
          "internalType": "address",
          "name": "nftContract",
          "type": "address"
        },
        {
          "indexed": true,
          "internalType": "uint256",
          "name": "tokenId",
          "type": "uint256"
        },
        {
          "indexed": false,
          "internalType": "address",
          "name": "seller",
          "type": "address"
        },
        {
          "indexed": false,
          "internalType": "address",
          "name": "owner",
          "type": "address"
        },
        {
          "indexed": false,
          "internalType": "uint256",
          "name": "price",
          "type": "uint256"
        },
        {
          "indexed": false,
          "internalType": "bool",
          "name": "sold",
          "type": "bool"
        },
        {
          "indexed": false,
          "internalType": "bool",
          "name": "isDelete",
          "type": "bool"
        }
      ],
      "name": "MarketItemCreated",
      "type": "event"
    },
    {
      "inputs": [],
      "name": "getListingPrice",
      "outputs": [
        {
          "internalType": "uint256",
          "name": "",
          "type": "uint256"
        }
      ],
      "stateMutability": "view",
      "type": "function",
      "constant": true
    },
    {
      "inputs": [
        {
          "internalType": "address",
          "name": "nftContract",
          "type": "address"
        },
        {
          "internalType": "uint256",
          "name": "tokenId",
          "type": "uint256"
        },
        {
          "internalType": "uint256",
          "name": "price",
          "type": "uint256"
        }
      ],
      "name": "createMarketItem",
      "outputs": [],
      "stateMutability": "payable",
      "type": "function",
      "payable": true
    },
    {
      "inputs": [
        {
          "internalType": "address",
          "name": "nftContract",
          "type": "address"
        },
        {
          "internalType": "uint256",
          "name": "itemId",
          "type": "uint256"
        }
      ],
      "name": "createMarketSale",
      "outputs": [],
      "stateMutability": "payable",
      "type": "function",
      "payable": true
    },
    {
      "inputs": [],
      "name": "fetchMarketItems",
      "outputs": [
        {
          "components": [
            {
              "internalType": "uint256",
              "name": "itemId",
              "type": "uint256"
            },
            {
              "internalType": "address",
              "name": "nftContract",
              "type": "address"
            },
            {
              "internalType": "uint256",
              "name": "tokenId",
              "type": "uint256"
            },
            {
              "internalType": "address payable",
              "name": "seller",
              "type": "address"
            },
            {
              "internalType": "address payable",
              "name": "owner",
              "type": "address"
            },
            {
              "internalType": "uint256",
              "name": "price",
              "type": "uint256"
            },
            {
              "internalType": "bool",
              "name": "sold",
              "type": "bool"
            },
            {
              "internalType": "bool",
              "name": "isDelete",
              "type": "bool"
            }
          ],
          "internalType": "struct NFTMarket.MarketItem[]",
          "name": "",
          "type": "tuple[]"
        }
      ],
      "stateMutability": "view",
      "type": "function",
      "constant": true
    },
    {
      "inputs": [],
      "name": "fetchMyNFTs",
      "outputs": [
        {
          "components": [
            {
              "internalType": "uint256",
              "name": "itemId",
              "type": "uint256"
            },
            {
              "internalType": "address",
              "name": "nftContract",
              "type": "address"
            },
            {
              "internalType": "uint256",
              "name": "tokenId",
              "type": "uint256"
            },
            {
              "internalType": "address payable",
              "name": "seller",
              "type": "address"
            },
            {
              "internalType": "address payable",
              "name": "owner",
              "type": "address"
            },
            {
              "internalType": "uint256",
              "name": "price",
              "type": "uint256"
            },
            {
              "internalType": "bool",
              "name": "sold",
              "type": "bool"
            },
            {
              "internalType": "bool",
              "name": "isDelete",
              "type": "bool"
            }
          ],
          "internalType": "struct NFTMarket.MarketItem[]",
          "name": "",
          "type": "tuple[]"
        }
      ],
      "stateMutability": "view",
      "type": "function",
      "constant": true
    },
    {
      "inputs": [],
      "name": "fetchItemsCreated",
      "outputs": [
        {
          "components": [
            {
              "internalType": "uint256",
              "name": "itemId",
              "type": "uint256"
            },
            {
              "internalType": "address",
              "name": "nftContract",
              "type": "address"
            },
            {
              "internalType": "uint256",
              "name": "tokenId",
              "type": "uint256"
            },
            {
              "internalType": "address payable",
              "name": "seller",
              "type": "address"
            },
            {
              "internalType": "address payable",
              "name": "owner",
              "type": "address"
            },
            {
              "internalType": "uint256",
              "name": "price",
              "type": "uint256"
            },
            {
              "internalType": "bool",
              "name": "sold",
              "type": "bool"
            },
            {
              "internalType": "bool",
              "name": "isDelete",
              "type": "bool"
            }
          ],
          "internalType": "struct NFTMarket.MarketItem[]",
          "name": "",
          "type": "tuple[]"
        }
      ],
      "stateMutability": "view",
      "type": "function",
      "constant": true
    },
    {
      "inputs": [
        {
          "internalType": "address",
          "name": "nftContract",
          "type": "address"
        },
        {
          "internalType": "uint256",
          "name": "itemId",
          "type": "uint256"
        }
      ],
      "name": "deleteMarketItem",
      "outputs": [
        {
          "internalType": "uint256",
          "name": "",
          "type": "uint256"
        }
      ],
      "stateMutability": "nonpayable",
      "type": "function"
    }
  ],
  "bytecode": "0x60806040526658d15e1762800060055534801561001b57600080fd5b50600160008190555033600460006101000a81548173ffffffffffffffffffffffffffffffffffffffff021916908373ffffffffffffffffffffffffffffffffffffffff1602179055506120a1806100746000396000f3fe6080604052600436106100705760003560e01c806358eb2df51161004e57806358eb2df5146100f657806375e0727f14610112578063c23b139e1461014f578063f064c32e1461016b57610070565b80630f08efe01461007557806312e85585146100a0578063202e3740146100cb575b600080fd5b34801561008157600080fd5b5061008a610196565b6040516100979190611958565b60405180910390f35b3480156100ac57600080fd5b506100b5610580565b6040516100c29190611989565b60405180910390f35b3480156100d757600080fd5b506100e061058a565b6040516100ed9190611958565b60405180910390f35b610110600480360381019061010b9190611a01565b610972565b005b34801561011e57600080fd5b5061013960048036038101906101349190611a54565b610d02565b6040516101469190611989565b60405180910390f35b61016960048036038101906101649190611a54565b611020565b005b34801561017757600080fd5b506101806112d9565b60405161018d9190611958565b60405180910390f35b606060006101a460016116c1565b905060008060005b8381101561028d57600073ffffffffffffffffffffffffffffffffffffffff16600660006001846101dd9190611ac3565b815260200190815260200160002060040160009054906101000a900473ffffffffffffffffffffffffffffffffffffffff1673ffffffffffffffffffffffffffffffffffffffff16148015610265575060001515600660006001846102429190611ac3565b815260200190815260200160002060060160019054906101000a900460ff161515145b1561027a576001836102779190611ac3565b92505b808061028590611b19565b9150506101ac565b5060008267ffffffffffffffff8111156102aa576102a9611b62565b5b6040519080825280602002602001820160405280156102e357816020015b6102d06116e5565b8152602001906001900390816102c85790505b50905060005b8481101561057557600073ffffffffffffffffffffffffffffffffffffffff166006600060018461031a9190611ac3565b815260200190815260200160002060040160009054906101000a900473ffffffffffffffffffffffffffffffffffffffff1673ffffffffffffffffffffffffffffffffffffffff161480156103a25750600015156006600060018461037f9190611ac3565b815260200190815260200160002060060160019054906101000a900460ff161515145b156105625760006001826103b69190611ac3565b905060006006600083815260200190815260200160002090508060405180610100016040529081600082015481526020016001820160009054906101000a900473ffffffffffffffffffffffffffffffffffffffff1673ffffffffffffffffffffffffffffffffffffffff1673ffffffffffffffffffffffffffffffffffffffff168152602001600282015481526020016003820160009054906101000a900473ffffffffffffffffffffffffffffffffffffffff1673ffffffffffffffffffffffffffffffffffffffff1673ffffffffffffffffffffffffffffffffffffffff1681526020016004820160009054906101000a900473ffffffffffffffffffffffffffffffffffffffff1673ffffffffffffffffffffffffffffffffffffffff1673ffffffffffffffffffffffffffffffffffffffff168152602001600582015481526020016006820160009054906101000a900460ff161515151581526020016006820160019054906101000a900460ff16151515158152505084868151811061054557610544611b91565b5b602002602001018190525060018561055d9190611ac3565b945050505b808061056d90611b19565b9150506102e9565b508094505050505090565b6000600554905090565b6060600061059860016116c1565b905060008060005b83811015610680573373ffffffffffffffffffffffffffffffffffffffff16600660006001846105d09190611ac3565b815260200190815260200160002060040160009054906101000a900473ffffffffffffffffffffffffffffffffffffffff1673ffffffffffffffffffffffffffffffffffffffff16148015610658575060001515600660006001846106359190611ac3565b815260200190815260200160002060060160019054906101000a900460ff161515145b1561066d5760018361066a9190611ac3565b92505b808061067890611b19565b9150506105a0565b5060008267ffffffffffffffff81111561069d5761069c611b62565b5b6040519080825280602002602001820160405280156106d657816020015b6106c36116e5565b8152602001906001900390816106bb5790505b50905060005b84811015610967573373ffffffffffffffffffffffffffffffffffffffff166006600060018461070c9190611ac3565b815260200190815260200160002060040160009054906101000a900473ffffffffffffffffffffffffffffffffffffffff1673ffffffffffffffffffffffffffffffffffffffff16148015610794575060001515600660006001846107719190611ac3565b815260200190815260200160002060060160019054906101000a900460ff161515145b156109545760006001826107a89190611ac3565b905060006006600083815260200190815260200160002090508060405180610100016040529081600082015481526020016001820160009054906101000a900473ffffffffffffffffffffffffffffffffffffffff1673ffffffffffffffffffffffffffffffffffffffff1673ffffffffffffffffffffffffffffffffffffffff168152602001600282015481526020016003820160009054906101000a900473ffffffffffffffffffffffffffffffffffffffff1673ffffffffffffffffffffffffffffffffffffffff1673ffffffffffffffffffffffffffffffffffffffff1681526020016004820160009054906101000a900473ffffffffffffffffffffffffffffffffffffffff1673ffffffffffffffffffffffffffffffffffffffff1673ffffffffffffffffffffffffffffffffffffffff168152602001600582015481526020016006820160009054906101000a900460ff161515151581526020016006820160019054906101000a900460ff16151515158152505084868151811061093757610936611b91565b5b602002602001018190525060018561094f9190611ac3565b945050505b808061095f90611b19565b9150506106dc565b508094505050505090565b600260005414156109b8576040517f08c379a00000000000000000000000000000000000000000000000000000000081526004016109af90611c1d565b60405180910390fd5b600260008190555060008111610a03576040517f08c379a00000000000000000000000000000000000000000000000000000000081526004016109fa90611c89565b60405180910390fd5b6005543414610a47576040517f08c379a0000000000000000000000000000000000000000000000000000000008152600401610a3e90611d1b565b60405180910390fd5b610a5160016116cf565b6000610a5d60016116c1565b90506040518061010001604052808281526020018573ffffffffffffffffffffffffffffffffffffffff1681526020018481526020013373ffffffffffffffffffffffffffffffffffffffff168152602001600073ffffffffffffffffffffffffffffffffffffffff16815260200183815260200160001515815260200160001515815250600660008381526020019081526020016000206000820151816000015560208201518160010160006101000a81548173ffffffffffffffffffffffffffffffffffffffff021916908373ffffffffffffffffffffffffffffffffffffffff1602179055506040820151816002015560608201518160030160006101000a81548173ffffffffffffffffffffffffffffffffffffffff021916908373ffffffffffffffffffffffffffffffffffffffff16021790555060808201518160040160006101000a81548173ffffffffffffffffffffffffffffffffffffffff021916908373ffffffffffffffffffffffffffffffffffffffff16021790555060a0820151816005015560c08201518160060160006101000a81548160ff02191690831515021790555060e08201518160060160016101000a81548160ff0219169083151502179055509050508373ffffffffffffffffffffffffffffffffffffffff166323b872dd3330866040518463ffffffff1660e01b8152600401610c6893929190611d4a565b600060405180830381600087803b158015610c8257600080fd5b505af1158015610c96573d6000803e3d6000fd5b50505050828473ffffffffffffffffffffffffffffffffffffffff16827fc99151f4453170a67bc7441775fde1a3bc3220c06645df1121e703aab5e7da5d33600087600080604051610cec959493929190611d90565b60405180910390a4506001600081905550505050565b60003373ffffffffffffffffffffffffffffffffffffffff166006600084815260200190815260200160002060040160009054906101000a900473ffffffffffffffffffffffffffffffffffffffff1673ffffffffffffffffffffffffffffffffffffffff1614610da8576040517f08c379a0000000000000000000000000000000000000000000000000000000008152600401610d9f90611e2f565b60405180910390fd5b600115156006600084815260200190815260200160002060060160009054906101000a900460ff16151514610e12576040517f08c379a0000000000000000000000000000000000000000000000000000000008152600401610e0990611e9b565b60405180910390fd5b600015156006600084815260200190815260200160002060060160019054906101000a900460ff16151514610e7c576040517f08c379a0000000000000000000000000000000000000000000000000000000008152600401610e7390611f07565b60405180910390fd5b60016006600084815260200190815260200160002060060160016101000a81548160ff021916908315150217905550610eb560036116cf565b60066000838152602001908152602001600020600201548373ffffffffffffffffffffffffffffffffffffffff1660066000858152602001908152602001600020600001547f367c15bfb509fff72acb3fb4b63c99dc1dbc9f123079f5922043c3da3d4426ab6006600087815260200190815260200160002060030160009054906101000a900473ffffffffffffffffffffffffffffffffffffffff166006600088815260200190815260200160002060040160009054906101000a900473ffffffffffffffffffffffffffffffffffffffff166006600089815260200190815260200160002060050154600660008a815260200190815260200160002060060160009054906101000a900460ff16600660008b815260200190815260200160002060060160019054906101000a900460ff16604051610ff9959493929190611f86565b60405180910390a46006600083815260200190815260200160002060000154905092915050565b60026000541415611066576040517f08c379a000000000000000000000000000000000000000000000000000000000815260040161105d90611c1d565b60405180910390fd5b60026000819055506000600660008381526020019081526020016000206005015490506000600660008481526020019081526020016000206002015490508134146110e6576040517f08c379a00000000000000000000000000000000000000000000000000000000081526004016110dd9061204b565b60405180910390fd5b6006600084815260200190815260200160002060030160009054906101000a900473ffffffffffffffffffffffffffffffffffffffff1673ffffffffffffffffffffffffffffffffffffffff166108fc349081150290604051600060405180830381858888f19350505050158015611162573d6000803e3d6000fd5b508373ffffffffffffffffffffffffffffffffffffffff166323b872dd3033846040518463ffffffff1660e01b81526004016111a093929190611d4a565b600060405180830381600087803b1580156111ba57600080fd5b505af11580156111ce573d6000803e3d6000fd5b50505050336006600085815260200190815260200160002060040160006101000a81548173ffffffffffffffffffffffffffffffffffffffff021916908373ffffffffffffffffffffffffffffffffffffffff16021790555060016006600085815260200190815260200160002060060160006101000a81548160ff02191690831515021790555061126060026116cf565b600460009054906101000a900473ffffffffffffffffffffffffffffffffffffffff1673ffffffffffffffffffffffffffffffffffffffff166108fc6005549081150290604051600060405180830381858888f193505050501580156112ca573d6000803e3d6000fd5b50505060016000819055505050565b606060006112e760016116c1565b905060008060005b838110156113cf573373ffffffffffffffffffffffffffffffffffffffff166006600060018461131f9190611ac3565b815260200190815260200160002060030160009054906101000a900473ffffffffffffffffffffffffffffffffffffffff1673ffffffffffffffffffffffffffffffffffffffff161480156113a7575060001515600660006001846113849190611ac3565b815260200190815260200160002060060160019054906101000a900460ff161515145b156113bc576001836113b99190611ac3565b92505b80806113c790611b19565b9150506112ef565b5060008267ffffffffffffffff8111156113ec576113eb611b62565b5b60405190808252806020026020018201604052801561142557816020015b6114126116e5565b81526020019060019003908161140a5790505b50905060005b848110156116b6573373ffffffffffffffffffffffffffffffffffffffff166006600060018461145b9190611ac3565b815260200190815260200160002060030160009054906101000a900473ffffffffffffffffffffffffffffffffffffffff1673ffffffffffffffffffffffffffffffffffffffff161480156114e3575060001515600660006001846114c09190611ac3565b815260200190815260200160002060060160019054906101000a900460ff161515145b156116a35760006001826114f79190611ac3565b905060006006600083815260200190815260200160002090508060405180610100016040529081600082015481526020016001820160009054906101000a900473ffffffffffffffffffffffffffffffffffffffff1673ffffffffffffffffffffffffffffffffffffffff1673ffffffffffffffffffffffffffffffffffffffff168152602001600282015481526020016003820160009054906101000a900473ffffffffffffffffffffffffffffffffffffffff1673ffffffffffffffffffffffffffffffffffffffff1673ffffffffffffffffffffffffffffffffffffffff1681526020016004820160009054906101000a900473ffffffffffffffffffffffffffffffffffffffff1673ffffffffffffffffffffffffffffffffffffffff1673ffffffffffffffffffffffffffffffffffffffff168152602001600582015481526020016006820160009054906101000a900460ff161515151581526020016006820160019054906101000a900460ff16151515158152505084868151811061168657611685611b91565b5b602002602001018190525060018561169e9190611ac3565b945050505b80806116ae90611b19565b91505061142b565b508094505050505090565b600081600001549050919050565b6001816000016000828254019250508190555050565b60405180610100016040528060008152602001600073ffffffffffffffffffffffffffffffffffffffff16815260200160008152602001600073ffffffffffffffffffffffffffffffffffffffff168152602001600073ffffffffffffffffffffffffffffffffffffffff168152602001600081526020016000151581526020016000151581525090565b600081519050919050565b600082825260208201905092915050565b6000819050602082019050919050565b6000819050919050565b6117af8161179c565b82525050565b600073ffffffffffffffffffffffffffffffffffffffff82169050919050565b60006117e0826117b5565b9050919050565b6117f0816117d5565b82525050565b6000611801826117b5565b9050919050565b611811816117f6565b82525050565b60008115159050919050565b61182c81611817565b82525050565b6101008201600082015161184960008501826117a6565b50602082015161185c60208501826117e7565b50604082015161186f60408501826117a6565b5060608201516118826060850182611808565b5060808201516118956080850182611808565b5060a08201516118a860a08501826117a6565b5060c08201516118bb60c0850182611823565b5060e08201516118ce60e0850182611823565b50505050565b60006118e08383611832565b6101008301905092915050565b6000602082019050919050565b600061190582611770565b61190f818561177b565b935061191a8361178c565b8060005b8381101561194b57815161193288826118d4565b975061193d836118ed565b92505060018101905061191e565b5085935050505092915050565b6000602082019050818103600083015261197281846118fa565b905092915050565b6119838161179c565b82525050565b600060208201905061199e600083018461197a565b92915050565b600080fd5b6119b2816117d5565b81146119bd57600080fd5b50565b6000813590506119cf816119a9565b92915050565b6119de8161179c565b81146119e957600080fd5b50565b6000813590506119fb816119d5565b92915050565b600080600060608486031215611a1a57611a196119a4565b5b6000611a28868287016119c0565b9350506020611a39868287016119ec565b9250506040611a4a868287016119ec565b9150509250925092565b60008060408385031215611a6b57611a6a6119a4565b5b6000611a79858286016119c0565b9250506020611a8a858286016119ec565b9150509250929050565b7f4e487b7100000000000000000000000000000000000000000000000000000000600052601160045260246000fd5b6000611ace8261179c565b9150611ad98361179c565b9250827fffffffffffffffffffffffffffffffffffffffffffffffffffffffffffffffff03821115611b0e57611b0d611a94565b5b828201905092915050565b6000611b248261179c565b91507fffffffffffffffffffffffffffffffffffffffffffffffffffffffffffffffff821415611b5757611b56611a94565b5b600182019050919050565b7f4e487b7100000000000000000000000000000000000000000000000000000000600052604160045260246000fd5b7f4e487b7100000000000000000000000000000000000000000000000000000000600052603260045260246000fd5b600082825260208201905092915050565b7f5265656e7472616e637947756172643a207265656e7472616e742063616c6c00600082015250565b6000611c07601f83611bc0565b9150611c1282611bd1565b602082019050919050565b60006020820190508181036000830152611c3681611bfa565b9050919050565b7f5072696365206d757374206265206174206c6561737420312077656900000000600082015250565b6000611c73601c83611bc0565b9150611c7e82611c3d565b602082019050919050565b60006020820190508181036000830152611ca281611c66565b9050919050565b7f5072696365206d75737420626520657175616c20746f206c697374696e67207060008201527f7269636500000000000000000000000000000000000000000000000000000000602082015250565b6000611d05602483611bc0565b9150611d1082611ca9565b604082019050919050565b60006020820190508181036000830152611d3481611cf8565b9050919050565b611d44816117d5565b82525050565b6000606082019050611d5f6000830186611d3b565b611d6c6020830185611d3b565b611d79604083018461197a565b949350505050565b611d8a81611817565b82525050565b600060a082019050611da56000830188611d3b565b611db26020830187611d3b565b611dbf604083018661197a565b611dcc6060830185611d81565b611dd96080830184611d81565b9695505050505050565b7f54686973206974656d206973206e6f7420796f75722e00000000000000000000600082015250565b6000611e19601683611bc0565b9150611e2482611de3565b602082019050919050565b60006020820190508181036000830152611e4881611e0c565b9050919050565b7f54686973206974656d206973206e6f7420736f6c642e00000000000000000000600082015250565b6000611e85601683611bc0565b9150611e9082611e4f565b602082019050919050565b60006020820190508181036000830152611eb481611e78565b9050919050565b7f54686973206974656d20697320616c72656164792064656c657465642e000000600082015250565b6000611ef1601d83611bc0565b9150611efc82611ebb565b602082019050919050565b60006020820190508181036000830152611f2081611ee4565b9050919050565b6000819050919050565b6000611f4c611f47611f42846117b5565b611f27565b6117b5565b9050919050565b6000611f5e82611f31565b9050919050565b6000611f7082611f53565b9050919050565b611f8081611f65565b82525050565b600060a082019050611f9b6000830188611f77565b611fa86020830187611f77565b611fb5604083018661197a565b611fc26060830185611d81565b611fcf6080830184611d81565b9695505050505050565b7f506c65617365207375626d6974207468652061736b696e67207072696365206960008201527f6e206f7264657220746f20636f6d706c65746520746865207075726368617365602082015250565b6000612035604083611bc0565b915061204082611fd9565b604082019050919050565b6000602082019050818103600083015261206481612028565b905091905056fea2646970667358221220fc65375c1a566809476823d4f4adefdf10781556b8819a1481ee3790cbf049a064736f6c634300080a0033",
  "immutableReferences": {},
  "source": "// SPDX-License-Identifier: MIT OR Apache-2.0\npragma solidity ^0.8.3;\n\nimport \"@openzeppelin/contracts/utils/Counters.sol\";\nimport \"@openzeppelin/contracts/security/ReentrancyGuard.sol\";\nimport \"@openzeppelin/contracts/token/ERC721/ERC721.sol\";\n\ncontract NFTMarket is ReentrancyGuard {\n    using Counters for Counters.Counter;\n    Counters.Counter private _itemIds;\n    Counters.Counter private _itemsSold;\n    Counters.Counter private _itemsDelete;\n\n    address payable owner;\n    uint256 listingPrice = 0.025 ether;\n\n    constructor() {\n        owner = payable(msg.sender);\n    }\n\n    struct MarketItem {\n        uint256 itemId;\n        address nftContract;\n        uint256 tokenId;\n        address payable seller;\n        address payable owner;\n        uint256 price;\n        bool sold;\n        bool isDelete;\n    }\n\n    mapping(uint256 => MarketItem) private idToMarketItem;\n\n    event MarketItemCreated(\n        uint256 indexed itemId,\n        address indexed nftContract,\n        uint256 indexed tokenId,\n        address seller,\n        address owner,\n        uint256 price,\n        bool sold,\n        bool isDelete\n    );\n\n    /* Returns the listing price of the contract */\n    function getListingPrice() public view returns (uint256) {\n        return listingPrice;\n    }\n\n    /* Places an item for sale on the marketplace */\n    function createMarketItem(\n        address nftContract,\n        uint256 tokenId,\n        uint256 price\n    ) public payable nonReentrant {\n        require(price > 0, \"Price must be at least 1 wei\");\n        require(\n            msg.value == listingPrice,\n            \"Price must be equal to listing price\"\n        );\n\n        _itemIds.increment();\n        uint256 itemId = _itemIds.current();\n\n        idToMarketItem[itemId] = MarketItem(\n            itemId,\n            nftContract,\n            tokenId,\n            payable(msg.sender),\n            payable(address(0)),\n            price,\n            false,\n            false\n        );\n\n        IERC721(nftContract).transferFrom(msg.sender, address(this), tokenId);\n\n        emit MarketItemCreated(\n            itemId,\n            nftContract,\n            tokenId,\n            msg.sender,\n            address(0),\n            price,\n            false,\n            false\n        );\n    }\n\n    /* Creates the sale of a marketplace item */\n    /* Transfers ownership of the item, as well as funds between parties */\n    function createMarketSale(address nftContract, uint256 itemId)\n        public\n        payable\n        nonReentrant\n    {\n        uint256 price = idToMarketItem[itemId].price;\n        uint256 tokenId = idToMarketItem[itemId].tokenId;\n        require(\n            msg.value == price,\n            \"Please submit the asking price in order to complete the purchase\"\n        );\n\n        idToMarketItem[itemId].seller.transfer(msg.value);\n        IERC721(nftContract).transferFrom(address(this), msg.sender, tokenId);\n        idToMarketItem[itemId].owner = payable(msg.sender);\n        idToMarketItem[itemId].sold = true;\n        _itemsSold.increment();\n        payable(owner).transfer(listingPrice);\n    }\n\n    /* Returns all unsold market items */\n    // function fetchMarketItems() public view returns (MarketItem[] memory) {\n    //     uint256 itemCount = _itemIds.current();\n    //     uint256 unsoldItemCount = _itemIds.current() -\n    //         _itemsSold.current() -\n    //         _itemsDelete.current();\n    //     uint256 currentIndex = 0;\n\n    //     MarketItem[] memory items = new MarketItem[](unsoldItemCount);\n    //     for (uint256 i = 0; i < itemCount; i++) {\n    //         if (\n    //             idToMarketItem[i + 1].owner == address(0) &&\n    //             idToMarketItem[i + 1].isDelete == false\n    //         ) {\n    //             uint256 currentId = i + 1;\n    //             MarketItem storage currentItem = idToMarketItem[currentId];\n    //             items[currentIndex] = currentItem;\n    //             currentIndex += 1;\n    //         }\n    //     }\n    //     return items;\n    // }\n\n    function fetchMarketItems() public view returns (MarketItem[] memory) {\n        uint256 totalItemCount = _itemIds.current();\n        uint256 itemCount = 0;\n        uint256 currentIndex = 0;\n\n        for (uint256 i = 0; i < totalItemCount; i++) {\n            if (\n                idToMarketItem[i + 1].owner == address(0) &&\n                idToMarketItem[i + 1].isDelete == false\n            ) {\n                itemCount += 1;\n            }\n        }\n\n        MarketItem[] memory items = new MarketItem[](itemCount);\n        for (uint256 i = 0; i < totalItemCount; i++) {\n            if (\n                idToMarketItem[i + 1].owner == address(0) &&\n                idToMarketItem[i + 1].isDelete == false\n            ) {\n                uint256 currentId = i + 1;\n                MarketItem storage currentItem = idToMarketItem[currentId];\n                items[currentIndex] = currentItem;\n                currentIndex += 1;\n            }\n        }\n        return items;\n    }\n\n    /* Returns onlyl items that a user has purchased */\n    function fetchMyNFTs() public view returns (MarketItem[] memory) {\n        uint256 totalItemCount = _itemIds.current();\n        uint256 itemCount = 0;\n        uint256 currentIndex = 0;\n\n        for (uint256 i = 0; i < totalItemCount; i++) {\n            if (\n                idToMarketItem[i + 1].owner == msg.sender &&\n                idToMarketItem[i + 1].isDelete == false\n            ) {\n                itemCount += 1;\n            }\n        }\n\n        MarketItem[] memory items = new MarketItem[](itemCount);\n        for (uint256 i = 0; i < totalItemCount; i++) {\n            if (\n                idToMarketItem[i + 1].owner == msg.sender &&\n                idToMarketItem[i + 1].isDelete == false\n            ) {\n                uint256 currentId = i + 1;\n                MarketItem storage currentItem = idToMarketItem[currentId];\n                items[currentIndex] = currentItem;\n                currentIndex += 1;\n            }\n        }\n        return items;\n    }\n\n    /* Returns only items a user has created */\n    function fetchItemsCreated() public view returns (MarketItem[] memory) {\n        uint256 totalItemCount = _itemIds.current();\n        uint256 itemCount = 0;\n        uint256 currentIndex = 0;\n\n        for (uint256 i = 0; i < totalItemCount; i++) {\n            if (\n                idToMarketItem[i + 1].seller == msg.sender &&\n                idToMarketItem[i + 1].isDelete == false\n            ) {\n                itemCount += 1;\n            }\n        }\n\n        MarketItem[] memory items = new MarketItem[](itemCount);\n        for (uint256 i = 0; i < totalItemCount; i++) {\n            if (\n                idToMarketItem[i + 1].seller == msg.sender &&\n                idToMarketItem[i + 1].isDelete == false\n            ) {\n                uint256 currentId = i + 1;\n                MarketItem storage currentItem = idToMarketItem[currentId];\n                items[currentIndex] = currentItem;\n                currentIndex += 1;\n            }\n        }\n        return items;\n    }\n\n    event DeleteMarketItem(\n        uint256 indexed itemId,\n        address indexed nftContract,\n        uint256 indexed tokenId,\n        address seller,\n        address owner,\n        uint256 price,\n        bool sold,\n        bool isDelete\n    );\n\n    function deleteMarketItem(address nftContract, uint256 itemId)\n        public\n        returns (uint256)\n    {\n        require(\n            idToMarketItem[itemId].owner == msg.sender,\n            \"This item is not your.\"\n        );\n        require(idToMarketItem[itemId].sold == true, \"This item is not sold.\");\n        require(\n            idToMarketItem[itemId].isDelete == false,\n            \"This item is already deleted.\"\n        );\n\n        idToMarketItem[itemId].isDelete = true;\n\n        _itemsDelete.increment();\n        emit DeleteMarketItem(\n            idToMarketItem[itemId].itemId,\n            nftContract,\n            idToMarketItem[itemId].tokenId,\n            idToMarketItem[itemId].seller,\n            idToMarketItem[itemId].owner,\n            idToMarketItem[itemId].price,\n            idToMarketItem[itemId].sold,\n            idToMarketItem[itemId].isDelete\n        );\n\n        return idToMarketItem[itemId].itemId;\n    }\n}\n",
  "sourcePath": "/Users/siamsae-chua/Documents/_project/blockChainPlayGround/nft-marketplace-server/contracts/NFTMarket.sol",
  "compiler": {
    "name": "solc",
    "version": "0.8.10+commit.fc410830.Emscripten.clang"
  },
  "schemaVersion": "3.4.4",
  "updatedAt": "2022-02-15T17:46:00.832Z",
  "networkType": "ethereum",
  "devdoc": {
    "kind": "dev",
    "methods": {},
    "version": 1
  },
  "userdoc": {
    "kind": "user",
    "methods": {},
    "version": 1
  }
}