{
  "contractName": "Owner",
  "abi": [
    {
      "anonymous": false,
      "inputs": [
        {
          "indexed": true,
          "internalType": "address",
          "name": "previousOwner",
          "type": "address"
        },
        {
          "indexed": true,
          "internalType": "address",
          "name": "newOwner",
          "type": "address"
        }
      ],
      "name": "OwnershipTransferred",
      "type": "event"
    },
    {
      "anonymous": false,
      "inputs": [
        {
          "indexed": false,
          "internalType": "address",
          "name": "sender",
          "type": "address"
        },
        {
          "indexed": false,
          "internalType": "address",
          "name": "contractAddress",
          "type": "address"
        },
        {
          "indexed": false,
          "internalType": "bool",
          "name": "approved",
          "type": "bool"
        }
      ],
      "name": "UpdateApprovals",
      "type": "event"
    },
    {
      "inputs": [],
      "name": "owner",
      "outputs": [
        {
          "internalType": "address",
          "name": "",
          "type": "address"
        }
      ],
      "stateMutability": "view",
      "type": "function"
    },
    {
      "inputs": [],
      "name": "renounceOwnership",
      "outputs": [],
      "stateMutability": "nonpayable",
      "type": "function"
    },
    {
      "inputs": [
        {
          "internalType": "address",
          "name": "newOwner",
          "type": "address"
        }
      ],
      "name": "transferOwnership",
      "outputs": [],
      "stateMutability": "nonpayable",
      "type": "function"
    },
    {
      "inputs": [
        {
          "internalType": "address",
          "name": "contractAddress",
          "type": "address"
        },
        {
          "internalType": "bool",
          "name": "approved",
          "type": "bool"
        }
      ],
      "name": "updateApprovals",
      "outputs": [],
      "stateMutability": "nonpayable",
      "type": "function"
    },
    {
      "inputs": [
        {
          "internalType": "address",
          "name": "contractAddress",
          "type": "address"
        }
      ],
      "name": "isApproved",
      "outputs": [
        {
          "internalType": "bool",
          "name": "",
          "type": "bool"
        }
      ],
      "stateMutability": "view",
      "type": "function"
    }
  ],
  "bytecode": "0x608060405234801561001057600080fd5b5061002d61002261003260201b60201c565b61003a60201b60201c565b6100fe565b600033905090565b60008060009054906101000a900473ffffffffffffffffffffffffffffffffffffffff169050816000806101000a81548173ffffffffffffffffffffffffffffffffffffffff021916908373ffffffffffffffffffffffffffffffffffffffff1602179055508173ffffffffffffffffffffffffffffffffffffffff168173ffffffffffffffffffffffffffffffffffffffff167f8be0079c531659141344cd1fd0a4f28419497f9722a3daafe3b4186f6b6457e060405160405180910390a35050565b6107a18061010d6000396000f3fe608060405234801561001057600080fd5b50600436106100575760003560e01c8063673448dd1461005c578063715018a61461008c5780638da5cb5b14610096578063e02ab4ae146100b4578063f2fde38b146100d0575b600080fd5b6100766004803603810190610071919061052c565b6100ec565b6040516100839190610574565b60405180910390f35b610094610142565b005b61009e6101ca565b6040516100ab919061059e565b60405180910390f35b6100ce60048036038101906100c991906105e5565b6101f3565b005b6100ea60048036038101906100e5919061052c565b610305565b005b6000600160008373ffffffffffffffffffffffffffffffffffffffff1673ffffffffffffffffffffffffffffffffffffffff16815260200190815260200160002060009054906101000a900460ff169050919050565b61014a6103fd565b73ffffffffffffffffffffffffffffffffffffffff166101686101ca565b73ffffffffffffffffffffffffffffffffffffffff16146101be576040517f08c379a00000000000000000000000000000000000000000000000000000000081526004016101b590610682565b60405180910390fd5b6101c86000610405565b565b60008060009054906101000a900473ffffffffffffffffffffffffffffffffffffffff16905090565b6101fb6103fd565b73ffffffffffffffffffffffffffffffffffffffff166102196101ca565b73ffffffffffffffffffffffffffffffffffffffff161461026f576040517f08c379a000000000000000000000000000000000000000000000000000000000815260040161026690610682565b60405180910390fd5b80600160008473ffffffffffffffffffffffffffffffffffffffff1673ffffffffffffffffffffffffffffffffffffffff16815260200190815260200160002060006101000a81548160ff0219169083151502179055507f941a2ca67f46c43d03aeb2c213a50c902f071ed217b87f264d0ddd03b582ff323383836040516102f9939291906106a2565b60405180910390a15050565b61030d6103fd565b73ffffffffffffffffffffffffffffffffffffffff1661032b6101ca565b73ffffffffffffffffffffffffffffffffffffffff1614610381576040517f08c379a000000000000000000000000000000000000000000000000000000000815260040161037890610682565b60405180910390fd5b600073ffffffffffffffffffffffffffffffffffffffff168173ffffffffffffffffffffffffffffffffffffffff1614156103f1576040517f08c379a00000000000000000000000000000000000000000000000000000000081526004016103e89061074b565b60405180910390fd5b6103fa81610405565b50565b600033905090565b60008060009054906101000a900473ffffffffffffffffffffffffffffffffffffffff169050816000806101000a81548173ffffffffffffffffffffffffffffffffffffffff021916908373ffffffffffffffffffffffffffffffffffffffff1602179055508173ffffffffffffffffffffffffffffffffffffffff168173ffffffffffffffffffffffffffffffffffffffff167f8be0079c531659141344cd1fd0a4f28419497f9722a3daafe3b4186f6b6457e060405160405180910390a35050565b600080fd5b600073ffffffffffffffffffffffffffffffffffffffff82169050919050565b60006104f9826104ce565b9050919050565b610509816104ee565b811461051457600080fd5b50565b60008135905061052681610500565b92915050565b600060208284031215610542576105416104c9565b5b600061055084828501610517565b91505092915050565b60008115159050919050565b61056e81610559565b82525050565b60006020820190506105896000830184610565565b92915050565b610598816104ee565b82525050565b60006020820190506105b3600083018461058f565b92915050565b6105c281610559565b81146105cd57600080fd5b50565b6000813590506105df816105b9565b92915050565b600080604083850312156105fc576105fb6104c9565b5b600061060a85828601610517565b925050602061061b858286016105d0565b9150509250929050565b600082825260208201905092915050565b7f4f776e61626c653a2063616c6c6572206973206e6f7420746865206f776e6572600082015250565b600061066c602083610625565b915061067782610636565b602082019050919050565b6000602082019050818103600083015261069b8161065f565b9050919050565b60006060820190506106b7600083018661058f565b6106c4602083018561058f565b6106d16040830184610565565b949350505050565b7f4f776e61626c653a206e6577206f776e657220697320746865207a65726f206160008201527f6464726573730000000000000000000000000000000000000000000000000000602082015250565b6000610735602683610625565b9150610740826106d9565b604082019050919050565b6000602082019050818103600083015261076481610728565b905091905056fea26469706673582212208c2f90cfaee9466cdf96a1ba43e5f4adc273b6b425197103ec6895897a343ff964736f6c634300080a0033",
  "immutableReferences": {},
  "source": "// SPDX-License-Identifier: MIT OR Apache-2.0\npragma solidity ^0.8.3;\n\nimport \"@openzeppelin/contracts/access/Ownable.sol\";\n\ncontract Owner is Ownable {\n    mapping(address => bool) private _approvals;\n\n    event UpdateApprovals(\n        address sender,\n        address contractAddress,\n        bool approved\n    );\n\n    function updateApprovals(address contractAddress, bool approved)\n        public\n        onlyOwner\n    {\n        _approvals[contractAddress] = approved;\n\n        emit UpdateApprovals(msg.sender, contractAddress, approved);\n    }\n\n    function isApproved(address contractAddress) public view returns (bool) {\n        return _approvals[contractAddress];\n    }\n}\n",
  "sourcePath": "/Users/siamsae-chua/Documents/_project/blockChainPlayGround/nft-marketplace-server/contracts/Owner.sol",
  "compiler": {
    "name": "solc",
    "version": "0.8.10+commit.fc410830.Emscripten.clang"
  },
  "schemaVersion": "3.4.4",
  "updatedAt": "2022-02-21T06:54:12.259Z",
  "devdoc": {
    "kind": "dev",
    "methods": {
      "owner()": {
        "details": "Returns the address of the current owner."
      },
      "renounceOwnership()": {
        "details": "Leaves the contract without owner. It will not be possible to call `onlyOwner` functions anymore. Can only be called by the current owner. NOTE: Renouncing ownership will leave the contract without an owner, thereby removing any functionality that is only available to the owner."
      },
      "transferOwnership(address)": {
        "details": "Transfers ownership of the contract to a new account (`newOwner`). Can only be called by the current owner."
      }
    },
    "version": 1
  },
  "userdoc": {
    "kind": "user",
    "methods": {},
    "version": 1
  }
}